{
	"bloc.sol": {
		"Bloc": {
			"abi": [
				{
					"constant": false,
					"inputs": [
						{
							"internalType": "string",
							"name": "_task",
							"type": "string"
						}
					],
					"name": "addTask",
					"outputs": [],
					"payable": true,
					"stateMutability": "payable",
					"type": "function"
				},
				{
					"constant": false,
					"inputs": [
						{
							"internalType": "uint256",
							"name": "_taskIndex",
							"type": "uint256"
						}
					],
					"name": "deleteTask",
					"outputs": [],
					"payable": true,
					"stateMutability": "payable",
					"type": "function"
				},
				{
					"constant": true,
					"inputs": [
						{
							"internalType": "uint256",
							"name": "_taskIndex",
							"type": "uint256"
						}
					],
					"name": "getTask",
					"outputs": [
						{
							"components": [
								{
									"internalType": "string",
									"name": "task",
									"type": "string"
								},
								{
									"internalType": "bool",
									"name": "isDone",
									"type": "bool"
								}
							],
							"internalType": "struct Bloc.Task",
							"name": "",
							"type": "tuple"
						}
					],
					"payable": false,
					"stateMutability": "view",
					"type": "function"
				},
				{
					"constant": true,
					"inputs": [],
					"name": "getTaskCount",
					"outputs": [
						{
							"internalType": "uint256",
							"name": "",
							"type": "uint256"
						}
					],
					"payable": false,
					"stateMutability": "view",
					"type": "function"
				},
				{
					"constant": false,
					"inputs": [
						{
							"internalType": "uint256",
							"name": "_taskIndex",
							"type": "uint256"
						},
						{
							"internalType": "bool",
							"name": "_status",
							"type": "bool"
						}
					],
					"name": "updateStatus",
					"outputs": [],
					"payable": true,
					"stateMutability": "payable",
					"type": "function"
				}
			],
			"devdoc": {
				"methods": {}
			},
			"evm": {
				"assembly": "    /* \"bloc.sol\":82:1030  contract Bloc{... */\n  mstore(0x40, 0x80)\n  callvalue\n    /* \"--CODEGEN--\":8:17   */\n  dup1\n    /* \"--CODEGEN--\":5:7   */\n  iszero\n  tag_1\n  jumpi\n    /* \"--CODEGEN--\":30:31   */\n  0x00\n    /* \"--CODEGEN--\":27:28   */\n  dup1\n    /* \"--CODEGEN--\":20:32   */\n  revert\n    /* \"--CODEGEN--\":5:7   */\ntag_1:\n    /* \"bloc.sol\":82:1030  contract Bloc{... */\n  pop\n  dataSize(sub_0)\n  dup1\n  dataOffset(sub_0)\n  0x00\n  codecopy\n  0x00\n  return\nstop\n\nsub_0: assembly {\n        /* \"bloc.sol\":82:1030  contract Bloc{... */\n      mstore(0x40, 0x80)\n      jumpi(tag_1, lt(calldatasize, 0x04))\n      shr(0xe0, calldataload(0x00))\n      dup1\n      0x1d65e77e\n      eq\n      tag_2\n      jumpi\n      dup1\n      0x387008c2\n      eq\n      tag_3\n      jumpi\n      dup1\n      0x560f3192\n      eq\n      tag_4\n      jumpi\n      dup1\n      0x67238562\n      eq\n      tag_5\n      jumpi\n      dup1\n      0xc17a340e\n      eq\n      tag_6\n      jumpi\n    tag_1:\n      0x00\n      dup1\n      revert\n        /* \"bloc.sol\":439:576  function getTask(uint _taskIndex) external view returns (Task memory)... */\n    tag_2:\n      callvalue\n        /* \"--CODEGEN--\":8:17   */\n      dup1\n        /* \"--CODEGEN--\":5:7   */\n      iszero\n      tag_7\n      jumpi\n        /* \"--CODEGEN--\":30:31   */\n      0x00\n        /* \"--CODEGEN--\":27:28   */\n      dup1\n        /* \"--CODEGEN--\":20:32   */\n      revert\n        /* \"--CODEGEN--\":5:7   */\n    tag_7:\n        /* \"bloc.sol\":439:576  function getTask(uint _taskIndex) external view returns (Task memory)... */\n      pop\n      tag_8\n      0x04\n      dup1\n      calldatasize\n      sub\n      tag_9\n      swap2\n      swap1\n      dup2\n      add\n      swap1\n      jump(tag_10)\n    tag_9:\n      tag_11\n      jump\t// in\n    tag_8:\n      mload(0x40)\n      tag_12\n      swap2\n      swap1\n      jump(tag_13)\n    tag_12:\n      mload(0x40)\n      dup1\n      swap2\n      sub\n      swap1\n      return\n        /* \"bloc.sol\":628:751  function updateStatus(uint256 _taskIndex,bool _status) external payable... */\n    tag_3:\n      tag_14\n      0x04\n      dup1\n      calldatasize\n      sub\n      tag_15\n      swap2\n      swap1\n      dup2\n      add\n      swap1\n      jump(tag_16)\n    tag_15:\n      tag_17\n      jump\t// in\n    tag_14:\n      stop\n        /* \"bloc.sol\":793:892  function deleteTask(uint256 _taskIndex) external payable... */\n    tag_4:\n      tag_18\n      0x04\n      dup1\n      calldatasize\n      sub\n      tag_19\n      swap2\n      swap1\n      dup2\n      add\n      swap1\n      jump(tag_10)\n    tag_19:\n      tag_20\n      jump\t// in\n    tag_18:\n      stop\n        /* \"bloc.sol\":265:389  function addTask(string calldata _task) external  payable... */\n    tag_5:\n      tag_21\n      0x04\n      dup1\n      calldatasize\n      sub\n      tag_22\n      swap2\n      swap1\n      dup2\n      add\n      swap1\n      jump(tag_23)\n    tag_22:\n      tag_24\n      jump\t// in\n    tag_21:\n      stop\n        /* \"bloc.sol\":936:1028  function getTaskCount() external view returns (uint256)... */\n    tag_6:\n      callvalue\n        /* \"--CODEGEN--\":8:17   */\n      dup1\n        /* \"--CODEGEN--\":5:7   */\n      iszero\n      tag_25\n      jumpi\n        /* \"--CODEGEN--\":30:31   */\n      0x00\n        /* \"--CODEGEN--\":27:28   */\n      dup1\n        /* \"--CODEGEN--\":20:32   */\n      revert\n        /* \"--CODEGEN--\":5:7   */\n    tag_25:\n        /* \"bloc.sol\":936:1028  function getTaskCount() external view returns (uint256)... */\n      pop\n      tag_26\n      tag_27\n      jump\t// in\n    tag_26:\n      mload(0x40)\n      tag_28\n      swap2\n      swap1\n      jump(tag_29)\n    tag_28:\n      mload(0x40)\n      dup1\n      swap2\n      sub\n      swap1\n      return\n        /* \"bloc.sol\":439:576  function getTask(uint _taskIndex) external view returns (Task memory)... */\n    tag_11:\n        /* \"bloc.sol\":496:507  Task memory */\n      tag_30\n      tag_31\n      jump\t// in\n    tag_30:\n        /* \"bloc.sol\":511:528  Task storage task */\n      0x00\n        /* \"bloc.sol\":531:536  Users */\n      dup1\n        /* \"bloc.sol\":531:548  Users[msg.sender] */\n      0x00\n        /* \"bloc.sol\":537:547  msg.sender */\n      caller\n        /* \"bloc.sol\":531:548  Users[msg.sender] */\n      0xffffffffffffffffffffffffffffffffffffffff\n      and\n      0xffffffffffffffffffffffffffffffffffffffff\n      and\n      dup2\n      mstore\n      0x20\n      add\n      swap1\n      dup2\n      mstore\n      0x20\n      add\n      0x00\n      keccak256\n        /* \"bloc.sol\":549:559  _taskIndex */\n      dup4\n        /* \"bloc.sol\":531:560  Users[msg.sender][_taskIndex] */\n      dup2\n      sload\n      dup2\n      lt\n      tag_33\n      jumpi\n      invalid\n    tag_33:\n      swap1\n      0x00\n      mstore\n      keccak256(0x00, 0x20)\n      swap1\n      0x02\n      mul\n      add\n        /* \"bloc.sol\":511:560  Task storage task = Users[msg.sender][_taskIndex] */\n      swap1\n      pop\n        /* \"bloc.sol\":569:573  task */\n      dup1\n        /* \"bloc.sol\":562:573  return task */\n      mload(0x40)\n      dup1\n      0x40\n      add\n      0x40\n      mstore\n      swap1\n      dup2\n      0x00\n      dup3\n      add\n      dup1\n      sload\n      0x01\n      dup2\n      0x01\n      and\n      iszero\n      0x0100\n      mul\n      sub\n      and\n      0x02\n      swap1\n      div\n      dup1\n      0x1f\n      add\n      0x20\n      dup1\n      swap2\n      div\n      mul\n      0x20\n      add\n      mload(0x40)\n      swap1\n      dup2\n      add\n      0x40\n      mstore\n      dup1\n      swap3\n      swap2\n      swap1\n      dup2\n      dup2\n      mstore\n      0x20\n      add\n      dup3\n      dup1\n      sload\n      0x01\n      dup2\n      0x01\n      and\n      iszero\n      0x0100\n      mul\n      sub\n      and\n      0x02\n      swap1\n      div\n      dup1\n      iszero\n      tag_35\n      jumpi\n      dup1\n      0x1f\n      lt\n      tag_36\n      jumpi\n      0x0100\n      dup1\n      dup4\n      sload\n      div\n      mul\n      dup4\n      mstore\n      swap2\n      0x20\n      add\n      swap2\n      jump(tag_35)\n    tag_36:\n      dup3\n      add\n      swap2\n      swap1\n      0x00\n      mstore\n      keccak256(0x00, 0x20)\n      swap1\n    tag_37:\n      dup2\n      sload\n      dup2\n      mstore\n      swap1\n      0x01\n      add\n      swap1\n      0x20\n      add\n      dup1\n      dup4\n      gt\n      tag_37\n      jumpi\n      dup3\n      swap1\n      sub\n      0x1f\n      and\n      dup3\n      add\n      swap2\n    tag_35:\n      pop\n      pop\n      pop\n      pop\n      pop\n      dup2\n      mstore\n      0x20\n      add\n      0x01\n      dup3\n      add\n      0x00\n      swap1\n      sload\n      swap1\n      0x0100\n      exp\n      swap1\n      div\n      0xff\n      and\n      iszero\n      iszero\n      iszero\n      iszero\n      dup2\n      mstore\n      pop\n      pop\n      swap2\n      pop\n      pop\n        /* \"bloc.sol\":439:576  function getTask(uint _taskIndex) external view returns (Task memory)... */\n      swap2\n      swap1\n      pop\n      jump\t// out\n        /* \"bloc.sol\":628:751  function updateStatus(uint256 _taskIndex,bool _status) external payable... */\n    tag_17:\n        /* \"bloc.sol\":741:748  _status */\n      dup1\n        /* \"bloc.sol\":702:707  Users */\n      0x00\n        /* \"bloc.sol\":702:719  Users[msg.sender] */\n      dup1\n        /* \"bloc.sol\":708:718  msg.sender */\n      caller\n        /* \"bloc.sol\":702:719  Users[msg.sender] */\n      0xffffffffffffffffffffffffffffffffffffffff\n      and\n      0xffffffffffffffffffffffffffffffffffffffff\n      and\n      dup2\n      mstore\n      0x20\n      add\n      swap1\n      dup2\n      mstore\n      0x20\n      add\n      0x00\n      keccak256\n        /* \"bloc.sol\":720:730  _taskIndex */\n      dup4\n        /* \"bloc.sol\":702:731  Users[msg.sender][_taskIndex] */\n      dup2\n      sload\n      dup2\n      lt\n      tag_39\n      jumpi\n      invalid\n    tag_39:\n      swap1\n      0x00\n      mstore\n      keccak256(0x00, 0x20)\n      swap1\n      0x02\n      mul\n      add\n        /* \"bloc.sol\":702:738  Users[msg.sender][_taskIndex].isDone */\n      0x01\n      add\n      0x00\n        /* \"bloc.sol\":702:748  Users[msg.sender][_taskIndex].isDone = _status */\n      0x0100\n      exp\n      dup2\n      sload\n      dup2\n      0xff\n      mul\n      not\n      and\n      swap1\n      dup4\n      iszero\n      iszero\n      mul\n      or\n      swap1\n      sstore\n      pop\n        /* \"bloc.sol\":628:751  function updateStatus(uint256 _taskIndex,bool _status) external payable... */\n      pop\n      pop\n      jump\t// out\n        /* \"bloc.sol\":793:892  function deleteTask(uint256 _taskIndex) external payable... */\n    tag_20:\n        /* \"bloc.sol\":859:864  Users */\n      0x00\n        /* \"bloc.sol\":859:876  Users[msg.sender] */\n      dup1\n        /* \"bloc.sol\":865:875  msg.sender */\n      caller\n        /* \"bloc.sol\":859:876  Users[msg.sender] */\n      0xffffffffffffffffffffffffffffffffffffffff\n      and\n      0xffffffffffffffffffffffffffffffffffffffff\n      and\n      dup2\n      mstore\n      0x20\n      add\n      swap1\n      dup2\n      mstore\n      0x20\n      add\n      0x00\n      keccak256\n        /* \"bloc.sol\":877:887  _taskIndex */\n      dup2\n        /* \"bloc.sol\":859:888  Users[msg.sender][_taskIndex] */\n      dup2\n      sload\n      dup2\n      lt\n      tag_42\n      jumpi\n      invalid\n    tag_42:\n      swap1\n      0x00\n      mstore\n      keccak256(0x00, 0x20)\n      swap1\n      0x02\n      mul\n      add\n      0x00\n        /* \"bloc.sol\":852:888  delete Users[msg.sender][_taskIndex] */\n      dup1\n      dup3\n      add\n      0x00\n      tag_44\n      swap2\n      swap1\n      tag_45\n      jump\t// in\n    tag_44:\n      0x01\n      dup3\n      add\n      exp(0x0100, 0x00)\n      dup2\n      sload\n      swap1\n      0xff\n      mul\n      not\n      and\n      swap1\n      sstore\n      pop\n      pop\n        /* \"bloc.sol\":793:892  function deleteTask(uint256 _taskIndex) external payable... */\n      pop\n      jump\t// out\n        /* \"bloc.sol\":265:389  function addTask(string calldata _task) external  payable... */\n    tag_24:\n        /* \"bloc.sol\":325:330  Users */\n      0x00\n        /* \"bloc.sol\":325:342  Users[msg.sender] */\n      dup1\n        /* \"bloc.sol\":331:341  msg.sender */\n      caller\n        /* \"bloc.sol\":325:342  Users[msg.sender] */\n      0xffffffffffffffffffffffffffffffffffffffff\n      and\n      0xffffffffffffffffffffffffffffffffffffffff\n      and\n      dup2\n      mstore\n      0x20\n      add\n      swap1\n      dup2\n      mstore\n      0x20\n      add\n      0x00\n      keccak256\n        /* \"bloc.sol\":348:385  Task({... */\n      mload(0x40)\n      dup1\n      0x40\n      add\n      0x40\n      mstore\n      dup1\n        /* \"bloc.sol\":361:366  _task */\n      dup5\n      dup5\n        /* \"bloc.sol\":348:385  Task({... */\n      dup1\n      dup1\n      0x1f\n      add\n      0x20\n      dup1\n      swap2\n      div\n      mul\n      0x20\n      add\n      mload(0x40)\n      swap1\n      dup2\n      add\n      0x40\n      mstore\n      dup1\n      swap4\n      swap3\n      swap2\n      swap1\n      dup2\n      dup2\n      mstore\n      0x20\n      add\n      dup4\n      dup4\n        /* \"--CODEGEN--\":30:33   */\n      dup1\n        /* \"--CODEGEN--\":22:28   */\n      dup3\n        /* \"--CODEGEN--\":14:20   */\n      dup5\n        /* \"--CODEGEN--\":1:34   */\n      calldatacopy\n        /* \"--CODEGEN--\":99:100   */\n      0x00\n        /* \"--CODEGEN--\":93:96   */\n      dup2\n        /* \"--CODEGEN--\":85:91   */\n      dup5\n        /* \"--CODEGEN--\":81:97   */\n      add\n        /* \"--CODEGEN--\":74:101   */\n      mstore\n        /* \"--CODEGEN--\":137:141   */\n      0x1f\n        /* \"--CODEGEN--\":133:142   */\n      not\n        /* \"--CODEGEN--\":126:130   */\n      0x1f\n        /* \"--CODEGEN--\":121:124   */\n      dup3\n        /* \"--CODEGEN--\":117:131   */\n      add\n        /* \"--CODEGEN--\":113:143   */\n      and\n        /* \"--CODEGEN--\":106:143   */\n      swap1\n      pop\n        /* \"--CODEGEN--\":169:172   */\n      dup1\n        /* \"--CODEGEN--\":161:167   */\n      dup4\n        /* \"--CODEGEN--\":157:173   */\n      add\n        /* \"--CODEGEN--\":147:173   */\n      swap3\n      pop\n        /* \"bloc.sol\":348:385  Task({... */\n      pop\n      pop\n      pop\n      pop\n      pop\n      pop\n      dup2\n      mstore\n      0x20\n      add\n        /* \"bloc.sol\":376:381  false */\n      0x00\n        /* \"bloc.sol\":348:385  Task({... */\n      iszero\n      iszero\n      dup2\n      mstore\n      pop\n        /* \"bloc.sol\":325:386  Users[msg.sender].push(Task({... */\n      swap1\n      dup1\n        /* \"--CODEGEN--\":39:40   */\n      0x01\n        /* \"--CODEGEN--\":33:36   */\n      dup2\n        /* \"--CODEGEN--\":27:37   */\n      sload\n        /* \"--CODEGEN--\":23:41   */\n      add\n        /* \"--CODEGEN--\":57:67   */\n      dup1\n        /* \"--CODEGEN--\":52:55   */\n      dup3\n        /* \"--CODEGEN--\":45:68   */\n      sstore\n        /* \"--CODEGEN--\":79:89   */\n      dup1\n        /* \"--CODEGEN--\":72:89   */\n      swap2\n      pop\n        /* \"--CODEGEN--\":0:93   */\n      pop\n        /* \"bloc.sol\":325:386  Users[msg.sender].push(Task({... */\n      swap1\n      0x01\n      dup3\n      sub\n      swap1\n      0x00\n      mstore\n      keccak256(0x00, 0x20)\n      swap1\n      0x02\n      mul\n      add\n      0x00\n      swap1\n      swap2\n      swap3\n      swap1\n      swap2\n      swap1\n      swap2\n      pop\n      0x00\n      dup3\n      add\n      mload\n      dup2\n      0x00\n      add\n      swap1\n      dup1\n      mload\n      swap1\n      0x20\n      add\n      swap1\n      tag_48\n      swap3\n      swap2\n      swap1\n      tag_49\n      jump\t// in\n    tag_48:\n      pop\n      0x20\n      dup3\n      add\n      mload\n      dup2\n      0x01\n      add\n      exp(0x0100, 0x00)\n      dup2\n      sload\n      dup2\n      0xff\n      mul\n      not\n      and\n      swap1\n      dup4\n      iszero\n      iszero\n      mul\n      or\n      swap1\n      sstore\n      pop\n      pop\n      pop\n      pop\n        /* \"bloc.sol\":265:389  function addTask(string calldata _task) external  payable... */\n      pop\n      pop\n      jump\t// out\n        /* \"bloc.sol\":936:1028  function getTaskCount() external view returns (uint256)... */\n    tag_27:\n        /* \"bloc.sol\":983:990  uint256 */\n      0x00\n        /* \"bloc.sol\":1001:1006  Users */\n      dup1\n        /* \"bloc.sol\":1001:1018  Users[msg.sender] */\n      0x00\n        /* \"bloc.sol\":1007:1017  msg.sender */\n      caller\n        /* \"bloc.sol\":1001:1018  Users[msg.sender] */\n      0xffffffffffffffffffffffffffffffffffffffff\n      and\n      0xffffffffffffffffffffffffffffffffffffffff\n      and\n      dup2\n      mstore\n      0x20\n      add\n      swap1\n      dup2\n      mstore\n      0x20\n      add\n      0x00\n      keccak256\n        /* \"bloc.sol\":1001:1025  Users[msg.sender].length */\n      dup1\n      sload\n      swap1\n      pop\n        /* \"bloc.sol\":994:1025  return Users[msg.sender].length */\n      swap1\n      pop\n        /* \"bloc.sol\":936:1028  function getTaskCount() external view returns (uint256)... */\n      swap1\n      jump\t// out\n        /* \"bloc.sol\":82:1030  contract Bloc{... */\n    tag_31:\n      mload(0x40)\n      dup1\n      0x40\n      add\n      0x40\n      mstore\n      dup1\n      0x60\n      dup2\n      mstore\n      0x20\n      add\n      iszero(iszero(0x00))\n      dup2\n      mstore\n      pop\n      swap1\n      jump\t// out\n    tag_45:\n      pop\n      dup1\n      sload\n      0x01\n      dup2\n      0x01\n      and\n      iszero\n      0x0100\n      mul\n      sub\n      and\n      0x02\n      swap1\n      div\n      0x00\n      dup3\n      sstore\n      dup1\n      0x1f\n      lt\n      tag_52\n      jumpi\n      pop\n      jump(tag_51)\n    tag_52:\n      0x1f\n      add\n      0x20\n      swap1\n      div\n      swap1\n      0x00\n      mstore\n      keccak256(0x00, 0x20)\n      swap1\n      dup2\n      add\n      swap1\n      tag_53\n      swap2\n      swap1\n      tag_54\n      jump\t// in\n    tag_53:\n    tag_51:\n      pop\n      jump\t// out\n    tag_49:\n      dup3\n      dup1\n      sload\n      0x01\n      dup2\n      0x01\n      and\n      iszero\n      0x0100\n      mul\n      sub\n      and\n      0x02\n      swap1\n      div\n      swap1\n      0x00\n      mstore\n      keccak256(0x00, 0x20)\n      swap1\n      0x1f\n      add\n      0x20\n      swap1\n      div\n      dup2\n      add\n      swap3\n      dup3\n      0x1f\n      lt\n      tag_56\n      jumpi\n      dup1\n      mload\n      not(0xff)\n      and\n      dup4\n      dup1\n      add\n      or\n      dup6\n      sstore\n      jump(tag_55)\n    tag_56:\n      dup3\n      dup1\n      add\n      0x01\n      add\n      dup6\n      sstore\n      dup3\n      iszero\n      tag_55\n      jumpi\n      swap2\n      dup3\n      add\n    tag_57:\n      dup3\n      dup2\n      gt\n      iszero\n      tag_58\n      jumpi\n      dup3\n      mload\n      dup3\n      sstore\n      swap2\n      0x20\n      add\n      swap2\n      swap1\n      0x01\n      add\n      swap1\n      jump(tag_57)\n    tag_58:\n    tag_55:\n      pop\n      swap1\n      pop\n      tag_59\n      swap2\n      swap1\n      tag_54\n      jump\t// in\n    tag_59:\n      pop\n      swap1\n      jump\t// out\n    tag_54:\n      tag_60\n      swap2\n      swap1\n    tag_61:\n      dup1\n      dup3\n      gt\n      iszero\n      tag_62\n      jumpi\n      0x00\n      dup2\n      0x00\n      swap1\n      sstore\n      pop\n      0x01\n      add\n      jump(tag_61)\n    tag_62:\n      pop\n      swap1\n      jump\n    tag_60:\n      swap1\n      jump\t// out\n        /* \"--CODEGEN--\":5:129   */\n    tag_64:\n      0x00\n        /* \"--CODEGEN--\":82:88   */\n      dup2\n        /* \"--CODEGEN--\":69:89   */\n      calldataload\n        /* \"--CODEGEN--\":60:89   */\n      swap1\n      pop\n        /* \"--CODEGEN--\":94:124   */\n      tag_65\n        /* \"--CODEGEN--\":118:123   */\n      dup2\n        /* \"--CODEGEN--\":94:124   */\n      jump(tag_66)\n    tag_65:\n        /* \"--CODEGEN--\":54:129   */\n      swap3\n      swap2\n      pop\n      pop\n      jump\n        /* \"--CODEGEN--\":151:488   */\n    tag_67:\n      0x00\n      dup1\n        /* \"--CODEGEN--\":266:269   */\n      dup4\n        /* \"--CODEGEN--\":259:263   */\n      0x1f\n        /* \"--CODEGEN--\":251:257   */\n      dup5\n        /* \"--CODEGEN--\":247:264   */\n      add\n        /* \"--CODEGEN--\":243:270   */\n      slt\n        /* \"--CODEGEN--\":233:235   */\n      tag_68\n      jumpi\n        /* \"--CODEGEN--\":284:285   */\n      0x00\n        /* \"--CODEGEN--\":281:282   */\n      dup1\n        /* \"--CODEGEN--\":274:286   */\n      revert\n        /* \"--CODEGEN--\":233:235   */\n    tag_68:\n        /* \"--CODEGEN--\":317:323   */\n      dup3\n        /* \"--CODEGEN--\":304:324   */\n      calldataload\n        /* \"--CODEGEN--\":294:324   */\n      swap1\n      pop\n        /* \"--CODEGEN--\":344:362   */\n      0xffffffffffffffff\n        /* \"--CODEGEN--\":336:342   */\n      dup2\n        /* \"--CODEGEN--\":333:363   */\n      gt\n        /* \"--CODEGEN--\":330:332   */\n      iszero\n      tag_69\n      jumpi\n        /* \"--CODEGEN--\":376:377   */\n      0x00\n        /* \"--CODEGEN--\":373:374   */\n      dup1\n        /* \"--CODEGEN--\":366:378   */\n      revert\n        /* \"--CODEGEN--\":330:332   */\n    tag_69:\n        /* \"--CODEGEN--\":410:414   */\n      0x20\n        /* \"--CODEGEN--\":402:408   */\n      dup4\n        /* \"--CODEGEN--\":398:415   */\n      add\n        /* \"--CODEGEN--\":386:415   */\n      swap2\n      pop\n        /* \"--CODEGEN--\":461:464   */\n      dup4\n        /* \"--CODEGEN--\":453:457   */\n      0x01\n        /* \"--CODEGEN--\":445:451   */\n      dup3\n        /* \"--CODEGEN--\":441:458   */\n      mul\n        /* \"--CODEGEN--\":431:439   */\n      dup4\n        /* \"--CODEGEN--\":427:459   */\n      add\n        /* \"--CODEGEN--\":424:465   */\n      gt\n        /* \"--CODEGEN--\":421:423   */\n      iszero\n      tag_70\n      jumpi\n        /* \"--CODEGEN--\":478:479   */\n      0x00\n        /* \"--CODEGEN--\":475:476   */\n      dup1\n        /* \"--CODEGEN--\":468:480   */\n      revert\n        /* \"--CODEGEN--\":421:423   */\n    tag_70:\n        /* \"--CODEGEN--\":226:488   */\n      swap3\n      pop\n      swap3\n      swap1\n      pop\n      jump\n        /* \"--CODEGEN--\":496:626   */\n    tag_71:\n      0x00\n        /* \"--CODEGEN--\":576:582   */\n      dup2\n        /* \"--CODEGEN--\":563:583   */\n      calldataload\n        /* \"--CODEGEN--\":554:583   */\n      swap1\n      pop\n        /* \"--CODEGEN--\":588:621   */\n      tag_72\n        /* \"--CODEGEN--\":615:620   */\n      dup2\n        /* \"--CODEGEN--\":588:621   */\n      jump(tag_73)\n    tag_72:\n        /* \"--CODEGEN--\":548:626   */\n      swap3\n      swap2\n      pop\n      pop\n      jump\n        /* \"--CODEGEN--\":633:1000   */\n    tag_23:\n      0x00\n      dup1\n        /* \"--CODEGEN--\":757:759   */\n      0x20\n        /* \"--CODEGEN--\":745:754   */\n      dup4\n        /* \"--CODEGEN--\":736:743   */\n      dup6\n        /* \"--CODEGEN--\":732:755   */\n      sub\n        /* \"--CODEGEN--\":728:760   */\n      slt\n        /* \"--CODEGEN--\":725:727   */\n      iszero\n      tag_74\n      jumpi\n        /* \"--CODEGEN--\":773:774   */\n      0x00\n        /* \"--CODEGEN--\":770:771   */\n      dup1\n        /* \"--CODEGEN--\":763:775   */\n      revert\n        /* \"--CODEGEN--\":725:727   */\n    tag_74:\n        /* \"--CODEGEN--\":836:837   */\n      0x00\n        /* \"--CODEGEN--\":825:834   */\n      dup4\n        /* \"--CODEGEN--\":821:838   */\n      add\n        /* \"--CODEGEN--\":808:839   */\n      calldataload\n        /* \"--CODEGEN--\":859:877   */\n      0xffffffffffffffff\n        /* \"--CODEGEN--\":851:857   */\n      dup2\n        /* \"--CODEGEN--\":848:878   */\n      gt\n        /* \"--CODEGEN--\":845:847   */\n      iszero\n      tag_75\n      jumpi\n        /* \"--CODEGEN--\":891:892   */\n      0x00\n        /* \"--CODEGEN--\":888:889   */\n      dup1\n        /* \"--CODEGEN--\":881:893   */\n      revert\n        /* \"--CODEGEN--\":845:847   */\n    tag_75:\n        /* \"--CODEGEN--\":919:984   */\n      tag_76\n        /* \"--CODEGEN--\":976:983   */\n      dup6\n        /* \"--CODEGEN--\":967:973   */\n      dup3\n        /* \"--CODEGEN--\":956:965   */\n      dup7\n        /* \"--CODEGEN--\":952:974   */\n      add\n        /* \"--CODEGEN--\":919:984   */\n      jump(tag_67)\n    tag_76:\n        /* \"--CODEGEN--\":909:984   */\n      swap3\n      pop\n      swap3\n      pop\n        /* \"--CODEGEN--\":787:990   */\n      pop\n        /* \"--CODEGEN--\":719:1000   */\n      swap3\n      pop\n      swap3\n      swap1\n      pop\n      jump\n        /* \"--CODEGEN--\":1007:1248   */\n    tag_10:\n      0x00\n        /* \"--CODEGEN--\":1111:1113   */\n      0x20\n        /* \"--CODEGEN--\":1099:1108   */\n      dup3\n        /* \"--CODEGEN--\":1090:1097   */\n      dup5\n        /* \"--CODEGEN--\":1086:1109   */\n      sub\n        /* \"--CODEGEN--\":1082:1114   */\n      slt\n        /* \"--CODEGEN--\":1079:1081   */\n      iszero\n      tag_77\n      jumpi\n        /* \"--CODEGEN--\":1127:1128   */\n      0x00\n        /* \"--CODEGEN--\":1124:1125   */\n      dup1\n        /* \"--CODEGEN--\":1117:1129   */\n      revert\n        /* \"--CODEGEN--\":1079:1081   */\n    tag_77:\n        /* \"--CODEGEN--\":1162:1163   */\n      0x00\n        /* \"--CODEGEN--\":1179:1232   */\n      tag_78\n        /* \"--CODEGEN--\":1224:1231   */\n      dup5\n        /* \"--CODEGEN--\":1215:1221   */\n      dup3\n        /* \"--CODEGEN--\":1204:1213   */\n      dup6\n        /* \"--CODEGEN--\":1200:1222   */\n      add\n        /* \"--CODEGEN--\":1179:1232   */\n      jump(tag_71)\n    tag_78:\n        /* \"--CODEGEN--\":1169:1232   */\n      swap2\n      pop\n        /* \"--CODEGEN--\":1141:1238   */\n      pop\n        /* \"--CODEGEN--\":1073:1248   */\n      swap3\n      swap2\n      pop\n      pop\n      jump\n        /* \"--CODEGEN--\":1255:1615   */\n    tag_16:\n      0x00\n      dup1\n        /* \"--CODEGEN--\":1373:1375   */\n      0x40\n        /* \"--CODEGEN--\":1361:1370   */\n      dup4\n        /* \"--CODEGEN--\":1352:1359   */\n      dup6\n        /* \"--CODEGEN--\":1348:1371   */\n      sub\n        /* \"--CODEGEN--\":1344:1376   */\n      slt\n        /* \"--CODEGEN--\":1341:1343   */\n      iszero\n      tag_79\n      jumpi\n        /* \"--CODEGEN--\":1389:1390   */\n      0x00\n        /* \"--CODEGEN--\":1386:1387   */\n      dup1\n        /* \"--CODEGEN--\":1379:1391   */\n      revert\n        /* \"--CODEGEN--\":1341:1343   */\n    tag_79:\n        /* \"--CODEGEN--\":1424:1425   */\n      0x00\n        /* \"--CODEGEN--\":1441:1494   */\n      tag_80\n        /* \"--CODEGEN--\":1486:1493   */\n      dup6\n        /* \"--CODEGEN--\":1477:1483   */\n      dup3\n        /* \"--CODEGEN--\":1466:1475   */\n      dup7\n        /* \"--CODEGEN--\":1462:1484   */\n      add\n        /* \"--CODEGEN--\":1441:1494   */\n      jump(tag_71)\n    tag_80:\n        /* \"--CODEGEN--\":1431:1494   */\n      swap3\n      pop\n        /* \"--CODEGEN--\":1403:1500   */\n      pop\n        /* \"--CODEGEN--\":1531:1533   */\n      0x20\n        /* \"--CODEGEN--\":1549:1599   */\n      tag_81\n        /* \"--CODEGEN--\":1591:1598   */\n      dup6\n        /* \"--CODEGEN--\":1582:1588   */\n      dup3\n        /* \"--CODEGEN--\":1571:1580   */\n      dup7\n        /* \"--CODEGEN--\":1567:1589   */\n      add\n        /* \"--CODEGEN--\":1549:1599   */\n      jump(tag_64)\n    tag_81:\n        /* \"--CODEGEN--\":1539:1599   */\n      swap2\n      pop\n        /* \"--CODEGEN--\":1510:1605   */\n      pop\n        /* \"--CODEGEN--\":1335:1615   */\n      swap3\n      pop\n      swap3\n      swap1\n      pop\n      jump\n        /* \"--CODEGEN--\":1622:1716   */\n    tag_82:\n        /* \"--CODEGEN--\":1689:1710   */\n      tag_83\n        /* \"--CODEGEN--\":1704:1709   */\n      dup2\n        /* \"--CODEGEN--\":1689:1710   */\n      jump(tag_84)\n    tag_83:\n        /* \"--CODEGEN--\":1684:1687   */\n      dup3\n        /* \"--CODEGEN--\":1677:1711   */\n      mstore\n        /* \"--CODEGEN--\":1671:1716   */\n      pop\n      pop\n      jump\n        /* \"--CODEGEN--\":1723:2042   */\n    tag_85:\n      0x00\n        /* \"--CODEGEN--\":1821:1856   */\n      tag_86\n        /* \"--CODEGEN--\":1850:1855   */\n      dup3\n        /* \"--CODEGEN--\":1821:1856   */\n      jump(tag_87)\n    tag_86:\n        /* \"--CODEGEN--\":1868:1929   */\n      tag_88\n        /* \"--CODEGEN--\":1922:1928   */\n      dup2\n        /* \"--CODEGEN--\":1917:1920   */\n      dup6\n        /* \"--CODEGEN--\":1868:1929   */\n      jump(tag_89)\n    tag_88:\n        /* \"--CODEGEN--\":1861:1929   */\n      swap4\n      pop\n        /* \"--CODEGEN--\":1934:1986   */\n      tag_90\n        /* \"--CODEGEN--\":1979:1985   */\n      dup2\n        /* \"--CODEGEN--\":1974:1977   */\n      dup6\n        /* \"--CODEGEN--\":1967:1971   */\n      0x20\n        /* \"--CODEGEN--\":1960:1965   */\n      dup7\n        /* \"--CODEGEN--\":1956:1972   */\n      add\n        /* \"--CODEGEN--\":1934:1986   */\n      jump(tag_91)\n    tag_90:\n        /* \"--CODEGEN--\":2007:2036   */\n      tag_92\n        /* \"--CODEGEN--\":2029:2035   */\n      dup2\n        /* \"--CODEGEN--\":2007:2036   */\n      jump(tag_93)\n    tag_92:\n        /* \"--CODEGEN--\":2002:2005   */\n      dup5\n        /* \"--CODEGEN--\":1998:2037   */\n      add\n        /* \"--CODEGEN--\":1991:2037   */\n      swap2\n      pop\n        /* \"--CODEGEN--\":1801:2042   */\n      pop\n      swap3\n      swap2\n      pop\n      pop\n      jump\n        /* \"--CODEGEN--\":2092:2643   */\n    tag_94:\n      0x00\n        /* \"--CODEGEN--\":2231:2235   */\n      0x40\n        /* \"--CODEGEN--\":2226:2229   */\n      dup4\n        /* \"--CODEGEN--\":2222:2236   */\n      add\n        /* \"--CODEGEN--\":2314:2318   */\n      0x00\n        /* \"--CODEGEN--\":2307:2312   */\n      dup4\n        /* \"--CODEGEN--\":2303:2319   */\n      add\n        /* \"--CODEGEN--\":2297:2320   */\n      mload\n        /* \"--CODEGEN--\":2366:2369   */\n      dup5\n        /* \"--CODEGEN--\":2360:2364   */\n      dup3\n        /* \"--CODEGEN--\":2356:2370   */\n      sub\n        /* \"--CODEGEN--\":2349:2353   */\n      0x00\n        /* \"--CODEGEN--\":2344:2347   */\n      dup7\n        /* \"--CODEGEN--\":2340:2354   */\n      add\n        /* \"--CODEGEN--\":2333:2371   */\n      mstore\n        /* \"--CODEGEN--\":2386:2455   */\n      tag_95\n        /* \"--CODEGEN--\":2450:2454   */\n      dup3\n        /* \"--CODEGEN--\":2436:2448   */\n      dup3\n        /* \"--CODEGEN--\":2386:2455   */\n      jump(tag_85)\n    tag_95:\n        /* \"--CODEGEN--\":2378:2455   */\n      swap2\n      pop\n        /* \"--CODEGEN--\":2251:2467   */\n      pop\n        /* \"--CODEGEN--\":2542:2546   */\n      0x20\n        /* \"--CODEGEN--\":2535:2540   */\n      dup4\n        /* \"--CODEGEN--\":2531:2547   */\n      add\n        /* \"--CODEGEN--\":2525:2548   */\n      mload\n        /* \"--CODEGEN--\":2554:2611   */\n      tag_96\n        /* \"--CODEGEN--\":2605:2609   */\n      0x20\n        /* \"--CODEGEN--\":2600:2603   */\n      dup7\n        /* \"--CODEGEN--\":2596:2610   */\n      add\n        /* \"--CODEGEN--\":2582:2594   */\n      dup3\n        /* \"--CODEGEN--\":2554:2611   */\n      jump(tag_82)\n    tag_96:\n        /* \"--CODEGEN--\":2477:2617   */\n      pop\n        /* \"--CODEGEN--\":2634:2638   */\n      dup1\n        /* \"--CODEGEN--\":2627:2638   */\n      swap2\n      pop\n        /* \"--CODEGEN--\":2204:2643   */\n      pop\n      swap3\n      swap2\n      pop\n      pop\n      jump\n        /* \"--CODEGEN--\":2650:2763   */\n    tag_97:\n        /* \"--CODEGEN--\":2733:2757   */\n      tag_98\n        /* \"--CODEGEN--\":2751:2756   */\n      dup2\n        /* \"--CODEGEN--\":2733:2757   */\n      jump(tag_99)\n    tag_98:\n        /* \"--CODEGEN--\":2728:2731   */\n      dup3\n        /* \"--CODEGEN--\":2721:2758   */\n      mstore\n        /* \"--CODEGEN--\":2715:2763   */\n      pop\n      pop\n      jump\n        /* \"--CODEGEN--\":2770:3107   */\n    tag_13:\n      0x00\n        /* \"--CODEGEN--\":2926:2928   */\n      0x20\n        /* \"--CODEGEN--\":2915:2924   */\n      dup3\n        /* \"--CODEGEN--\":2911:2929   */\n      add\n        /* \"--CODEGEN--\":2903:2929   */\n      swap1\n      pop\n        /* \"--CODEGEN--\":2976:2985   */\n      dup2\n        /* \"--CODEGEN--\":2970:2974   */\n      dup2\n        /* \"--CODEGEN--\":2966:2986   */\n      sub\n        /* \"--CODEGEN--\":2962:2963   */\n      0x00\n        /* \"--CODEGEN--\":2951:2960   */\n      dup4\n        /* \"--CODEGEN--\":2947:2964   */\n      add\n        /* \"--CODEGEN--\":2940:2987   */\n      mstore\n        /* \"--CODEGEN--\":3001:3097   */\n      tag_100\n        /* \"--CODEGEN--\":3092:3096   */\n      dup2\n        /* \"--CODEGEN--\":3083:3089   */\n      dup5\n        /* \"--CODEGEN--\":3001:3097   */\n      jump(tag_94)\n    tag_100:\n        /* \"--CODEGEN--\":2993:3097   */\n      swap1\n      pop\n        /* \"--CODEGEN--\":2897:3107   */\n      swap3\n      swap2\n      pop\n      pop\n      jump\n        /* \"--CODEGEN--\":3114:3327   */\n    tag_29:\n      0x00\n        /* \"--CODEGEN--\":3232:3234   */\n      0x20\n        /* \"--CODEGEN--\":3221:3230   */\n      dup3\n        /* \"--CODEGEN--\":3217:3235   */\n      add\n        /* \"--CODEGEN--\":3209:3235   */\n      swap1\n      pop\n        /* \"--CODEGEN--\":3246:3317   */\n      tag_101\n        /* \"--CODEGEN--\":3314:3315   */\n      0x00\n        /* \"--CODEGEN--\":3303:3312   */\n      dup4\n        /* \"--CODEGEN--\":3299:3316   */\n      add\n        /* \"--CODEGEN--\":3290:3296   */\n      dup5\n        /* \"--CODEGEN--\":3246:3317   */\n      jump(tag_97)\n    tag_101:\n        /* \"--CODEGEN--\":3203:3327   */\n      swap3\n      swap2\n      pop\n      pop\n      jump\n        /* \"--CODEGEN--\":3334:3452   */\n    tag_87:\n      0x00\n        /* \"--CODEGEN--\":3424:3429   */\n      dup2\n        /* \"--CODEGEN--\":3418:3430   */\n      mload\n        /* \"--CODEGEN--\":3408:3430   */\n      swap1\n      pop\n        /* \"--CODEGEN--\":3389:3452   */\n      swap2\n      swap1\n      pop\n      jump\n        /* \"--CODEGEN--\":3460:3613   */\n    tag_89:\n      0x00\n        /* \"--CODEGEN--\":3565:3571   */\n      dup3\n        /* \"--CODEGEN--\":3560:3563   */\n      dup3\n        /* \"--CODEGEN--\":3553:3572   */\n      mstore\n        /* \"--CODEGEN--\":3602:3606   */\n      0x20\n        /* \"--CODEGEN--\":3597:3600   */\n      dup3\n        /* \"--CODEGEN--\":3593:3607   */\n      add\n        /* \"--CODEGEN--\":3578:3607   */\n      swap1\n      pop\n        /* \"--CODEGEN--\":3546:3613   */\n      swap3\n      swap2\n      pop\n      pop\n      jump\n        /* \"--CODEGEN--\":3621:3706   */\n    tag_84:\n      0x00\n        /* \"--CODEGEN--\":3694:3699   */\n      dup2\n        /* \"--CODEGEN--\":3687:3700   */\n      iszero\n        /* \"--CODEGEN--\":3680:3701   */\n      iszero\n        /* \"--CODEGEN--\":3669:3701   */\n      swap1\n      pop\n        /* \"--CODEGEN--\":3663:3706   */\n      swap2\n      swap1\n      pop\n      jump\n        /* \"--CODEGEN--\":3713:3785   */\n    tag_99:\n      0x00\n        /* \"--CODEGEN--\":3775:3780   */\n      dup2\n        /* \"--CODEGEN--\":3764:3780   */\n      swap1\n      pop\n        /* \"--CODEGEN--\":3758:3785   */\n      swap2\n      swap1\n      pop\n      jump\n        /* \"--CODEGEN--\":3793:4061   */\n    tag_91:\n        /* \"--CODEGEN--\":3858:3859   */\n      0x00\n        /* \"--CODEGEN--\":3865:3966   */\n    tag_102:\n        /* \"--CODEGEN--\":3879:3885   */\n      dup4\n        /* \"--CODEGEN--\":3876:3877   */\n      dup2\n        /* \"--CODEGEN--\":3873:3886   */\n      lt\n        /* \"--CODEGEN--\":3865:3966   */\n      iszero\n      tag_104\n      jumpi\n        /* \"--CODEGEN--\":3955:3956   */\n      dup1\n        /* \"--CODEGEN--\":3950:3953   */\n      dup3\n        /* \"--CODEGEN--\":3946:3957   */\n      add\n        /* \"--CODEGEN--\":3940:3958   */\n      mload\n        /* \"--CODEGEN--\":3936:3937   */\n      dup2\n        /* \"--CODEGEN--\":3931:3934   */\n      dup5\n        /* \"--CODEGEN--\":3927:3938   */\n      add\n        /* \"--CODEGEN--\":3920:3959   */\n      mstore\n        /* \"--CODEGEN--\":3901:3903   */\n      0x20\n        /* \"--CODEGEN--\":3898:3899   */\n      dup2\n        /* \"--CODEGEN--\":3894:3904   */\n      add\n        /* \"--CODEGEN--\":3889:3904   */\n      swap1\n      pop\n        /* \"--CODEGEN--\":3865:3966   */\n      jump(tag_102)\n    tag_104:\n        /* \"--CODEGEN--\":3981:3987   */\n      dup4\n        /* \"--CODEGEN--\":3978:3979   */\n      dup2\n        /* \"--CODEGEN--\":3975:3988   */\n      gt\n        /* \"--CODEGEN--\":3972:3974   */\n      iszero\n      tag_105\n      jumpi\n        /* \"--CODEGEN--\":4046:4047   */\n      0x00\n        /* \"--CODEGEN--\":4037:4043   */\n      dup5\n        /* \"--CODEGEN--\":4032:4035   */\n      dup5\n        /* \"--CODEGEN--\":4028:4044   */\n      add\n        /* \"--CODEGEN--\":4021:4048   */\n      mstore\n        /* \"--CODEGEN--\":3972:3974   */\n    tag_105:\n        /* \"--CODEGEN--\":3842:4061   */\n      pop\n      pop\n      pop\n      pop\n      jump\n        /* \"--CODEGEN--\":4069:4166   */\n    tag_93:\n      0x00\n        /* \"--CODEGEN--\":4157:4159   */\n      0x1f\n        /* \"--CODEGEN--\":4153:4160   */\n      not\n        /* \"--CODEGEN--\":4148:4150   */\n      0x1f\n        /* \"--CODEGEN--\":4141:4146   */\n      dup4\n        /* \"--CODEGEN--\":4137:4151   */\n      add\n        /* \"--CODEGEN--\":4133:4161   */\n      and\n        /* \"--CODEGEN--\":4123:4161   */\n      swap1\n      pop\n        /* \"--CODEGEN--\":4117:4166   */\n      swap2\n      swap1\n      pop\n      jump\n        /* \"--CODEGEN--\":4174:4285   */\n    tag_66:\n        /* \"--CODEGEN--\":4240:4261   */\n      tag_106\n        /* \"--CODEGEN--\":4255:4260   */\n      dup2\n        /* \"--CODEGEN--\":4240:4261   */\n      jump(tag_84)\n    tag_106:\n        /* \"--CODEGEN--\":4233:4238   */\n      dup2\n        /* \"--CODEGEN--\":4230:4262   */\n      eq\n        /* \"--CODEGEN--\":4220:4222   */\n      tag_107\n      jumpi\n        /* \"--CODEGEN--\":4276:4277   */\n      0x00\n        /* \"--CODEGEN--\":4273:4274   */\n      dup1\n        /* \"--CODEGEN--\":4266:4278   */\n      revert\n        /* \"--CODEGEN--\":4220:4222   */\n    tag_107:\n        /* \"--CODEGEN--\":4214:4285   */\n      pop\n      jump\n        /* \"--CODEGEN--\":4292:4409   */\n    tag_73:\n        /* \"--CODEGEN--\":4361:4385   */\n      tag_108\n        /* \"--CODEGEN--\":4379:4384   */\n      dup2\n        /* \"--CODEGEN--\":4361:4385   */\n      jump(tag_99)\n    tag_108:\n        /* \"--CODEGEN--\":4354:4359   */\n      dup2\n        /* \"--CODEGEN--\":4351:4386   */\n      eq\n        /* \"--CODEGEN--\":4341:4343   */\n      tag_109\n      jumpi\n        /* \"--CODEGEN--\":4400:4401   */\n      0x00\n        /* \"--CODEGEN--\":4397:4398   */\n      dup1\n        /* \"--CODEGEN--\":4390:4402   */\n      revert\n        /* \"--CODEGEN--\":4341:4343   */\n    tag_109:\n        /* \"--CODEGEN--\":4335:4409   */\n      pop\n      jump\n\n    auxdata: 0xa365627a7a72315820a275a5d334878bb2089948c6c0d85e76c2b455d01de7c53a85d2931c7be9fedc6c6578706572696d656e74616cf564736f6c63430005110040\n}\n",
				"bytecode": {
					"linkReferences": {},
					"object": "608060405234801561001057600080fd5b50610867806100206000396000f3fe60806040526004361061004a5760003560e01c80631d65e77e1461004f578063387008c21461008c578063560f3192146100a857806367238562146100c4578063c17a340e146100e0575b600080fd5b34801561005b57600080fd5b506100766004803603610071919081019061064a565b61010b565b6040516100839190610743565b60405180910390f35b6100a660048036036100a19190810190610673565b61023f565b005b6100c260048036036100bd919081019061064a565b6102b5565b005b6100de60048036036100d99190810190610605565b610336565b005b3480156100ec57600080fd5b506100f561043f565b6040516101029190610765565b60405180910390f35b610113610488565b60008060003373ffffffffffffffffffffffffffffffffffffffff1673ffffffffffffffffffffffffffffffffffffffff168152602001908152602001600020838154811061015e57fe5b9060005260206000209060020201905080604051806040016040529081600082018054600181600116156101000203166002900480601f0160208091040260200160405190810160405280929190818152602001828054600181600116156101000203166002900480156102135780601f106101e857610100808354040283529160200191610213565b820191906000526020600020905b8154815290600101906020018083116101f657829003601f168201915b505050505081526020016001820160009054906101000a900460ff161515151581525050915050919050565b806000803373ffffffffffffffffffffffffffffffffffffffff1673ffffffffffffffffffffffffffffffffffffffff168152602001908152602001600020838154811061028957fe5b906000526020600020906002020160010160006101000a81548160ff0219169083151502179055505050565b6000803373ffffffffffffffffffffffffffffffffffffffff1673ffffffffffffffffffffffffffffffffffffffff16815260200190815260200160002081815481106102fe57fe5b90600052602060002090600202016000808201600061031d91906104a4565b6001820160006101000a81549060ff0219169055505050565b6000803373ffffffffffffffffffffffffffffffffffffffff1673ffffffffffffffffffffffffffffffffffffffff168152602001908152602001600020604051806040016040528084848080601f016020809104026020016040519081016040528093929190818152602001838380828437600081840152601f19601f820116905080830192505050505050508152602001600015158152509080600181540180825580915050906001820390600052602060002090600202016000909192909190915060008201518160000190805190602001906104179291906104ec565b5060208201518160010160006101000a81548160ff0219169083151502179055505050505050565b60008060003373ffffffffffffffffffffffffffffffffffffffff1673ffffffffffffffffffffffffffffffffffffffff16815260200190815260200160002080549050905090565b6040518060400160405280606081526020016000151581525090565b50805460018160011615610100020316600290046000825580601f106104ca57506104e9565b601f0160209004906000526020600020908101906104e8919061056c565b5b50565b828054600181600116156101000203166002900490600052602060002090601f016020900481019282601f1061052d57805160ff191683800117855561055b565b8280016001018555821561055b579182015b8281111561055a57825182559160200191906001019061053f565b5b509050610568919061056c565b5090565b61058e91905b8082111561058a576000816000905550600101610572565b5090565b90565b6000813590506105a0816107f6565b92915050565b60008083601f8401126105b857600080fd5b8235905067ffffffffffffffff8111156105d157600080fd5b6020830191508360018202830111156105e957600080fd5b9250929050565b6000813590506105ff8161080d565b92915050565b6000806020838503121561061857600080fd5b600083013567ffffffffffffffff81111561063257600080fd5b61063e858286016105a6565b92509250509250929050565b60006020828403121561065c57600080fd5b600061066a848285016105f0565b91505092915050565b6000806040838503121561068657600080fd5b6000610694858286016105f0565b92505060206106a585828601610591565b9150509250929050565b6106b88161079c565b82525050565b60006106c982610780565b6106d3818561078b565b93506106e38185602086016107b2565b6106ec816107e5565b840191505092915050565b6000604083016000830151848203600086015261071482826106be565b915050602083015161072960208601826106af565b508091505092915050565b61073d816107a8565b82525050565b6000602082019050818103600083015261075d81846106f7565b905092915050565b600060208201905061077a6000830184610734565b92915050565b600081519050919050565b600082825260208201905092915050565b60008115159050919050565b6000819050919050565b60005b838110156107d05780820151818401526020810190506107b5565b838111156107df576000848401525b50505050565b6000601f19601f8301169050919050565b6107ff8161079c565b811461080a57600080fd5b50565b610816816107a8565b811461082157600080fd5b5056fea365627a7a72315820a275a5d334878bb2089948c6c0d85e76c2b455d01de7c53a85d2931c7be9fedc6c6578706572696d656e74616cf564736f6c63430005110040",
					"opcodes": "PUSH1 0x80 PUSH1 0x40 MSTORE CALLVALUE DUP1 ISZERO PUSH2 0x10 JUMPI PUSH1 0x0 DUP1 REVERT JUMPDEST POP PUSH2 0x867 DUP1 PUSH2 0x20 PUSH1 0x0 CODECOPY PUSH1 0x0 RETURN INVALID PUSH1 0x80 PUSH1 0x40 MSTORE PUSH1 0x4 CALLDATASIZE LT PUSH2 0x4A JUMPI PUSH1 0x0 CALLDATALOAD PUSH1 0xE0 SHR DUP1 PUSH4 0x1D65E77E EQ PUSH2 0x4F JUMPI DUP1 PUSH4 0x387008C2 EQ PUSH2 0x8C JUMPI DUP1 PUSH4 0x560F3192 EQ PUSH2 0xA8 JUMPI DUP1 PUSH4 0x67238562 EQ PUSH2 0xC4 JUMPI DUP1 PUSH4 0xC17A340E EQ PUSH2 0xE0 JUMPI JUMPDEST PUSH1 0x0 DUP1 REVERT JUMPDEST CALLVALUE DUP1 ISZERO PUSH2 0x5B JUMPI PUSH1 0x0 DUP1 REVERT JUMPDEST POP PUSH2 0x76 PUSH1 0x4 DUP1 CALLDATASIZE SUB PUSH2 0x71 SWAP2 SWAP1 DUP2 ADD SWAP1 PUSH2 0x64A JUMP JUMPDEST PUSH2 0x10B JUMP JUMPDEST PUSH1 0x40 MLOAD PUSH2 0x83 SWAP2 SWAP1 PUSH2 0x743 JUMP JUMPDEST PUSH1 0x40 MLOAD DUP1 SWAP2 SUB SWAP1 RETURN JUMPDEST PUSH2 0xA6 PUSH1 0x4 DUP1 CALLDATASIZE SUB PUSH2 0xA1 SWAP2 SWAP1 DUP2 ADD SWAP1 PUSH2 0x673 JUMP JUMPDEST PUSH2 0x23F JUMP JUMPDEST STOP JUMPDEST PUSH2 0xC2 PUSH1 0x4 DUP1 CALLDATASIZE SUB PUSH2 0xBD SWAP2 SWAP1 DUP2 ADD SWAP1 PUSH2 0x64A JUMP JUMPDEST PUSH2 0x2B5 JUMP JUMPDEST STOP JUMPDEST PUSH2 0xDE PUSH1 0x4 DUP1 CALLDATASIZE SUB PUSH2 0xD9 SWAP2 SWAP1 DUP2 ADD SWAP1 PUSH2 0x605 JUMP JUMPDEST PUSH2 0x336 JUMP JUMPDEST STOP JUMPDEST CALLVALUE DUP1 ISZERO PUSH2 0xEC JUMPI PUSH1 0x0 DUP1 REVERT JUMPDEST POP PUSH2 0xF5 PUSH2 0x43F JUMP JUMPDEST PUSH1 0x40 MLOAD PUSH2 0x102 SWAP2 SWAP1 PUSH2 0x765 JUMP JUMPDEST PUSH1 0x40 MLOAD DUP1 SWAP2 SUB SWAP1 RETURN JUMPDEST PUSH2 0x113 PUSH2 0x488 JUMP JUMPDEST PUSH1 0x0 DUP1 PUSH1 0x0 CALLER PUSH20 0xFFFFFFFFFFFFFFFFFFFFFFFFFFFFFFFFFFFFFFFF AND PUSH20 0xFFFFFFFFFFFFFFFFFFFFFFFFFFFFFFFFFFFFFFFF AND DUP2 MSTORE PUSH1 0x20 ADD SWAP1 DUP2 MSTORE PUSH1 0x20 ADD PUSH1 0x0 KECCAK256 DUP4 DUP2 SLOAD DUP2 LT PUSH2 0x15E JUMPI INVALID JUMPDEST SWAP1 PUSH1 0x0 MSTORE PUSH1 0x20 PUSH1 0x0 KECCAK256 SWAP1 PUSH1 0x2 MUL ADD SWAP1 POP DUP1 PUSH1 0x40 MLOAD DUP1 PUSH1 0x40 ADD PUSH1 0x40 MSTORE SWAP1 DUP2 PUSH1 0x0 DUP3 ADD DUP1 SLOAD PUSH1 0x1 DUP2 PUSH1 0x1 AND ISZERO PUSH2 0x100 MUL SUB AND PUSH1 0x2 SWAP1 DIV DUP1 PUSH1 0x1F ADD PUSH1 0x20 DUP1 SWAP2 DIV MUL PUSH1 0x20 ADD PUSH1 0x40 MLOAD SWAP1 DUP2 ADD PUSH1 0x40 MSTORE DUP1 SWAP3 SWAP2 SWAP1 DUP2 DUP2 MSTORE PUSH1 0x20 ADD DUP3 DUP1 SLOAD PUSH1 0x1 DUP2 PUSH1 0x1 AND ISZERO PUSH2 0x100 MUL SUB AND PUSH1 0x2 SWAP1 DIV DUP1 ISZERO PUSH2 0x213 JUMPI DUP1 PUSH1 0x1F LT PUSH2 0x1E8 JUMPI PUSH2 0x100 DUP1 DUP4 SLOAD DIV MUL DUP4 MSTORE SWAP2 PUSH1 0x20 ADD SWAP2 PUSH2 0x213 JUMP JUMPDEST DUP3 ADD SWAP2 SWAP1 PUSH1 0x0 MSTORE PUSH1 0x20 PUSH1 0x0 KECCAK256 SWAP1 JUMPDEST DUP2 SLOAD DUP2 MSTORE SWAP1 PUSH1 0x1 ADD SWAP1 PUSH1 0x20 ADD DUP1 DUP4 GT PUSH2 0x1F6 JUMPI DUP3 SWAP1 SUB PUSH1 0x1F AND DUP3 ADD SWAP2 JUMPDEST POP POP POP POP POP DUP2 MSTORE PUSH1 0x20 ADD PUSH1 0x1 DUP3 ADD PUSH1 0x0 SWAP1 SLOAD SWAP1 PUSH2 0x100 EXP SWAP1 DIV PUSH1 0xFF AND ISZERO ISZERO ISZERO ISZERO DUP2 MSTORE POP POP SWAP2 POP POP SWAP2 SWAP1 POP JUMP JUMPDEST DUP1 PUSH1 0x0 DUP1 CALLER PUSH20 0xFFFFFFFFFFFFFFFFFFFFFFFFFFFFFFFFFFFFFFFF AND PUSH20 0xFFFFFFFFFFFFFFFFFFFFFFFFFFFFFFFFFFFFFFFF AND DUP2 MSTORE PUSH1 0x20 ADD SWAP1 DUP2 MSTORE PUSH1 0x20 ADD PUSH1 0x0 KECCAK256 DUP4 DUP2 SLOAD DUP2 LT PUSH2 0x289 JUMPI INVALID JUMPDEST SWAP1 PUSH1 0x0 MSTORE PUSH1 0x20 PUSH1 0x0 KECCAK256 SWAP1 PUSH1 0x2 MUL ADD PUSH1 0x1 ADD PUSH1 0x0 PUSH2 0x100 EXP DUP2 SLOAD DUP2 PUSH1 0xFF MUL NOT AND SWAP1 DUP4 ISZERO ISZERO MUL OR SWAP1 SSTORE POP POP POP JUMP JUMPDEST PUSH1 0x0 DUP1 CALLER PUSH20 0xFFFFFFFFFFFFFFFFFFFFFFFFFFFFFFFFFFFFFFFF AND PUSH20 0xFFFFFFFFFFFFFFFFFFFFFFFFFFFFFFFFFFFFFFFF AND DUP2 MSTORE PUSH1 0x20 ADD SWAP1 DUP2 MSTORE PUSH1 0x20 ADD PUSH1 0x0 KECCAK256 DUP2 DUP2 SLOAD DUP2 LT PUSH2 0x2FE JUMPI INVALID JUMPDEST SWAP1 PUSH1 0x0 MSTORE PUSH1 0x20 PUSH1 0x0 KECCAK256 SWAP1 PUSH1 0x2 MUL ADD PUSH1 0x0 DUP1 DUP3 ADD PUSH1 0x0 PUSH2 0x31D SWAP2 SWAP1 PUSH2 0x4A4 JUMP JUMPDEST PUSH1 0x1 DUP3 ADD PUSH1 0x0 PUSH2 0x100 EXP DUP2 SLOAD SWAP1 PUSH1 0xFF MUL NOT AND SWAP1 SSTORE POP POP POP JUMP JUMPDEST PUSH1 0x0 DUP1 CALLER PUSH20 0xFFFFFFFFFFFFFFFFFFFFFFFFFFFFFFFFFFFFFFFF AND PUSH20 0xFFFFFFFFFFFFFFFFFFFFFFFFFFFFFFFFFFFFFFFF AND DUP2 MSTORE PUSH1 0x20 ADD SWAP1 DUP2 MSTORE PUSH1 0x20 ADD PUSH1 0x0 KECCAK256 PUSH1 0x40 MLOAD DUP1 PUSH1 0x40 ADD PUSH1 0x40 MSTORE DUP1 DUP5 DUP5 DUP1 DUP1 PUSH1 0x1F ADD PUSH1 0x20 DUP1 SWAP2 DIV MUL PUSH1 0x20 ADD PUSH1 0x40 MLOAD SWAP1 DUP2 ADD PUSH1 0x40 MSTORE DUP1 SWAP4 SWAP3 SWAP2 SWAP1 DUP2 DUP2 MSTORE PUSH1 0x20 ADD DUP4 DUP4 DUP1 DUP3 DUP5 CALLDATACOPY PUSH1 0x0 DUP2 DUP5 ADD MSTORE PUSH1 0x1F NOT PUSH1 0x1F DUP3 ADD AND SWAP1 POP DUP1 DUP4 ADD SWAP3 POP POP POP POP POP POP POP DUP2 MSTORE PUSH1 0x20 ADD PUSH1 0x0 ISZERO ISZERO DUP2 MSTORE POP SWAP1 DUP1 PUSH1 0x1 DUP2 SLOAD ADD DUP1 DUP3 SSTORE DUP1 SWAP2 POP POP SWAP1 PUSH1 0x1 DUP3 SUB SWAP1 PUSH1 0x0 MSTORE PUSH1 0x20 PUSH1 0x0 KECCAK256 SWAP1 PUSH1 0x2 MUL ADD PUSH1 0x0 SWAP1 SWAP2 SWAP3 SWAP1 SWAP2 SWAP1 SWAP2 POP PUSH1 0x0 DUP3 ADD MLOAD DUP2 PUSH1 0x0 ADD SWAP1 DUP1 MLOAD SWAP1 PUSH1 0x20 ADD SWAP1 PUSH2 0x417 SWAP3 SWAP2 SWAP1 PUSH2 0x4EC JUMP JUMPDEST POP PUSH1 0x20 DUP3 ADD MLOAD DUP2 PUSH1 0x1 ADD PUSH1 0x0 PUSH2 0x100 EXP DUP2 SLOAD DUP2 PUSH1 0xFF MUL NOT AND SWAP1 DUP4 ISZERO ISZERO MUL OR SWAP1 SSTORE POP POP POP POP POP POP JUMP JUMPDEST PUSH1 0x0 DUP1 PUSH1 0x0 CALLER PUSH20 0xFFFFFFFFFFFFFFFFFFFFFFFFFFFFFFFFFFFFFFFF AND PUSH20 0xFFFFFFFFFFFFFFFFFFFFFFFFFFFFFFFFFFFFFFFF AND DUP2 MSTORE PUSH1 0x20 ADD SWAP1 DUP2 MSTORE PUSH1 0x20 ADD PUSH1 0x0 KECCAK256 DUP1 SLOAD SWAP1 POP SWAP1 POP SWAP1 JUMP JUMPDEST PUSH1 0x40 MLOAD DUP1 PUSH1 0x40 ADD PUSH1 0x40 MSTORE DUP1 PUSH1 0x60 DUP2 MSTORE PUSH1 0x20 ADD PUSH1 0x0 ISZERO ISZERO DUP2 MSTORE POP SWAP1 JUMP JUMPDEST POP DUP1 SLOAD PUSH1 0x1 DUP2 PUSH1 0x1 AND ISZERO PUSH2 0x100 MUL SUB AND PUSH1 0x2 SWAP1 DIV PUSH1 0x0 DUP3 SSTORE DUP1 PUSH1 0x1F LT PUSH2 0x4CA JUMPI POP PUSH2 0x4E9 JUMP JUMPDEST PUSH1 0x1F ADD PUSH1 0x20 SWAP1 DIV SWAP1 PUSH1 0x0 MSTORE PUSH1 0x20 PUSH1 0x0 KECCAK256 SWAP1 DUP2 ADD SWAP1 PUSH2 0x4E8 SWAP2 SWAP1 PUSH2 0x56C JUMP JUMPDEST JUMPDEST POP JUMP JUMPDEST DUP3 DUP1 SLOAD PUSH1 0x1 DUP2 PUSH1 0x1 AND ISZERO PUSH2 0x100 MUL SUB AND PUSH1 0x2 SWAP1 DIV SWAP1 PUSH1 0x0 MSTORE PUSH1 0x20 PUSH1 0x0 KECCAK256 SWAP1 PUSH1 0x1F ADD PUSH1 0x20 SWAP1 DIV DUP2 ADD SWAP3 DUP3 PUSH1 0x1F LT PUSH2 0x52D JUMPI DUP1 MLOAD PUSH1 0xFF NOT AND DUP4 DUP1 ADD OR DUP6 SSTORE PUSH2 0x55B JUMP JUMPDEST DUP3 DUP1 ADD PUSH1 0x1 ADD DUP6 SSTORE DUP3 ISZERO PUSH2 0x55B JUMPI SWAP2 DUP3 ADD JUMPDEST DUP3 DUP2 GT ISZERO PUSH2 0x55A JUMPI DUP3 MLOAD DUP3 SSTORE SWAP2 PUSH1 0x20 ADD SWAP2 SWAP1 PUSH1 0x1 ADD SWAP1 PUSH2 0x53F JUMP JUMPDEST JUMPDEST POP SWAP1 POP PUSH2 0x568 SWAP2 SWAP1 PUSH2 0x56C JUMP JUMPDEST POP SWAP1 JUMP JUMPDEST PUSH2 0x58E SWAP2 SWAP1 JUMPDEST DUP1 DUP3 GT ISZERO PUSH2 0x58A JUMPI PUSH1 0x0 DUP2 PUSH1 0x0 SWAP1 SSTORE POP PUSH1 0x1 ADD PUSH2 0x572 JUMP JUMPDEST POP SWAP1 JUMP JUMPDEST SWAP1 JUMP JUMPDEST PUSH1 0x0 DUP2 CALLDATALOAD SWAP1 POP PUSH2 0x5A0 DUP2 PUSH2 0x7F6 JUMP JUMPDEST SWAP3 SWAP2 POP POP JUMP JUMPDEST PUSH1 0x0 DUP1 DUP4 PUSH1 0x1F DUP5 ADD SLT PUSH2 0x5B8 JUMPI PUSH1 0x0 DUP1 REVERT JUMPDEST DUP3 CALLDATALOAD SWAP1 POP PUSH8 0xFFFFFFFFFFFFFFFF DUP2 GT ISZERO PUSH2 0x5D1 JUMPI PUSH1 0x0 DUP1 REVERT JUMPDEST PUSH1 0x20 DUP4 ADD SWAP2 POP DUP4 PUSH1 0x1 DUP3 MUL DUP4 ADD GT ISZERO PUSH2 0x5E9 JUMPI PUSH1 0x0 DUP1 REVERT JUMPDEST SWAP3 POP SWAP3 SWAP1 POP JUMP JUMPDEST PUSH1 0x0 DUP2 CALLDATALOAD SWAP1 POP PUSH2 0x5FF DUP2 PUSH2 0x80D JUMP JUMPDEST SWAP3 SWAP2 POP POP JUMP JUMPDEST PUSH1 0x0 DUP1 PUSH1 0x20 DUP4 DUP6 SUB SLT ISZERO PUSH2 0x618 JUMPI PUSH1 0x0 DUP1 REVERT JUMPDEST PUSH1 0x0 DUP4 ADD CALLDATALOAD PUSH8 0xFFFFFFFFFFFFFFFF DUP2 GT ISZERO PUSH2 0x632 JUMPI PUSH1 0x0 DUP1 REVERT JUMPDEST PUSH2 0x63E DUP6 DUP3 DUP7 ADD PUSH2 0x5A6 JUMP JUMPDEST SWAP3 POP SWAP3 POP POP SWAP3 POP SWAP3 SWAP1 POP JUMP JUMPDEST PUSH1 0x0 PUSH1 0x20 DUP3 DUP5 SUB SLT ISZERO PUSH2 0x65C JUMPI PUSH1 0x0 DUP1 REVERT JUMPDEST PUSH1 0x0 PUSH2 0x66A DUP5 DUP3 DUP6 ADD PUSH2 0x5F0 JUMP JUMPDEST SWAP2 POP POP SWAP3 SWAP2 POP POP JUMP JUMPDEST PUSH1 0x0 DUP1 PUSH1 0x40 DUP4 DUP6 SUB SLT ISZERO PUSH2 0x686 JUMPI PUSH1 0x0 DUP1 REVERT JUMPDEST PUSH1 0x0 PUSH2 0x694 DUP6 DUP3 DUP7 ADD PUSH2 0x5F0 JUMP JUMPDEST SWAP3 POP POP PUSH1 0x20 PUSH2 0x6A5 DUP6 DUP3 DUP7 ADD PUSH2 0x591 JUMP JUMPDEST SWAP2 POP POP SWAP3 POP SWAP3 SWAP1 POP JUMP JUMPDEST PUSH2 0x6B8 DUP2 PUSH2 0x79C JUMP JUMPDEST DUP3 MSTORE POP POP JUMP JUMPDEST PUSH1 0x0 PUSH2 0x6C9 DUP3 PUSH2 0x780 JUMP JUMPDEST PUSH2 0x6D3 DUP2 DUP6 PUSH2 0x78B JUMP JUMPDEST SWAP4 POP PUSH2 0x6E3 DUP2 DUP6 PUSH1 0x20 DUP7 ADD PUSH2 0x7B2 JUMP JUMPDEST PUSH2 0x6EC DUP2 PUSH2 0x7E5 JUMP JUMPDEST DUP5 ADD SWAP2 POP POP SWAP3 SWAP2 POP POP JUMP JUMPDEST PUSH1 0x0 PUSH1 0x40 DUP4 ADD PUSH1 0x0 DUP4 ADD MLOAD DUP5 DUP3 SUB PUSH1 0x0 DUP7 ADD MSTORE PUSH2 0x714 DUP3 DUP3 PUSH2 0x6BE JUMP JUMPDEST SWAP2 POP POP PUSH1 0x20 DUP4 ADD MLOAD PUSH2 0x729 PUSH1 0x20 DUP7 ADD DUP3 PUSH2 0x6AF JUMP JUMPDEST POP DUP1 SWAP2 POP POP SWAP3 SWAP2 POP POP JUMP JUMPDEST PUSH2 0x73D DUP2 PUSH2 0x7A8 JUMP JUMPDEST DUP3 MSTORE POP POP JUMP JUMPDEST PUSH1 0x0 PUSH1 0x20 DUP3 ADD SWAP1 POP DUP2 DUP2 SUB PUSH1 0x0 DUP4 ADD MSTORE PUSH2 0x75D DUP2 DUP5 PUSH2 0x6F7 JUMP JUMPDEST SWAP1 POP SWAP3 SWAP2 POP POP JUMP JUMPDEST PUSH1 0x0 PUSH1 0x20 DUP3 ADD SWAP1 POP PUSH2 0x77A PUSH1 0x0 DUP4 ADD DUP5 PUSH2 0x734 JUMP JUMPDEST SWAP3 SWAP2 POP POP JUMP JUMPDEST PUSH1 0x0 DUP2 MLOAD SWAP1 POP SWAP2 SWAP1 POP JUMP JUMPDEST PUSH1 0x0 DUP3 DUP3 MSTORE PUSH1 0x20 DUP3 ADD SWAP1 POP SWAP3 SWAP2 POP POP JUMP JUMPDEST PUSH1 0x0 DUP2 ISZERO ISZERO SWAP1 POP SWAP2 SWAP1 POP JUMP JUMPDEST PUSH1 0x0 DUP2 SWAP1 POP SWAP2 SWAP1 POP JUMP JUMPDEST PUSH1 0x0 JUMPDEST DUP4 DUP2 LT ISZERO PUSH2 0x7D0 JUMPI DUP1 DUP3 ADD MLOAD DUP2 DUP5 ADD MSTORE PUSH1 0x20 DUP2 ADD SWAP1 POP PUSH2 0x7B5 JUMP JUMPDEST DUP4 DUP2 GT ISZERO PUSH2 0x7DF JUMPI PUSH1 0x0 DUP5 DUP5 ADD MSTORE JUMPDEST POP POP POP POP JUMP JUMPDEST PUSH1 0x0 PUSH1 0x1F NOT PUSH1 0x1F DUP4 ADD AND SWAP1 POP SWAP2 SWAP1 POP JUMP JUMPDEST PUSH2 0x7FF DUP2 PUSH2 0x79C JUMP JUMPDEST DUP2 EQ PUSH2 0x80A JUMPI PUSH1 0x0 DUP1 REVERT JUMPDEST POP JUMP JUMPDEST PUSH2 0x816 DUP2 PUSH2 0x7A8 JUMP JUMPDEST DUP2 EQ PUSH2 0x821 JUMPI PUSH1 0x0 DUP1 REVERT JUMPDEST POP JUMP INVALID LOG3 PUSH6 0x627A7A723158 KECCAK256 LOG2 PUSH22 0xA5D334878BB2089948C6C0D85E76C2B455D01DE7C53A DUP6 0xD2 SWAP4 SHR PUSH28 0xE9FEDC6C6578706572696D656E74616CF564736F6C63430005110040 "
				},
				"gasEstimates": {
					"creation": {
						"codeDepositCost": "430200",
						"executionCost": "468",
						"totalCost": "430668"
					},
					"external": {
						"addTask(string)": "infinite",
						"deleteTask(uint256)": "infinite",
						"getTask(uint256)": "infinite",
						"getTaskCount()": "1300",
						"updateStatus(uint256,bool)": "22414"
					}
				},
				"methodIdentifiers": {
					"addTask(string)": "67238562",
					"deleteTask(uint256)": "560f3192",
					"getTask(uint256)": "1d65e77e",
					"getTaskCount()": "c17a340e",
					"updateStatus(uint256,bool)": "387008c2"
				}
			},
			"storageLayout": {
				"storage": [
					{
						"astId": 12,
						"contract": "bloc.sol:Bloc",
						"label": "Users",
						"offset": 0,
						"slot": "0",
						"type": "t_mapping(t_address,t_array(t_struct(Task)7_storage)dyn_storage)"
					}
				],
				"types": {
					"t_address": {
						"encoding": "inplace",
						"label": "address",
						"numberOfBytes": "20"
					},
					"t_array(t_struct(Task)7_storage)dyn_storage": {
						"base": "t_struct(Task)7_storage",
						"encoding": "dynamic_array",
						"label": "struct Bloc.Task[]",
						"numberOfBytes": "32"
					},
					"t_bool": {
						"encoding": "inplace",
						"label": "bool",
						"numberOfBytes": "1"
					},
					"t_mapping(t_address,t_array(t_struct(Task)7_storage)dyn_storage)": {
						"encoding": "mapping",
						"key": "t_address",
						"label": "mapping(address => struct Bloc.Task[])",
						"numberOfBytes": "32",
						"value": "t_array(t_struct(Task)7_storage)dyn_storage"
					},
					"t_string_storage": {
						"encoding": "bytes",
						"label": "string",
						"numberOfBytes": "32"
					},
					"t_struct(Task)7_storage": {
						"encoding": "inplace",
						"label": "struct Bloc.Task",
						"members": [
							{
								"astId": 4,
								"contract": "bloc.sol:Bloc",
								"label": "task",
								"offset": 0,
								"slot": "0",
								"type": "t_string_storage"
							},
							{
								"astId": 6,
								"contract": "bloc.sol:Bloc",
								"label": "isDone",
								"offset": 0,
								"slot": "1",
								"type": "t_bool"
							}
						],
						"numberOfBytes": "64"
					}
				}
			},
			"userdoc": {
				"methods": {}
			}
		}
	}
}