{
	"bloc.sol": {
		"Bloc": {
			"abi": [
				{
					"inputs": [
						{
							"internalType": "string",
							"name": "_name",
							"type": "string"
						}
					],
					"name": "addTask",
					"outputs": [],
					"stateMutability": "payable",
					"type": "function"
				},
				{
					"inputs": [
						{
							"internalType": "uint256",
							"name": "_taskIndex",
							"type": "uint256"
						}
					],
					"name": "deleteTask",
					"outputs": [],
					"stateMutability": "nonpayable",
					"type": "function"
				},
				{
					"inputs": [
						{
							"internalType": "uint256",
							"name": "_taskIndex",
							"type": "uint256"
						}
					],
					"name": "getTask",
					"outputs": [
						{
							"components": [
								{
									"internalType": "string",
									"name": "name",
									"type": "string"
								},
								{
									"internalType": "bool",
									"name": "isDone",
									"type": "bool"
								}
							],
							"internalType": "struct Bloc.Task",
							"name": "",
							"type": "tuple"
						}
					],
					"stateMutability": "view",
					"type": "function"
				},
				{
					"inputs": [],
					"name": "taskCount",
					"outputs": [
						{
							"internalType": "uint256",
							"name": "",
							"type": "uint256"
						}
					],
					"stateMutability": "view",
					"type": "function"
				},
				{
					"inputs": [
						{
							"internalType": "uint256",
							"name": "_taskIndex",
							"type": "uint256"
						},
						{
							"internalType": "bool",
							"name": "_status",
							"type": "bool"
						}
					],
					"name": "updateStatus",
					"outputs": [],
					"stateMutability": "nonpayable",
					"type": "function"
				}
			],
			"devdoc": {
				"kind": "dev",
				"methods": {},
				"version": 1
			},
			"evm": {
				"assembly": "    /* \"bloc.sol\":114:1921  contract Bloc {... */\n  mstore(0x40, 0x80)\n    /* \"bloc.sol\":459:460  0 */\n  0x00\n    /* \"bloc.sol\":432:460  uint256 public taskCount = 0 */\n  0x01\n  sstore\n    /* \"bloc.sol\":114:1921  contract Bloc {... */\n  callvalue\n  dup1\n  iszero\n  tag_1\n  jumpi\n  0x00\n  dup1\n  revert\ntag_1:\n  pop\n  dataSize(sub_0)\n  dup1\n  dataOffset(sub_0)\n  0x00\n  codecopy\n  0x00\n  return\nstop\n\nsub_0: assembly {\n        /* \"bloc.sol\":114:1921  contract Bloc {... */\n      mstore(0x40, 0x80)\n      jumpi(tag_1, lt(calldatasize, 0x04))\n      shr(0xe0, calldataload(0x00))\n      dup1\n      0x1d65e77e\n      eq\n      tag_2\n      jumpi\n      dup1\n      0x387008c2\n      eq\n      tag_3\n      jumpi\n      dup1\n      0x560f3192\n      eq\n      tag_4\n      jumpi\n      dup1\n      0x67238562\n      eq\n      tag_5\n      jumpi\n      dup1\n      0xb6cb58a5\n      eq\n      tag_6\n      jumpi\n    tag_1:\n      0x00\n      dup1\n      revert\n        /* \"bloc.sol\":1354:1514  function getTask(uint256 _taskIndex) external view returns (Task memory) {... */\n    tag_2:\n      callvalue\n      dup1\n      iszero\n      tag_7\n      jumpi\n      0x00\n      dup1\n      revert\n    tag_7:\n      pop\n      tag_8\n      0x04\n      dup1\n      calldatasize\n      sub\n      dup2\n      add\n      swap1\n      tag_9\n      swap2\n      swap1\n      tag_10\n      jump\t// in\n    tag_9:\n      tag_11\n      jump\t// in\n    tag_8:\n      mload(0x40)\n      tag_12\n      swap2\n      swap1\n      tag_13\n      jump\t// in\n    tag_12:\n      mload(0x40)\n      dup1\n      swap2\n      sub\n      swap1\n      return\n        /* \"bloc.sol\":1574:1767  function updateStatus(uint256 _taskIndex, bool _status) external {... */\n    tag_3:\n      callvalue\n      dup1\n      iszero\n      tag_14\n      jumpi\n      0x00\n      dup1\n      revert\n    tag_14:\n      pop\n      tag_15\n      0x04\n      dup1\n      calldatasize\n      sub\n      dup2\n      add\n      swap1\n      tag_16\n      swap2\n      swap1\n      tag_17\n      jump\t// in\n    tag_16:\n      tag_18\n      jump\t// in\n    tag_15:\n      stop\n        /* \"bloc.sol\":1817:1919  function deleteTask(uint256 _taskIndex) external {... */\n    tag_4:\n      callvalue\n      dup1\n      iszero\n      tag_19\n      jumpi\n      0x00\n      dup1\n      revert\n    tag_19:\n      pop\n      tag_20\n      0x04\n      dup1\n      calldatasize\n      sub\n      dup2\n      add\n      swap1\n      tag_21\n      swap2\n      swap1\n      tag_10\n      jump\t// in\n    tag_21:\n      tag_22\n      jump\t// in\n    tag_20:\n      stop\n        /* \"bloc.sol\":975:1296  function addTask(string memory _name) public payable {... */\n    tag_5:\n      tag_23\n      0x04\n      dup1\n      calldatasize\n      sub\n      dup2\n      add\n      swap1\n      tag_24\n      swap2\n      swap1\n      tag_25\n      jump\t// in\n    tag_24:\n      tag_26\n      jump\t// in\n    tag_23:\n      stop\n        /* \"bloc.sol\":432:460  uint256 public taskCount = 0 */\n    tag_6:\n      callvalue\n      dup1\n      iszero\n      tag_27\n      jumpi\n      0x00\n      dup1\n      revert\n    tag_27:\n      pop\n      tag_28\n      tag_29\n      jump\t// in\n    tag_28:\n      mload(0x40)\n      tag_30\n      swap2\n      swap1\n      tag_31\n      jump\t// in\n    tag_30:\n      mload(0x40)\n      dup1\n      swap2\n      sub\n      swap1\n      return\n        /* \"bloc.sol\":1354:1514  function getTask(uint256 _taskIndex) external view returns (Task memory) {... */\n    tag_11:\n        /* \"bloc.sol\":1414:1425  Task memory */\n      tag_32\n      tag_33\n      jump\t// in\n    tag_32:\n        /* \"bloc.sol\":1437:1454  Task storage task */\n      0x00\n        /* \"bloc.sol\":1457:1462  Tasks */\n      dup1\n        /* \"bloc.sol\":1457:1474  Tasks[msg.sender] */\n      0x00\n        /* \"bloc.sol\":1463:1473  msg.sender */\n      caller\n        /* \"bloc.sol\":1457:1474  Tasks[msg.sender] */\n      0xffffffffffffffffffffffffffffffffffffffff\n      and\n      0xffffffffffffffffffffffffffffffffffffffff\n      and\n      dup2\n      mstore\n      0x20\n      add\n      swap1\n      dup2\n      mstore\n      0x20\n      add\n      0x00\n      keccak256\n        /* \"bloc.sol\":1475:1485  _taskIndex */\n      dup4\n        /* \"bloc.sol\":1457:1486  Tasks[msg.sender][_taskIndex] */\n      dup2\n      sload\n      dup2\n      lt\n      tag_35\n      jumpi\n      tag_36\n      tag_37\n      jump\t// in\n    tag_36:\n    tag_35:\n      swap1\n      0x00\n      mstore\n      keccak256(0x00, 0x20)\n      swap1\n      0x02\n      mul\n      add\n        /* \"bloc.sol\":1437:1486  Task storage task = Tasks[msg.sender][_taskIndex] */\n      swap1\n      pop\n        /* \"bloc.sol\":1503:1507  task */\n      dup1\n        /* \"bloc.sol\":1496:1507  return task */\n      mload(0x40)\n      dup1\n      0x40\n      add\n      0x40\n      mstore\n      swap1\n      dup2\n      0x00\n      dup3\n      add\n      dup1\n      sload\n      tag_39\n      swap1\n      tag_40\n      jump\t// in\n    tag_39:\n      dup1\n      0x1f\n      add\n      0x20\n      dup1\n      swap2\n      div\n      mul\n      0x20\n      add\n      mload(0x40)\n      swap1\n      dup2\n      add\n      0x40\n      mstore\n      dup1\n      swap3\n      swap2\n      swap1\n      dup2\n      dup2\n      mstore\n      0x20\n      add\n      dup3\n      dup1\n      sload\n      tag_41\n      swap1\n      tag_40\n      jump\t// in\n    tag_41:\n      dup1\n      iszero\n      tag_42\n      jumpi\n      dup1\n      0x1f\n      lt\n      tag_43\n      jumpi\n      0x0100\n      dup1\n      dup4\n      sload\n      div\n      mul\n      dup4\n      mstore\n      swap2\n      0x20\n      add\n      swap2\n      jump(tag_42)\n    tag_43:\n      dup3\n      add\n      swap2\n      swap1\n      0x00\n      mstore\n      keccak256(0x00, 0x20)\n      swap1\n    tag_44:\n      dup2\n      sload\n      dup2\n      mstore\n      swap1\n      0x01\n      add\n      swap1\n      0x20\n      add\n      dup1\n      dup4\n      gt\n      tag_44\n      jumpi\n      dup3\n      swap1\n      sub\n      0x1f\n      and\n      dup3\n      add\n      swap2\n    tag_42:\n      pop\n      pop\n      pop\n      pop\n      pop\n      dup2\n      mstore\n      0x20\n      add\n      0x01\n      dup3\n      add\n      0x00\n      swap1\n      sload\n      swap1\n      0x0100\n      exp\n      swap1\n      div\n      0xff\n      and\n      iszero\n      iszero\n      iszero\n      iszero\n      dup2\n      mstore\n      pop\n      pop\n      swap2\n      pop\n      pop\n        /* \"bloc.sol\":1354:1514  function getTask(uint256 _taskIndex) external view returns (Task memory) {... */\n      swap2\n      swap1\n      pop\n      jump\t// out\n        /* \"bloc.sol\":1574:1767  function updateStatus(uint256 _taskIndex, bool _status) external {... */\n    tag_18:\n        /* \"bloc.sol\":1688:1695  _status */\n      dup1\n        /* \"bloc.sol\":1649:1654  Tasks */\n      0x00\n        /* \"bloc.sol\":1649:1666  Tasks[msg.sender] */\n      dup1\n        /* \"bloc.sol\":1655:1665  msg.sender */\n      caller\n        /* \"bloc.sol\":1649:1666  Tasks[msg.sender] */\n      0xffffffffffffffffffffffffffffffffffffffff\n      and\n      0xffffffffffffffffffffffffffffffffffffffff\n      and\n      dup2\n      mstore\n      0x20\n      add\n      swap1\n      dup2\n      mstore\n      0x20\n      add\n      0x00\n      keccak256\n        /* \"bloc.sol\":1667:1677  _taskIndex */\n      dup4\n        /* \"bloc.sol\":1649:1678  Tasks[msg.sender][_taskIndex] */\n      dup2\n      sload\n      dup2\n      lt\n      tag_46\n      jumpi\n      tag_47\n      tag_37\n      jump\t// in\n    tag_47:\n    tag_46:\n      swap1\n      0x00\n      mstore\n      keccak256(0x00, 0x20)\n      swap1\n      0x02\n      mul\n      add\n        /* \"bloc.sol\":1649:1685  Tasks[msg.sender][_taskIndex].isDone */\n      0x01\n      add\n      0x00\n        /* \"bloc.sol\":1649:1695  Tasks[msg.sender][_taskIndex].isDone = _status */\n      0x0100\n      exp\n      dup2\n      sload\n      dup2\n      0xff\n      mul\n      not\n      and\n      swap1\n      dup4\n      iszero\n      iszero\n      mul\n      or\n      swap1\n      sstore\n      pop\n        /* \"bloc.sol\":1574:1767  function updateStatus(uint256 _taskIndex, bool _status) external {... */\n      pop\n      pop\n      jump\t// out\n        /* \"bloc.sol\":1817:1919  function deleteTask(uint256 _taskIndex) external {... */\n    tag_22:\n        /* \"bloc.sol\":1883:1888  Tasks */\n      0x00\n        /* \"bloc.sol\":1883:1900  Tasks[msg.sender] */\n      dup1\n        /* \"bloc.sol\":1889:1899  msg.sender */\n      caller\n        /* \"bloc.sol\":1883:1900  Tasks[msg.sender] */\n      0xffffffffffffffffffffffffffffffffffffffff\n      and\n      0xffffffffffffffffffffffffffffffffffffffff\n      and\n      dup2\n      mstore\n      0x20\n      add\n      swap1\n      dup2\n      mstore\n      0x20\n      add\n      0x00\n      keccak256\n        /* \"bloc.sol\":1901:1911  _taskIndex */\n      dup2\n        /* \"bloc.sol\":1883:1912  Tasks[msg.sender][_taskIndex] */\n      dup2\n      sload\n      dup2\n      lt\n      tag_50\n      jumpi\n      tag_51\n      tag_37\n      jump\t// in\n    tag_51:\n    tag_50:\n      swap1\n      0x00\n      mstore\n      keccak256(0x00, 0x20)\n      swap1\n      0x02\n      mul\n      add\n      0x00\n        /* \"bloc.sol\":1876:1912  delete Tasks[msg.sender][_taskIndex] */\n      dup1\n      dup3\n      add\n      0x00\n      tag_53\n      swap2\n      swap1\n      tag_54\n      jump\t// in\n    tag_53:\n      0x01\n      dup3\n      add\n      exp(0x0100, 0x00)\n      dup2\n      sload\n      swap1\n      0xff\n      mul\n      not\n      and\n      swap1\n      sstore\n      pop\n      pop\n        /* \"bloc.sol\":1817:1919  function deleteTask(uint256 _taskIndex) external {... */\n      pop\n      jump\t// out\n        /* \"bloc.sol\":975:1296  function addTask(string memory _name) public payable {... */\n    tag_26:\n        /* \"bloc.sol\":1051:1052  1 */\n      0x01\n        /* \"bloc.sol\":1038:1047  taskCount */\n      dup1\n      0x00\n        /* \"bloc.sol\":1038:1052  taskCount += 1 */\n      dup3\n      dup3\n      sload\n      tag_56\n      swap2\n      swap1\n      tag_57\n      jump\t// in\n    tag_56:\n      swap3\n      pop\n      pop\n      dup2\n      swap1\n      sstore\n      pop\n        /* \"bloc.sol\":1062:1067  Tasks */\n      0x00\n        /* \"bloc.sol\":1062:1079  Tasks[msg.sender] */\n      dup1\n        /* \"bloc.sol\":1068:1078  msg.sender */\n      caller\n        /* \"bloc.sol\":1062:1079  Tasks[msg.sender] */\n      0xffffffffffffffffffffffffffffffffffffffff\n      and\n      0xffffffffffffffffffffffffffffffffffffffff\n      and\n      dup2\n      mstore\n      0x20\n      add\n      swap1\n      dup2\n      mstore\n      0x20\n      add\n      0x00\n      keccak256\n        /* \"bloc.sol\":1085:1119  Task({name: _name, isDone: false}) */\n      mload(0x40)\n      dup1\n      0x40\n      add\n      0x40\n      mstore\n      dup1\n        /* \"bloc.sol\":1097:1102  _name */\n      dup4\n        /* \"bloc.sol\":1085:1119  Task({name: _name, isDone: false}) */\n      dup2\n      mstore\n      0x20\n      add\n        /* \"bloc.sol\":1112:1117  false */\n      0x00\n        /* \"bloc.sol\":1085:1119  Task({name: _name, isDone: false}) */\n      iszero\n      iszero\n      dup2\n      mstore\n      pop\n        /* \"bloc.sol\":1062:1120  Tasks[msg.sender].push(Task({name: _name, isDone: false})) */\n      swap1\n      dup1\n      0x01\n      dup2\n      sload\n      add\n      dup1\n      dup3\n      sstore\n      dup1\n      swap2\n      pop\n      pop\n      0x01\n      swap1\n      sub\n      swap1\n      0x00\n      mstore\n      keccak256(0x00, 0x20)\n      swap1\n      0x02\n      mul\n      add\n      0x00\n      swap1\n      swap2\n      swap1\n      swap2\n      swap1\n      swap2\n      pop\n      0x00\n      dup3\n      add\n      mload\n      dup2\n      0x00\n      add\n      swap1\n      dup1\n      mload\n      swap1\n      0x20\n      add\n      swap1\n      tag_59\n      swap3\n      swap2\n      swap1\n      tag_60\n      jump\t// in\n    tag_59:\n      pop\n      0x20\n      dup3\n      add\n      mload\n      dup2\n      0x01\n      add\n      exp(0x0100, 0x00)\n      dup2\n      sload\n      dup2\n      0xff\n      mul\n      not\n      and\n      swap1\n      dup4\n      iszero\n      iszero\n      mul\n      or\n      swap1\n      sstore\n      pop\n      pop\n      pop\n        /* \"bloc.sol\":1159:1182  address payable _author */\n      0x00\n        /* \"bloc.sol\":1193:1203  msg.sender */\n      caller\n        /* \"bloc.sol\":1159:1204  address payable _author = payable(msg.sender) */\n      swap1\n      pop\n        /* \"bloc.sol\":1262:1269  _author */\n      dup1\n        /* \"bloc.sol\":1262:1278  _author.transfer */\n      0xffffffffffffffffffffffffffffffffffffffff\n      and\n        /* \"bloc.sol\":1262:1289  _author.transfer(msg.value) */\n      0x08fc\n        /* \"bloc.sol\":1279:1288  msg.value */\n      callvalue\n        /* \"bloc.sol\":1262:1289  _author.transfer(msg.value) */\n      swap1\n      dup2\n      iszero\n      mul\n      swap1\n      mload(0x40)\n      0x00\n      mload(0x40)\n      dup1\n      dup4\n      sub\n      dup2\n      dup6\n      dup9\n      dup9\n      call\n      swap4\n      pop\n      pop\n      pop\n      pop\n      iszero\n      dup1\n      iszero\n      tag_62\n      jumpi\n      returndatasize\n      0x00\n      dup1\n      returndatacopy\n      revert(0x00, returndatasize)\n    tag_62:\n      pop\n        /* \"bloc.sol\":1028:1296  {... */\n      pop\n        /* \"bloc.sol\":975:1296  function addTask(string memory _name) public payable {... */\n      pop\n      jump\t// out\n        /* \"bloc.sol\":432:460  uint256 public taskCount = 0 */\n    tag_29:\n      sload(0x01)\n      dup2\n      jump\t// out\n    tag_33:\n      mload(0x40)\n      dup1\n      0x40\n      add\n      0x40\n      mstore\n      dup1\n      0x60\n      dup2\n      mstore\n      0x20\n      add\n      iszero(iszero(0x00))\n      dup2\n      mstore\n      pop\n      swap1\n      jump\t// out\n    tag_54:\n      pop\n      dup1\n      sload\n      tag_63\n      swap1\n      tag_40\n      jump\t// in\n    tag_63:\n      0x00\n      dup3\n      sstore\n      dup1\n      0x1f\n      lt\n      tag_65\n      jumpi\n      pop\n      jump(tag_64)\n    tag_65:\n      0x1f\n      add\n      0x20\n      swap1\n      div\n      swap1\n      0x00\n      mstore\n      keccak256(0x00, 0x20)\n      swap1\n      dup2\n      add\n      swap1\n      tag_66\n      swap2\n      swap1\n      tag_67\n      jump\t// in\n    tag_66:\n    tag_64:\n      pop\n      jump\t// out\n    tag_60:\n      dup3\n      dup1\n      sload\n      tag_68\n      swap1\n      tag_40\n      jump\t// in\n    tag_68:\n      swap1\n      0x00\n      mstore\n      keccak256(0x00, 0x20)\n      swap1\n      0x1f\n      add\n      0x20\n      swap1\n      div\n      dup2\n      add\n      swap3\n      dup3\n      tag_70\n      jumpi\n      0x00\n      dup6\n      sstore\n      jump(tag_69)\n    tag_70:\n      dup3\n      0x1f\n      lt\n      tag_71\n      jumpi\n      dup1\n      mload\n      not(0xff)\n      and\n      dup4\n      dup1\n      add\n      or\n      dup6\n      sstore\n      jump(tag_69)\n    tag_71:\n      dup3\n      dup1\n      add\n      0x01\n      add\n      dup6\n      sstore\n      dup3\n      iszero\n      tag_69\n      jumpi\n      swap2\n      dup3\n      add\n    tag_72:\n      dup3\n      dup2\n      gt\n      iszero\n      tag_73\n      jumpi\n      dup3\n      mload\n      dup3\n      sstore\n      swap2\n      0x20\n      add\n      swap2\n      swap1\n      0x01\n      add\n      swap1\n      jump(tag_72)\n    tag_73:\n    tag_69:\n      pop\n      swap1\n      pop\n      tag_74\n      swap2\n      swap1\n      tag_67\n      jump\t// in\n    tag_74:\n      pop\n      swap1\n      jump\t// out\n    tag_67:\n    tag_75:\n      dup1\n      dup3\n      gt\n      iszero\n      tag_76\n      jumpi\n      0x00\n      dup2\n      0x00\n      swap1\n      sstore\n      pop\n      0x01\n      add\n      jump(tag_75)\n    tag_76:\n      pop\n      swap1\n      jump\t// out\n        /* \"#utility.yul\":7:419   */\n    tag_78:\n        /* \"#utility.yul\":85:90   */\n      0x00\n        /* \"#utility.yul\":110:176   */\n      tag_80\n        /* \"#utility.yul\":126:175   */\n      tag_81\n        /* \"#utility.yul\":168:174   */\n      dup5\n        /* \"#utility.yul\":126:175   */\n      tag_82\n      jump\t// in\n    tag_81:\n        /* \"#utility.yul\":110:176   */\n      tag_83\n      jump\t// in\n    tag_80:\n        /* \"#utility.yul\":101:176   */\n      swap1\n      pop\n        /* \"#utility.yul\":199:205   */\n      dup3\n        /* \"#utility.yul\":192:197   */\n      dup2\n        /* \"#utility.yul\":185:206   */\n      mstore\n        /* \"#utility.yul\":237:241   */\n      0x20\n        /* \"#utility.yul\":230:235   */\n      dup2\n        /* \"#utility.yul\":226:242   */\n      add\n        /* \"#utility.yul\":275:278   */\n      dup5\n        /* \"#utility.yul\":266:272   */\n      dup5\n        /* \"#utility.yul\":261:264   */\n      dup5\n        /* \"#utility.yul\":257:273   */\n      add\n        /* \"#utility.yul\":254:279   */\n      gt\n        /* \"#utility.yul\":251:363   */\n      iszero\n      tag_84\n      jumpi\n        /* \"#utility.yul\":282:361   */\n      tag_85\n      tag_86\n      jump\t// in\n    tag_85:\n        /* \"#utility.yul\":251:363   */\n    tag_84:\n        /* \"#utility.yul\":372:413   */\n      tag_87\n        /* \"#utility.yul\":406:412   */\n      dup5\n        /* \"#utility.yul\":401:404   */\n      dup3\n        /* \"#utility.yul\":396:399   */\n      dup6\n        /* \"#utility.yul\":372:413   */\n      tag_88\n      jump\t// in\n    tag_87:\n        /* \"#utility.yul\":91:419   */\n      pop\n        /* \"#utility.yul\":7:419   */\n      swap4\n      swap3\n      pop\n      pop\n      pop\n      jump\t// out\n        /* \"#utility.yul\":425:558   */\n    tag_89:\n        /* \"#utility.yul\":468:473   */\n      0x00\n        /* \"#utility.yul\":506:512   */\n      dup2\n        /* \"#utility.yul\":493:513   */\n      calldataload\n        /* \"#utility.yul\":484:513   */\n      swap1\n      pop\n        /* \"#utility.yul\":522:552   */\n      tag_91\n        /* \"#utility.yul\":546:551   */\n      dup2\n        /* \"#utility.yul\":522:552   */\n      tag_92\n      jump\t// in\n    tag_91:\n        /* \"#utility.yul\":425:558   */\n      swap3\n      swap2\n      pop\n      pop\n      jump\t// out\n        /* \"#utility.yul\":578:918   */\n    tag_93:\n        /* \"#utility.yul\":634:639   */\n      0x00\n        /* \"#utility.yul\":683:686   */\n      dup3\n        /* \"#utility.yul\":676:680   */\n      0x1f\n        /* \"#utility.yul\":668:674   */\n      dup4\n        /* \"#utility.yul\":664:681   */\n      add\n        /* \"#utility.yul\":660:687   */\n      slt\n        /* \"#utility.yul\":650:772   */\n      tag_95\n      jumpi\n        /* \"#utility.yul\":691:770   */\n      tag_96\n      tag_97\n      jump\t// in\n    tag_96:\n        /* \"#utility.yul\":650:772   */\n    tag_95:\n        /* \"#utility.yul\":808:814   */\n      dup2\n        /* \"#utility.yul\":795:815   */\n      calldataload\n        /* \"#utility.yul\":833:912   */\n      tag_98\n        /* \"#utility.yul\":908:911   */\n      dup5\n        /* \"#utility.yul\":900:906   */\n      dup3\n        /* \"#utility.yul\":893:897   */\n      0x20\n        /* \"#utility.yul\":885:891   */\n      dup7\n        /* \"#utility.yul\":881:898   */\n      add\n        /* \"#utility.yul\":833:912   */\n      tag_78\n      jump\t// in\n    tag_98:\n        /* \"#utility.yul\":824:912   */\n      swap2\n      pop\n        /* \"#utility.yul\":640:918   */\n      pop\n        /* \"#utility.yul\":578:918   */\n      swap3\n      swap2\n      pop\n      pop\n      jump\t// out\n        /* \"#utility.yul\":924:1063   */\n    tag_99:\n        /* \"#utility.yul\":970:975   */\n      0x00\n        /* \"#utility.yul\":1008:1014   */\n      dup2\n        /* \"#utility.yul\":995:1015   */\n      calldataload\n        /* \"#utility.yul\":986:1015   */\n      swap1\n      pop\n        /* \"#utility.yul\":1024:1057   */\n      tag_101\n        /* \"#utility.yul\":1051:1056   */\n      dup2\n        /* \"#utility.yul\":1024:1057   */\n      tag_102\n      jump\t// in\n    tag_101:\n        /* \"#utility.yul\":924:1063   */\n      swap3\n      swap2\n      pop\n      pop\n      jump\t// out\n        /* \"#utility.yul\":1069:1578   */\n    tag_25:\n        /* \"#utility.yul\":1138:1144   */\n      0x00\n        /* \"#utility.yul\":1187:1189   */\n      0x20\n        /* \"#utility.yul\":1175:1184   */\n      dup3\n        /* \"#utility.yul\":1166:1173   */\n      dup5\n        /* \"#utility.yul\":1162:1185   */\n      sub\n        /* \"#utility.yul\":1158:1190   */\n      slt\n        /* \"#utility.yul\":1155:1274   */\n      iszero\n      tag_104\n      jumpi\n        /* \"#utility.yul\":1193:1272   */\n      tag_105\n      tag_106\n      jump\t// in\n    tag_105:\n        /* \"#utility.yul\":1155:1274   */\n    tag_104:\n        /* \"#utility.yul\":1341:1342   */\n      0x00\n        /* \"#utility.yul\":1330:1339   */\n      dup3\n        /* \"#utility.yul\":1326:1343   */\n      add\n        /* \"#utility.yul\":1313:1344   */\n      calldataload\n        /* \"#utility.yul\":1371:1389   */\n      0xffffffffffffffff\n        /* \"#utility.yul\":1363:1369   */\n      dup2\n        /* \"#utility.yul\":1360:1390   */\n      gt\n        /* \"#utility.yul\":1357:1474   */\n      iszero\n      tag_107\n      jumpi\n        /* \"#utility.yul\":1393:1472   */\n      tag_108\n      tag_109\n      jump\t// in\n    tag_108:\n        /* \"#utility.yul\":1357:1474   */\n    tag_107:\n        /* \"#utility.yul\":1498:1561   */\n      tag_110\n        /* \"#utility.yul\":1553:1560   */\n      dup5\n        /* \"#utility.yul\":1544:1550   */\n      dup3\n        /* \"#utility.yul\":1533:1542   */\n      dup6\n        /* \"#utility.yul\":1529:1551   */\n      add\n        /* \"#utility.yul\":1498:1561   */\n      tag_93\n      jump\t// in\n    tag_110:\n        /* \"#utility.yul\":1488:1561   */\n      swap2\n      pop\n        /* \"#utility.yul\":1284:1571   */\n      pop\n        /* \"#utility.yul\":1069:1578   */\n      swap3\n      swap2\n      pop\n      pop\n      jump\t// out\n        /* \"#utility.yul\":1584:1913   */\n    tag_10:\n        /* \"#utility.yul\":1643:1649   */\n      0x00\n        /* \"#utility.yul\":1692:1694   */\n      0x20\n        /* \"#utility.yul\":1680:1689   */\n      dup3\n        /* \"#utility.yul\":1671:1678   */\n      dup5\n        /* \"#utility.yul\":1667:1690   */\n      sub\n        /* \"#utility.yul\":1663:1695   */\n      slt\n        /* \"#utility.yul\":1660:1779   */\n      iszero\n      tag_112\n      jumpi\n        /* \"#utility.yul\":1698:1777   */\n      tag_113\n      tag_106\n      jump\t// in\n    tag_113:\n        /* \"#utility.yul\":1660:1779   */\n    tag_112:\n        /* \"#utility.yul\":1818:1819   */\n      0x00\n        /* \"#utility.yul\":1843:1896   */\n      tag_114\n        /* \"#utility.yul\":1888:1895   */\n      dup5\n        /* \"#utility.yul\":1879:1885   */\n      dup3\n        /* \"#utility.yul\":1868:1877   */\n      dup6\n        /* \"#utility.yul\":1864:1886   */\n      add\n        /* \"#utility.yul\":1843:1896   */\n      tag_99\n      jump\t// in\n    tag_114:\n        /* \"#utility.yul\":1833:1896   */\n      swap2\n      pop\n        /* \"#utility.yul\":1789:1906   */\n      pop\n        /* \"#utility.yul\":1584:1913   */\n      swap3\n      swap2\n      pop\n      pop\n      jump\t// out\n        /* \"#utility.yul\":1919:2387   */\n    tag_17:\n        /* \"#utility.yul\":1984:1990   */\n      0x00\n        /* \"#utility.yul\":1992:1998   */\n      dup1\n        /* \"#utility.yul\":2041:2043   */\n      0x40\n        /* \"#utility.yul\":2029:2038   */\n      dup4\n        /* \"#utility.yul\":2020:2027   */\n      dup6\n        /* \"#utility.yul\":2016:2039   */\n      sub\n        /* \"#utility.yul\":2012:2044   */\n      slt\n        /* \"#utility.yul\":2009:2128   */\n      iszero\n      tag_116\n      jumpi\n        /* \"#utility.yul\":2047:2126   */\n      tag_117\n      tag_106\n      jump\t// in\n    tag_117:\n        /* \"#utility.yul\":2009:2128   */\n    tag_116:\n        /* \"#utility.yul\":2167:2168   */\n      0x00\n        /* \"#utility.yul\":2192:2245   */\n      tag_118\n        /* \"#utility.yul\":2237:2244   */\n      dup6\n        /* \"#utility.yul\":2228:2234   */\n      dup3\n        /* \"#utility.yul\":2217:2226   */\n      dup7\n        /* \"#utility.yul\":2213:2235   */\n      add\n        /* \"#utility.yul\":2192:2245   */\n      tag_99\n      jump\t// in\n    tag_118:\n        /* \"#utility.yul\":2182:2245   */\n      swap3\n      pop\n        /* \"#utility.yul\":2138:2255   */\n      pop\n        /* \"#utility.yul\":2294:2296   */\n      0x20\n        /* \"#utility.yul\":2320:2370   */\n      tag_119\n        /* \"#utility.yul\":2362:2369   */\n      dup6\n        /* \"#utility.yul\":2353:2359   */\n      dup3\n        /* \"#utility.yul\":2342:2351   */\n      dup7\n        /* \"#utility.yul\":2338:2360   */\n      add\n        /* \"#utility.yul\":2320:2370   */\n      tag_89\n      jump\t// in\n    tag_119:\n        /* \"#utility.yul\":2310:2370   */\n      swap2\n      pop\n        /* \"#utility.yul\":2265:2380   */\n      pop\n        /* \"#utility.yul\":1919:2387   */\n      swap3\n      pop\n      swap3\n      swap1\n      pop\n      jump\t// out\n        /* \"#utility.yul\":2393:2492   */\n    tag_120:\n        /* \"#utility.yul\":2464:2485   */\n      tag_122\n        /* \"#utility.yul\":2479:2484   */\n      dup2\n        /* \"#utility.yul\":2464:2485   */\n      tag_123\n      jump\t// in\n    tag_122:\n        /* \"#utility.yul\":2459:2462   */\n      dup3\n        /* \"#utility.yul\":2452:2486   */\n      mstore\n        /* \"#utility.yul\":2393:2492   */\n      pop\n      pop\n      jump\t// out\n        /* \"#utility.yul\":2498:2842   */\n    tag_124:\n        /* \"#utility.yul\":2576:2579   */\n      0x00\n        /* \"#utility.yul\":2604:2643   */\n      tag_126\n        /* \"#utility.yul\":2637:2642   */\n      dup3\n        /* \"#utility.yul\":2604:2643   */\n      tag_127\n      jump\t// in\n    tag_126:\n        /* \"#utility.yul\":2659:2720   */\n      tag_128\n        /* \"#utility.yul\":2713:2719   */\n      dup2\n        /* \"#utility.yul\":2708:2711   */\n      dup6\n        /* \"#utility.yul\":2659:2720   */\n      tag_129\n      jump\t// in\n    tag_128:\n        /* \"#utility.yul\":2652:2720   */\n      swap4\n      pop\n        /* \"#utility.yul\":2729:2781   */\n      tag_130\n        /* \"#utility.yul\":2774:2780   */\n      dup2\n        /* \"#utility.yul\":2769:2772   */\n      dup6\n        /* \"#utility.yul\":2762:2766   */\n      0x20\n        /* \"#utility.yul\":2755:2760   */\n      dup7\n        /* \"#utility.yul\":2751:2767   */\n      add\n        /* \"#utility.yul\":2729:2781   */\n      tag_131\n      jump\t// in\n    tag_130:\n        /* \"#utility.yul\":2806:2835   */\n      tag_132\n        /* \"#utility.yul\":2828:2834   */\n      dup2\n        /* \"#utility.yul\":2806:2835   */\n      tag_133\n      jump\t// in\n    tag_132:\n        /* \"#utility.yul\":2801:2804   */\n      dup5\n        /* \"#utility.yul\":2797:2836   */\n      add\n        /* \"#utility.yul\":2790:2836   */\n      swap2\n      pop\n        /* \"#utility.yul\":2580:2842   */\n      pop\n        /* \"#utility.yul\":2498:2842   */\n      swap3\n      swap2\n      pop\n      pop\n      jump\t// out\n        /* \"#utility.yul\":2892:3482   */\n    tag_134:\n        /* \"#utility.yul\":2999:3002   */\n      0x00\n        /* \"#utility.yul\":3035:3039   */\n      0x40\n        /* \"#utility.yul\":3030:3033   */\n      dup4\n        /* \"#utility.yul\":3026:3040   */\n      add\n        /* \"#utility.yul\":3122:3126   */\n      0x00\n        /* \"#utility.yul\":3115:3120   */\n      dup4\n        /* \"#utility.yul\":3111:3127   */\n      add\n        /* \"#utility.yul\":3105:3128   */\n      mload\n        /* \"#utility.yul\":3175:3178   */\n      dup5\n        /* \"#utility.yul\":3169:3173   */\n      dup3\n        /* \"#utility.yul\":3165:3179   */\n      sub\n        /* \"#utility.yul\":3158:3162   */\n      0x00\n        /* \"#utility.yul\":3153:3156   */\n      dup7\n        /* \"#utility.yul\":3149:3163   */\n      add\n        /* \"#utility.yul\":3142:3180   */\n      mstore\n        /* \"#utility.yul\":3201:3274   */\n      tag_136\n        /* \"#utility.yul\":3269:3273   */\n      dup3\n        /* \"#utility.yul\":3255:3267   */\n      dup3\n        /* \"#utility.yul\":3201:3274   */\n      tag_124\n      jump\t// in\n    tag_136:\n        /* \"#utility.yul\":3193:3274   */\n      swap2\n      pop\n        /* \"#utility.yul\":3050:3285   */\n      pop\n        /* \"#utility.yul\":3369:3373   */\n      0x20\n        /* \"#utility.yul\":3362:3367   */\n      dup4\n        /* \"#utility.yul\":3358:3374   */\n      add\n        /* \"#utility.yul\":3352:3375   */\n      mload\n        /* \"#utility.yul\":3388:3445   */\n      tag_137\n        /* \"#utility.yul\":3439:3443   */\n      0x20\n        /* \"#utility.yul\":3434:3437   */\n      dup7\n        /* \"#utility.yul\":3430:3444   */\n      add\n        /* \"#utility.yul\":3416:3428   */\n      dup3\n        /* \"#utility.yul\":3388:3445   */\n      tag_120\n      jump\t// in\n    tag_137:\n        /* \"#utility.yul\":3295:3455   */\n      pop\n        /* \"#utility.yul\":3472:3476   */\n      dup1\n        /* \"#utility.yul\":3465:3476   */\n      swap2\n      pop\n        /* \"#utility.yul\":3004:3482   */\n      pop\n        /* \"#utility.yul\":2892:3482   */\n      swap3\n      swap2\n      pop\n      pop\n      jump\t// out\n        /* \"#utility.yul\":3488:3606   */\n    tag_138:\n        /* \"#utility.yul\":3575:3599   */\n      tag_140\n        /* \"#utility.yul\":3593:3598   */\n      dup2\n        /* \"#utility.yul\":3575:3599   */\n      tag_141\n      jump\t// in\n    tag_140:\n        /* \"#utility.yul\":3570:3573   */\n      dup3\n        /* \"#utility.yul\":3563:3600   */\n      mstore\n        /* \"#utility.yul\":3488:3606   */\n      pop\n      pop\n      jump\t// out\n        /* \"#utility.yul\":3612:3961   */\n    tag_13:\n        /* \"#utility.yul\":3743:3747   */\n      0x00\n        /* \"#utility.yul\":3781:3783   */\n      0x20\n        /* \"#utility.yul\":3770:3779   */\n      dup3\n        /* \"#utility.yul\":3766:3784   */\n      add\n        /* \"#utility.yul\":3758:3784   */\n      swap1\n      pop\n        /* \"#utility.yul\":3830:3839   */\n      dup2\n        /* \"#utility.yul\":3824:3828   */\n      dup2\n        /* \"#utility.yul\":3820:3840   */\n      sub\n        /* \"#utility.yul\":3816:3817   */\n      0x00\n        /* \"#utility.yul\":3805:3814   */\n      dup4\n        /* \"#utility.yul\":3801:3818   */\n      add\n        /* \"#utility.yul\":3794:3841   */\n      mstore\n        /* \"#utility.yul\":3858:3954   */\n      tag_143\n        /* \"#utility.yul\":3949:3953   */\n      dup2\n        /* \"#utility.yul\":3940:3946   */\n      dup5\n        /* \"#utility.yul\":3858:3954   */\n      tag_134\n      jump\t// in\n    tag_143:\n        /* \"#utility.yul\":3850:3954   */\n      swap1\n      pop\n        /* \"#utility.yul\":3612:3961   */\n      swap3\n      swap2\n      pop\n      pop\n      jump\t// out\n        /* \"#utility.yul\":3967:4189   */\n    tag_31:\n        /* \"#utility.yul\":4060:4064   */\n      0x00\n        /* \"#utility.yul\":4098:4100   */\n      0x20\n        /* \"#utility.yul\":4087:4096   */\n      dup3\n        /* \"#utility.yul\":4083:4101   */\n      add\n        /* \"#utility.yul\":4075:4101   */\n      swap1\n      pop\n        /* \"#utility.yul\":4111:4182   */\n      tag_145\n        /* \"#utility.yul\":4179:4180   */\n      0x00\n        /* \"#utility.yul\":4168:4177   */\n      dup4\n        /* \"#utility.yul\":4164:4181   */\n      add\n        /* \"#utility.yul\":4155:4161   */\n      dup5\n        /* \"#utility.yul\":4111:4182   */\n      tag_138\n      jump\t// in\n    tag_145:\n        /* \"#utility.yul\":3967:4189   */\n      swap3\n      swap2\n      pop\n      pop\n      jump\t// out\n        /* \"#utility.yul\":4195:4324   */\n    tag_83:\n        /* \"#utility.yul\":4229:4235   */\n      0x00\n        /* \"#utility.yul\":4256:4276   */\n      tag_147\n      tag_148\n      jump\t// in\n    tag_147:\n        /* \"#utility.yul\":4246:4276   */\n      swap1\n      pop\n        /* \"#utility.yul\":4285:4318   */\n      tag_149\n        /* \"#utility.yul\":4313:4317   */\n      dup3\n        /* \"#utility.yul\":4305:4311   */\n      dup3\n        /* \"#utility.yul\":4285:4318   */\n      tag_150\n      jump\t// in\n    tag_149:\n        /* \"#utility.yul\":4195:4324   */\n      swap2\n      swap1\n      pop\n      jump\t// out\n        /* \"#utility.yul\":4330:4405   */\n    tag_148:\n        /* \"#utility.yul\":4363:4369   */\n      0x00\n        /* \"#utility.yul\":4396:4398   */\n      0x40\n        /* \"#utility.yul\":4390:4399   */\n      mload\n        /* \"#utility.yul\":4380:4399   */\n      swap1\n      pop\n        /* \"#utility.yul\":4330:4405   */\n      swap1\n      jump\t// out\n        /* \"#utility.yul\":4411:4719   */\n    tag_82:\n        /* \"#utility.yul\":4473:4477   */\n      0x00\n        /* \"#utility.yul\":4563:4581   */\n      0xffffffffffffffff\n        /* \"#utility.yul\":4555:4561   */\n      dup3\n        /* \"#utility.yul\":4552:4582   */\n      gt\n        /* \"#utility.yul\":4549:4605   */\n      iszero\n      tag_153\n      jumpi\n        /* \"#utility.yul\":4585:4603   */\n      tag_154\n      tag_155\n      jump\t// in\n    tag_154:\n        /* \"#utility.yul\":4549:4605   */\n    tag_153:\n        /* \"#utility.yul\":4623:4652   */\n      tag_156\n        /* \"#utility.yul\":4645:4651   */\n      dup3\n        /* \"#utility.yul\":4623:4652   */\n      tag_133\n      jump\t// in\n    tag_156:\n        /* \"#utility.yul\":4615:4652   */\n      swap1\n      pop\n        /* \"#utility.yul\":4707:4711   */\n      0x20\n        /* \"#utility.yul\":4701:4705   */\n      dup2\n        /* \"#utility.yul\":4697:4712   */\n      add\n        /* \"#utility.yul\":4689:4712   */\n      swap1\n      pop\n        /* \"#utility.yul\":4411:4719   */\n      swap2\n      swap1\n      pop\n      jump\t// out\n        /* \"#utility.yul\":4725:4824   */\n    tag_127:\n        /* \"#utility.yul\":4777:4783   */\n      0x00\n        /* \"#utility.yul\":4811:4816   */\n      dup2\n        /* \"#utility.yul\":4805:4817   */\n      mload\n        /* \"#utility.yul\":4795:4817   */\n      swap1\n      pop\n        /* \"#utility.yul\":4725:4824   */\n      swap2\n      swap1\n      pop\n      jump\t// out\n        /* \"#utility.yul\":4830:4989   */\n    tag_129:\n        /* \"#utility.yul\":4904:4915   */\n      0x00\n        /* \"#utility.yul\":4938:4944   */\n      dup3\n        /* \"#utility.yul\":4933:4936   */\n      dup3\n        /* \"#utility.yul\":4926:4945   */\n      mstore\n        /* \"#utility.yul\":4978:4982   */\n      0x20\n        /* \"#utility.yul\":4973:4976   */\n      dup3\n        /* \"#utility.yul\":4969:4983   */\n      add\n        /* \"#utility.yul\":4954:4983   */\n      swap1\n      pop\n        /* \"#utility.yul\":4830:4989   */\n      swap3\n      swap2\n      pop\n      pop\n      jump\t// out\n        /* \"#utility.yul\":4995:5300   */\n    tag_57:\n        /* \"#utility.yul\":5035:5038   */\n      0x00\n        /* \"#utility.yul\":5054:5074   */\n      tag_160\n        /* \"#utility.yul\":5072:5073   */\n      dup3\n        /* \"#utility.yul\":5054:5074   */\n      tag_141\n      jump\t// in\n    tag_160:\n        /* \"#utility.yul\":5049:5074   */\n      swap2\n      pop\n        /* \"#utility.yul\":5088:5108   */\n      tag_161\n        /* \"#utility.yul\":5106:5107   */\n      dup4\n        /* \"#utility.yul\":5088:5108   */\n      tag_141\n      jump\t// in\n    tag_161:\n        /* \"#utility.yul\":5083:5108   */\n      swap3\n      pop\n        /* \"#utility.yul\":5242:5243   */\n      dup3\n        /* \"#utility.yul\":5174:5240   */\n      0xffffffffffffffffffffffffffffffffffffffffffffffffffffffffffffffff\n        /* \"#utility.yul\":5170:5244   */\n      sub\n        /* \"#utility.yul\":5167:5168   */\n      dup3\n        /* \"#utility.yul\":5164:5245   */\n      gt\n        /* \"#utility.yul\":5161:5268   */\n      iszero\n      tag_162\n      jumpi\n        /* \"#utility.yul\":5248:5266   */\n      tag_163\n      tag_164\n      jump\t// in\n    tag_163:\n        /* \"#utility.yul\":5161:5268   */\n    tag_162:\n        /* \"#utility.yul\":5292:5293   */\n      dup3\n        /* \"#utility.yul\":5289:5290   */\n      dup3\n        /* \"#utility.yul\":5285:5294   */\n      add\n        /* \"#utility.yul\":5278:5294   */\n      swap1\n      pop\n        /* \"#utility.yul\":4995:5300   */\n      swap3\n      swap2\n      pop\n      pop\n      jump\t// out\n        /* \"#utility.yul\":5306:5396   */\n    tag_123:\n        /* \"#utility.yul\":5340:5347   */\n      0x00\n        /* \"#utility.yul\":5383:5388   */\n      dup2\n        /* \"#utility.yul\":5376:5389   */\n      iszero\n        /* \"#utility.yul\":5369:5390   */\n      iszero\n        /* \"#utility.yul\":5358:5390   */\n      swap1\n      pop\n        /* \"#utility.yul\":5306:5396   */\n      swap2\n      swap1\n      pop\n      jump\t// out\n        /* \"#utility.yul\":5402:5479   */\n    tag_141:\n        /* \"#utility.yul\":5439:5446   */\n      0x00\n        /* \"#utility.yul\":5468:5473   */\n      dup2\n        /* \"#utility.yul\":5457:5473   */\n      swap1\n      pop\n        /* \"#utility.yul\":5402:5479   */\n      swap2\n      swap1\n      pop\n      jump\t// out\n        /* \"#utility.yul\":5485:5639   */\n    tag_88:\n        /* \"#utility.yul\":5569:5575   */\n      dup3\n        /* \"#utility.yul\":5564:5567   */\n      dup2\n        /* \"#utility.yul\":5559:5562   */\n      dup4\n        /* \"#utility.yul\":5546:5576   */\n      calldatacopy\n        /* \"#utility.yul\":5631:5632   */\n      0x00\n        /* \"#utility.yul\":5622:5628   */\n      dup4\n        /* \"#utility.yul\":5617:5620   */\n      dup4\n        /* \"#utility.yul\":5613:5629   */\n      add\n        /* \"#utility.yul\":5606:5633   */\n      mstore\n        /* \"#utility.yul\":5485:5639   */\n      pop\n      pop\n      pop\n      jump\t// out\n        /* \"#utility.yul\":5645:5952   */\n    tag_131:\n        /* \"#utility.yul\":5713:5714   */\n      0x00\n        /* \"#utility.yul\":5723:5836   */\n    tag_169:\n        /* \"#utility.yul\":5737:5743   */\n      dup4\n        /* \"#utility.yul\":5734:5735   */\n      dup2\n        /* \"#utility.yul\":5731:5744   */\n      lt\n        /* \"#utility.yul\":5723:5836   */\n      iszero\n      tag_171\n      jumpi\n        /* \"#utility.yul\":5822:5823   */\n      dup1\n        /* \"#utility.yul\":5817:5820   */\n      dup3\n        /* \"#utility.yul\":5813:5824   */\n      add\n        /* \"#utility.yul\":5807:5825   */\n      mload\n        /* \"#utility.yul\":5803:5804   */\n      dup2\n        /* \"#utility.yul\":5798:5801   */\n      dup5\n        /* \"#utility.yul\":5794:5805   */\n      add\n        /* \"#utility.yul\":5787:5826   */\n      mstore\n        /* \"#utility.yul\":5759:5761   */\n      0x20\n        /* \"#utility.yul\":5756:5757   */\n      dup2\n        /* \"#utility.yul\":5752:5762   */\n      add\n        /* \"#utility.yul\":5747:5762   */\n      swap1\n      pop\n        /* \"#utility.yul\":5723:5836   */\n      jump(tag_169)\n    tag_171:\n        /* \"#utility.yul\":5854:5860   */\n      dup4\n        /* \"#utility.yul\":5851:5852   */\n      dup2\n        /* \"#utility.yul\":5848:5861   */\n      gt\n        /* \"#utility.yul\":5845:5946   */\n      iszero\n      tag_172\n      jumpi\n        /* \"#utility.yul\":5934:5935   */\n      0x00\n        /* \"#utility.yul\":5925:5931   */\n      dup5\n        /* \"#utility.yul\":5920:5923   */\n      dup5\n        /* \"#utility.yul\":5916:5932   */\n      add\n        /* \"#utility.yul\":5909:5936   */\n      mstore\n        /* \"#utility.yul\":5845:5946   */\n    tag_172:\n        /* \"#utility.yul\":5694:5952   */\n      pop\n        /* \"#utility.yul\":5645:5952   */\n      pop\n      pop\n      pop\n      jump\t// out\n        /* \"#utility.yul\":5958:6278   */\n    tag_40:\n        /* \"#utility.yul\":6002:6008   */\n      0x00\n        /* \"#utility.yul\":6039:6040   */\n      0x02\n        /* \"#utility.yul\":6033:6037   */\n      dup3\n        /* \"#utility.yul\":6029:6041   */\n      div\n        /* \"#utility.yul\":6019:6041   */\n      swap1\n      pop\n        /* \"#utility.yul\":6086:6087   */\n      0x01\n        /* \"#utility.yul\":6080:6084   */\n      dup3\n        /* \"#utility.yul\":6076:6088   */\n      and\n        /* \"#utility.yul\":6107:6125   */\n      dup1\n        /* \"#utility.yul\":6097:6178   */\n      tag_174\n      jumpi\n        /* \"#utility.yul\":6163:6167   */\n      0x7f\n        /* \"#utility.yul\":6155:6161   */\n      dup3\n        /* \"#utility.yul\":6151:6168   */\n      and\n        /* \"#utility.yul\":6141:6168   */\n      swap2\n      pop\n        /* \"#utility.yul\":6097:6178   */\n    tag_174:\n        /* \"#utility.yul\":6225:6227   */\n      0x20\n        /* \"#utility.yul\":6217:6223   */\n      dup3\n        /* \"#utility.yul\":6214:6228   */\n      lt\n        /* \"#utility.yul\":6194:6212   */\n      dup2\n        /* \"#utility.yul\":6191:6229   */\n      eq\n        /* \"#utility.yul\":6188:6272   */\n      iszero\n      tag_175\n      jumpi\n        /* \"#utility.yul\":6244:6262   */\n      tag_176\n      tag_177\n      jump\t// in\n    tag_176:\n        /* \"#utility.yul\":6188:6272   */\n    tag_175:\n        /* \"#utility.yul\":6009:6278   */\n      pop\n        /* \"#utility.yul\":5958:6278   */\n      swap2\n      swap1\n      pop\n      jump\t// out\n        /* \"#utility.yul\":6284:6565   */\n    tag_150:\n        /* \"#utility.yul\":6367:6394   */\n      tag_179\n        /* \"#utility.yul\":6389:6393   */\n      dup3\n        /* \"#utility.yul\":6367:6394   */\n      tag_133\n      jump\t// in\n    tag_179:\n        /* \"#utility.yul\":6359:6365   */\n      dup2\n        /* \"#utility.yul\":6355:6395   */\n      add\n        /* \"#utility.yul\":6497:6503   */\n      dup2\n        /* \"#utility.yul\":6485:6495   */\n      dup2\n        /* \"#utility.yul\":6482:6504   */\n      lt\n        /* \"#utility.yul\":6461:6479   */\n      0xffffffffffffffff\n        /* \"#utility.yul\":6449:6459   */\n      dup3\n        /* \"#utility.yul\":6446:6480   */\n      gt\n        /* \"#utility.yul\":6443:6505   */\n      or\n        /* \"#utility.yul\":6440:6528   */\n      iszero\n      tag_180\n      jumpi\n        /* \"#utility.yul\":6508:6526   */\n      tag_181\n      tag_155\n      jump\t// in\n    tag_181:\n        /* \"#utility.yul\":6440:6528   */\n    tag_180:\n        /* \"#utility.yul\":6548:6558   */\n      dup1\n        /* \"#utility.yul\":6544:6546   */\n      0x40\n        /* \"#utility.yul\":6537:6559   */\n      mstore\n        /* \"#utility.yul\":6327:6565   */\n      pop\n        /* \"#utility.yul\":6284:6565   */\n      pop\n      pop\n      jump\t// out\n        /* \"#utility.yul\":6571:6751   */\n    tag_164:\n        /* \"#utility.yul\":6619:6696   */\n      0x4e487b7100000000000000000000000000000000000000000000000000000000\n        /* \"#utility.yul\":6616:6617   */\n      0x00\n        /* \"#utility.yul\":6609:6697   */\n      mstore\n        /* \"#utility.yul\":6716:6720   */\n      0x11\n        /* \"#utility.yul\":6713:6714   */\n      0x04\n        /* \"#utility.yul\":6706:6721   */\n      mstore\n        /* \"#utility.yul\":6740:6744   */\n      0x24\n        /* \"#utility.yul\":6737:6738   */\n      0x00\n        /* \"#utility.yul\":6730:6745   */\n      revert\n        /* \"#utility.yul\":6757:6937   */\n    tag_177:\n        /* \"#utility.yul\":6805:6882   */\n      0x4e487b7100000000000000000000000000000000000000000000000000000000\n        /* \"#utility.yul\":6802:6803   */\n      0x00\n        /* \"#utility.yul\":6795:6883   */\n      mstore\n        /* \"#utility.yul\":6902:6906   */\n      0x22\n        /* \"#utility.yul\":6899:6900   */\n      0x04\n        /* \"#utility.yul\":6892:6907   */\n      mstore\n        /* \"#utility.yul\":6926:6930   */\n      0x24\n        /* \"#utility.yul\":6923:6924   */\n      0x00\n        /* \"#utility.yul\":6916:6931   */\n      revert\n        /* \"#utility.yul\":6943:7123   */\n    tag_37:\n        /* \"#utility.yul\":6991:7068   */\n      0x4e487b7100000000000000000000000000000000000000000000000000000000\n        /* \"#utility.yul\":6988:6989   */\n      0x00\n        /* \"#utility.yul\":6981:7069   */\n      mstore\n        /* \"#utility.yul\":7088:7092   */\n      0x32\n        /* \"#utility.yul\":7085:7086   */\n      0x04\n        /* \"#utility.yul\":7078:7093   */\n      mstore\n        /* \"#utility.yul\":7112:7116   */\n      0x24\n        /* \"#utility.yul\":7109:7110   */\n      0x00\n        /* \"#utility.yul\":7102:7117   */\n      revert\n        /* \"#utility.yul\":7129:7309   */\n    tag_155:\n        /* \"#utility.yul\":7177:7254   */\n      0x4e487b7100000000000000000000000000000000000000000000000000000000\n        /* \"#utility.yul\":7174:7175   */\n      0x00\n        /* \"#utility.yul\":7167:7255   */\n      mstore\n        /* \"#utility.yul\":7274:7278   */\n      0x41\n        /* \"#utility.yul\":7271:7272   */\n      0x04\n        /* \"#utility.yul\":7264:7279   */\n      mstore\n        /* \"#utility.yul\":7298:7302   */\n      0x24\n        /* \"#utility.yul\":7295:7296   */\n      0x00\n        /* \"#utility.yul\":7288:7303   */\n      revert\n        /* \"#utility.yul\":7315:7432   */\n    tag_97:\n        /* \"#utility.yul\":7424:7425   */\n      0x00\n        /* \"#utility.yul\":7421:7422   */\n      dup1\n        /* \"#utility.yul\":7414:7426   */\n      revert\n        /* \"#utility.yul\":7438:7555   */\n    tag_86:\n        /* \"#utility.yul\":7547:7548   */\n      0x00\n        /* \"#utility.yul\":7544:7545   */\n      dup1\n        /* \"#utility.yul\":7537:7549   */\n      revert\n        /* \"#utility.yul\":7561:7678   */\n    tag_109:\n        /* \"#utility.yul\":7670:7671   */\n      0x00\n        /* \"#utility.yul\":7667:7668   */\n      dup1\n        /* \"#utility.yul\":7660:7672   */\n      revert\n        /* \"#utility.yul\":7684:7801   */\n    tag_106:\n        /* \"#utility.yul\":7793:7794   */\n      0x00\n        /* \"#utility.yul\":7790:7791   */\n      dup1\n        /* \"#utility.yul\":7783:7795   */\n      revert\n        /* \"#utility.yul\":7807:7909   */\n    tag_133:\n        /* \"#utility.yul\":7848:7854   */\n      0x00\n        /* \"#utility.yul\":7899:7901   */\n      0x1f\n        /* \"#utility.yul\":7895:7902   */\n      not\n        /* \"#utility.yul\":7890:7892   */\n      0x1f\n        /* \"#utility.yul\":7883:7888   */\n      dup4\n        /* \"#utility.yul\":7879:7893   */\n      add\n        /* \"#utility.yul\":7875:7903   */\n      and\n        /* \"#utility.yul\":7865:7903   */\n      swap1\n      pop\n        /* \"#utility.yul\":7807:7909   */\n      swap2\n      swap1\n      pop\n      jump\t// out\n        /* \"#utility.yul\":7915:8031   */\n    tag_92:\n        /* \"#utility.yul\":7985:8006   */\n      tag_192\n        /* \"#utility.yul\":8000:8005   */\n      dup2\n        /* \"#utility.yul\":7985:8006   */\n      tag_123\n      jump\t// in\n    tag_192:\n        /* \"#utility.yul\":7978:7983   */\n      dup2\n        /* \"#utility.yul\":7975:8007   */\n      eq\n        /* \"#utility.yul\":7965:8025   */\n      tag_193\n      jumpi\n        /* \"#utility.yul\":8021:8022   */\n      0x00\n        /* \"#utility.yul\":8018:8019   */\n      dup1\n        /* \"#utility.yul\":8011:8023   */\n      revert\n        /* \"#utility.yul\":7965:8025   */\n    tag_193:\n        /* \"#utility.yul\":7915:8031   */\n      pop\n      jump\t// out\n        /* \"#utility.yul\":8037:8159   */\n    tag_102:\n        /* \"#utility.yul\":8110:8134   */\n      tag_195\n        /* \"#utility.yul\":8128:8133   */\n      dup2\n        /* \"#utility.yul\":8110:8134   */\n      tag_141\n      jump\t// in\n    tag_195:\n        /* \"#utility.yul\":8103:8108   */\n      dup2\n        /* \"#utility.yul\":8100:8135   */\n      eq\n        /* \"#utility.yul\":8090:8153   */\n      tag_196\n      jumpi\n        /* \"#utility.yul\":8149:8150   */\n      0x00\n        /* \"#utility.yul\":8146:8147   */\n      dup1\n        /* \"#utility.yul\":8139:8151   */\n      revert\n        /* \"#utility.yul\":8090:8153   */\n    tag_196:\n        /* \"#utility.yul\":8037:8159   */\n      pop\n      jump\t// out\n\n    auxdata: 0xa2646970667358221220bc4a818a89dd7e354a73ddc75fc768d8847ca23ed9329da01589298d9b86216b64736f6c63430008070033\n}\n",
				"bytecode": {
					"linkReferences": {},
					"object": "6080604052600060015534801561001557600080fd5b50610a6a806100256000396000f3fe60806040526004361061004a5760003560e01c80631d65e77e1461004f578063387008c21461008c578063560f3192146100b557806367238562146100de578063b6cb58a5146100fa575b600080fd5b34801561005b57600080fd5b5061007660048036038101906100719190610664565b610125565b6040516100839190610765565b60405180910390f35b34801561009857600080fd5b506100b360048036038101906100ae9190610691565b610250565b005b3480156100c157600080fd5b506100dc60048036038101906100d79190610664565b6102cd565b005b6100f860048036038101906100f3919061061b565b610355565b005b34801561010657600080fd5b5061010f61047c565b60405161011c9190610787565b60405180910390f35b61012d610482565b60008060003373ffffffffffffffffffffffffffffffffffffffff1673ffffffffffffffffffffffffffffffffffffffff168152602001908152602001600020838154811061017f5761017e610983565b5b90600052602060002090600202019050806040518060400160405290816000820180546101ab906108c2565b80601f01602080910402602001604051908101604052809291908181526020018280546101d7906108c2565b80156102245780601f106101f957610100808354040283529160200191610224565b820191906000526020600020905b81548152906001019060200180831161020757829003601f168201915b505050505081526020016001820160009054906101000a900460ff161515151581525050915050919050565b806000803373ffffffffffffffffffffffffffffffffffffffff1673ffffffffffffffffffffffffffffffffffffffff16815260200190815260200160002083815481106102a1576102a0610983565b5b906000526020600020906002020160010160006101000a81548160ff0219169083151502179055505050565b6000803373ffffffffffffffffffffffffffffffffffffffff1673ffffffffffffffffffffffffffffffffffffffff168152602001908152602001600020818154811061031d5761031c610983565b5b90600052602060002090600202016000808201600061033c919061049e565b6001820160006101000a81549060ff0219169055505050565b60018060008282546103679190610814565b925050819055506000803373ffffffffffffffffffffffffffffffffffffffff1673ffffffffffffffffffffffffffffffffffffffff168152602001908152602001600020604051806040016040528083815260200160001515815250908060018154018082558091505060019003906000526020600020906002020160009091909190915060008201518160000190805190602001906104099291906104de565b5060208201518160010160006101000a81548160ff021916908315150217905550505060003390508073ffffffffffffffffffffffffffffffffffffffff166108fc349081150290604051600060405180830381858888f19350505050158015610477573d6000803e3d6000fd5b505050565b60015481565b6040518060400160405280606081526020016000151581525090565b5080546104aa906108c2565b6000825580601f106104bc57506104db565b601f0160209004906000526020600020908101906104da9190610564565b5b50565b8280546104ea906108c2565b90600052602060002090601f01602090048101928261050c5760008555610553565b82601f1061052557805160ff1916838001178555610553565b82800160010185558215610553579182015b82811115610552578251825591602001919060010190610537565b5b5090506105609190610564565b5090565b5b8082111561057d576000816000905550600101610565565b5090565b600061059461058f846107c7565b6107a2565b9050828152602081018484840111156105b0576105af6109e6565b5b6105bb848285610880565b509392505050565b6000813590506105d281610a06565b92915050565b600082601f8301126105ed576105ec6109e1565b5b81356105fd848260208601610581565b91505092915050565b60008135905061061581610a1d565b92915050565b600060208284031215610631576106306109f0565b5b600082013567ffffffffffffffff81111561064f5761064e6109eb565b5b61065b848285016105d8565b91505092915050565b60006020828403121561067a576106796109f0565b5b600061068884828501610606565b91505092915050565b600080604083850312156106a8576106a76109f0565b5b60006106b685828601610606565b92505060206106c7858286016105c3565b9150509250929050565b6106da8161086a565b82525050565b60006106eb826107f8565b6106f58185610803565b935061070581856020860161088f565b61070e816109f5565b840191505092915050565b6000604083016000830151848203600086015261073682826106e0565b915050602083015161074b60208601826106d1565b508091505092915050565b61075f81610876565b82525050565b6000602082019050818103600083015261077f8184610719565b905092915050565b600060208201905061079c6000830184610756565b92915050565b60006107ac6107bd565b90506107b882826108f4565b919050565b6000604051905090565b600067ffffffffffffffff8211156107e2576107e16109b2565b5b6107eb826109f5565b9050602081019050919050565b600081519050919050565b600082825260208201905092915050565b600061081f82610876565b915061082a83610876565b9250827fffffffffffffffffffffffffffffffffffffffffffffffffffffffffffffffff0382111561085f5761085e610925565b5b828201905092915050565b60008115159050919050565b6000819050919050565b82818337600083830152505050565b60005b838110156108ad578082015181840152602081019050610892565b838111156108bc576000848401525b50505050565b600060028204905060018216806108da57607f821691505b602082108114156108ee576108ed610954565b5b50919050565b6108fd826109f5565b810181811067ffffffffffffffff8211171561091c5761091b6109b2565b5b80604052505050565b7f4e487b7100000000000000000000000000000000000000000000000000000000600052601160045260246000fd5b7f4e487b7100000000000000000000000000000000000000000000000000000000600052602260045260246000fd5b7f4e487b7100000000000000000000000000000000000000000000000000000000600052603260045260246000fd5b7f4e487b7100000000000000000000000000000000000000000000000000000000600052604160045260246000fd5b600080fd5b600080fd5b600080fd5b600080fd5b6000601f19601f8301169050919050565b610a0f8161086a565b8114610a1a57600080fd5b50565b610a2681610876565b8114610a3157600080fd5b5056fea2646970667358221220bc4a818a89dd7e354a73ddc75fc768d8847ca23ed9329da01589298d9b86216b64736f6c63430008070033",
					"opcodes": "PUSH1 0x80 PUSH1 0x40 MSTORE PUSH1 0x0 PUSH1 0x1 SSTORE CALLVALUE DUP1 ISZERO PUSH2 0x15 JUMPI PUSH1 0x0 DUP1 REVERT JUMPDEST POP PUSH2 0xA6A DUP1 PUSH2 0x25 PUSH1 0x0 CODECOPY PUSH1 0x0 RETURN INVALID PUSH1 0x80 PUSH1 0x40 MSTORE PUSH1 0x4 CALLDATASIZE LT PUSH2 0x4A JUMPI PUSH1 0x0 CALLDATALOAD PUSH1 0xE0 SHR DUP1 PUSH4 0x1D65E77E EQ PUSH2 0x4F JUMPI DUP1 PUSH4 0x387008C2 EQ PUSH2 0x8C JUMPI DUP1 PUSH4 0x560F3192 EQ PUSH2 0xB5 JUMPI DUP1 PUSH4 0x67238562 EQ PUSH2 0xDE JUMPI DUP1 PUSH4 0xB6CB58A5 EQ PUSH2 0xFA JUMPI JUMPDEST PUSH1 0x0 DUP1 REVERT JUMPDEST CALLVALUE DUP1 ISZERO PUSH2 0x5B JUMPI PUSH1 0x0 DUP1 REVERT JUMPDEST POP PUSH2 0x76 PUSH1 0x4 DUP1 CALLDATASIZE SUB DUP2 ADD SWAP1 PUSH2 0x71 SWAP2 SWAP1 PUSH2 0x664 JUMP JUMPDEST PUSH2 0x125 JUMP JUMPDEST PUSH1 0x40 MLOAD PUSH2 0x83 SWAP2 SWAP1 PUSH2 0x765 JUMP JUMPDEST PUSH1 0x40 MLOAD DUP1 SWAP2 SUB SWAP1 RETURN JUMPDEST CALLVALUE DUP1 ISZERO PUSH2 0x98 JUMPI PUSH1 0x0 DUP1 REVERT JUMPDEST POP PUSH2 0xB3 PUSH1 0x4 DUP1 CALLDATASIZE SUB DUP2 ADD SWAP1 PUSH2 0xAE SWAP2 SWAP1 PUSH2 0x691 JUMP JUMPDEST PUSH2 0x250 JUMP JUMPDEST STOP JUMPDEST CALLVALUE DUP1 ISZERO PUSH2 0xC1 JUMPI PUSH1 0x0 DUP1 REVERT JUMPDEST POP PUSH2 0xDC PUSH1 0x4 DUP1 CALLDATASIZE SUB DUP2 ADD SWAP1 PUSH2 0xD7 SWAP2 SWAP1 PUSH2 0x664 JUMP JUMPDEST PUSH2 0x2CD JUMP JUMPDEST STOP JUMPDEST PUSH2 0xF8 PUSH1 0x4 DUP1 CALLDATASIZE SUB DUP2 ADD SWAP1 PUSH2 0xF3 SWAP2 SWAP1 PUSH2 0x61B JUMP JUMPDEST PUSH2 0x355 JUMP JUMPDEST STOP JUMPDEST CALLVALUE DUP1 ISZERO PUSH2 0x106 JUMPI PUSH1 0x0 DUP1 REVERT JUMPDEST POP PUSH2 0x10F PUSH2 0x47C JUMP JUMPDEST PUSH1 0x40 MLOAD PUSH2 0x11C SWAP2 SWAP1 PUSH2 0x787 JUMP JUMPDEST PUSH1 0x40 MLOAD DUP1 SWAP2 SUB SWAP1 RETURN JUMPDEST PUSH2 0x12D PUSH2 0x482 JUMP JUMPDEST PUSH1 0x0 DUP1 PUSH1 0x0 CALLER PUSH20 0xFFFFFFFFFFFFFFFFFFFFFFFFFFFFFFFFFFFFFFFF AND PUSH20 0xFFFFFFFFFFFFFFFFFFFFFFFFFFFFFFFFFFFFFFFF AND DUP2 MSTORE PUSH1 0x20 ADD SWAP1 DUP2 MSTORE PUSH1 0x20 ADD PUSH1 0x0 KECCAK256 DUP4 DUP2 SLOAD DUP2 LT PUSH2 0x17F JUMPI PUSH2 0x17E PUSH2 0x983 JUMP JUMPDEST JUMPDEST SWAP1 PUSH1 0x0 MSTORE PUSH1 0x20 PUSH1 0x0 KECCAK256 SWAP1 PUSH1 0x2 MUL ADD SWAP1 POP DUP1 PUSH1 0x40 MLOAD DUP1 PUSH1 0x40 ADD PUSH1 0x40 MSTORE SWAP1 DUP2 PUSH1 0x0 DUP3 ADD DUP1 SLOAD PUSH2 0x1AB SWAP1 PUSH2 0x8C2 JUMP JUMPDEST DUP1 PUSH1 0x1F ADD PUSH1 0x20 DUP1 SWAP2 DIV MUL PUSH1 0x20 ADD PUSH1 0x40 MLOAD SWAP1 DUP2 ADD PUSH1 0x40 MSTORE DUP1 SWAP3 SWAP2 SWAP1 DUP2 DUP2 MSTORE PUSH1 0x20 ADD DUP3 DUP1 SLOAD PUSH2 0x1D7 SWAP1 PUSH2 0x8C2 JUMP JUMPDEST DUP1 ISZERO PUSH2 0x224 JUMPI DUP1 PUSH1 0x1F LT PUSH2 0x1F9 JUMPI PUSH2 0x100 DUP1 DUP4 SLOAD DIV MUL DUP4 MSTORE SWAP2 PUSH1 0x20 ADD SWAP2 PUSH2 0x224 JUMP JUMPDEST DUP3 ADD SWAP2 SWAP1 PUSH1 0x0 MSTORE PUSH1 0x20 PUSH1 0x0 KECCAK256 SWAP1 JUMPDEST DUP2 SLOAD DUP2 MSTORE SWAP1 PUSH1 0x1 ADD SWAP1 PUSH1 0x20 ADD DUP1 DUP4 GT PUSH2 0x207 JUMPI DUP3 SWAP1 SUB PUSH1 0x1F AND DUP3 ADD SWAP2 JUMPDEST POP POP POP POP POP DUP2 MSTORE PUSH1 0x20 ADD PUSH1 0x1 DUP3 ADD PUSH1 0x0 SWAP1 SLOAD SWAP1 PUSH2 0x100 EXP SWAP1 DIV PUSH1 0xFF AND ISZERO ISZERO ISZERO ISZERO DUP2 MSTORE POP POP SWAP2 POP POP SWAP2 SWAP1 POP JUMP JUMPDEST DUP1 PUSH1 0x0 DUP1 CALLER PUSH20 0xFFFFFFFFFFFFFFFFFFFFFFFFFFFFFFFFFFFFFFFF AND PUSH20 0xFFFFFFFFFFFFFFFFFFFFFFFFFFFFFFFFFFFFFFFF AND DUP2 MSTORE PUSH1 0x20 ADD SWAP1 DUP2 MSTORE PUSH1 0x20 ADD PUSH1 0x0 KECCAK256 DUP4 DUP2 SLOAD DUP2 LT PUSH2 0x2A1 JUMPI PUSH2 0x2A0 PUSH2 0x983 JUMP JUMPDEST JUMPDEST SWAP1 PUSH1 0x0 MSTORE PUSH1 0x20 PUSH1 0x0 KECCAK256 SWAP1 PUSH1 0x2 MUL ADD PUSH1 0x1 ADD PUSH1 0x0 PUSH2 0x100 EXP DUP2 SLOAD DUP2 PUSH1 0xFF MUL NOT AND SWAP1 DUP4 ISZERO ISZERO MUL OR SWAP1 SSTORE POP POP POP JUMP JUMPDEST PUSH1 0x0 DUP1 CALLER PUSH20 0xFFFFFFFFFFFFFFFFFFFFFFFFFFFFFFFFFFFFFFFF AND PUSH20 0xFFFFFFFFFFFFFFFFFFFFFFFFFFFFFFFFFFFFFFFF AND DUP2 MSTORE PUSH1 0x20 ADD SWAP1 DUP2 MSTORE PUSH1 0x20 ADD PUSH1 0x0 KECCAK256 DUP2 DUP2 SLOAD DUP2 LT PUSH2 0x31D JUMPI PUSH2 0x31C PUSH2 0x983 JUMP JUMPDEST JUMPDEST SWAP1 PUSH1 0x0 MSTORE PUSH1 0x20 PUSH1 0x0 KECCAK256 SWAP1 PUSH1 0x2 MUL ADD PUSH1 0x0 DUP1 DUP3 ADD PUSH1 0x0 PUSH2 0x33C SWAP2 SWAP1 PUSH2 0x49E JUMP JUMPDEST PUSH1 0x1 DUP3 ADD PUSH1 0x0 PUSH2 0x100 EXP DUP2 SLOAD SWAP1 PUSH1 0xFF MUL NOT AND SWAP1 SSTORE POP POP POP JUMP JUMPDEST PUSH1 0x1 DUP1 PUSH1 0x0 DUP3 DUP3 SLOAD PUSH2 0x367 SWAP2 SWAP1 PUSH2 0x814 JUMP JUMPDEST SWAP3 POP POP DUP2 SWAP1 SSTORE POP PUSH1 0x0 DUP1 CALLER PUSH20 0xFFFFFFFFFFFFFFFFFFFFFFFFFFFFFFFFFFFFFFFF AND PUSH20 0xFFFFFFFFFFFFFFFFFFFFFFFFFFFFFFFFFFFFFFFF AND DUP2 MSTORE PUSH1 0x20 ADD SWAP1 DUP2 MSTORE PUSH1 0x20 ADD PUSH1 0x0 KECCAK256 PUSH1 0x40 MLOAD DUP1 PUSH1 0x40 ADD PUSH1 0x40 MSTORE DUP1 DUP4 DUP2 MSTORE PUSH1 0x20 ADD PUSH1 0x0 ISZERO ISZERO DUP2 MSTORE POP SWAP1 DUP1 PUSH1 0x1 DUP2 SLOAD ADD DUP1 DUP3 SSTORE DUP1 SWAP2 POP POP PUSH1 0x1 SWAP1 SUB SWAP1 PUSH1 0x0 MSTORE PUSH1 0x20 PUSH1 0x0 KECCAK256 SWAP1 PUSH1 0x2 MUL ADD PUSH1 0x0 SWAP1 SWAP2 SWAP1 SWAP2 SWAP1 SWAP2 POP PUSH1 0x0 DUP3 ADD MLOAD DUP2 PUSH1 0x0 ADD SWAP1 DUP1 MLOAD SWAP1 PUSH1 0x20 ADD SWAP1 PUSH2 0x409 SWAP3 SWAP2 SWAP1 PUSH2 0x4DE JUMP JUMPDEST POP PUSH1 0x20 DUP3 ADD MLOAD DUP2 PUSH1 0x1 ADD PUSH1 0x0 PUSH2 0x100 EXP DUP2 SLOAD DUP2 PUSH1 0xFF MUL NOT AND SWAP1 DUP4 ISZERO ISZERO MUL OR SWAP1 SSTORE POP POP POP PUSH1 0x0 CALLER SWAP1 POP DUP1 PUSH20 0xFFFFFFFFFFFFFFFFFFFFFFFFFFFFFFFFFFFFFFFF AND PUSH2 0x8FC CALLVALUE SWAP1 DUP2 ISZERO MUL SWAP1 PUSH1 0x40 MLOAD PUSH1 0x0 PUSH1 0x40 MLOAD DUP1 DUP4 SUB DUP2 DUP6 DUP9 DUP9 CALL SWAP4 POP POP POP POP ISZERO DUP1 ISZERO PUSH2 0x477 JUMPI RETURNDATASIZE PUSH1 0x0 DUP1 RETURNDATACOPY RETURNDATASIZE PUSH1 0x0 REVERT JUMPDEST POP POP POP JUMP JUMPDEST PUSH1 0x1 SLOAD DUP2 JUMP JUMPDEST PUSH1 0x40 MLOAD DUP1 PUSH1 0x40 ADD PUSH1 0x40 MSTORE DUP1 PUSH1 0x60 DUP2 MSTORE PUSH1 0x20 ADD PUSH1 0x0 ISZERO ISZERO DUP2 MSTORE POP SWAP1 JUMP JUMPDEST POP DUP1 SLOAD PUSH2 0x4AA SWAP1 PUSH2 0x8C2 JUMP JUMPDEST PUSH1 0x0 DUP3 SSTORE DUP1 PUSH1 0x1F LT PUSH2 0x4BC JUMPI POP PUSH2 0x4DB JUMP JUMPDEST PUSH1 0x1F ADD PUSH1 0x20 SWAP1 DIV SWAP1 PUSH1 0x0 MSTORE PUSH1 0x20 PUSH1 0x0 KECCAK256 SWAP1 DUP2 ADD SWAP1 PUSH2 0x4DA SWAP2 SWAP1 PUSH2 0x564 JUMP JUMPDEST JUMPDEST POP JUMP JUMPDEST DUP3 DUP1 SLOAD PUSH2 0x4EA SWAP1 PUSH2 0x8C2 JUMP JUMPDEST SWAP1 PUSH1 0x0 MSTORE PUSH1 0x20 PUSH1 0x0 KECCAK256 SWAP1 PUSH1 0x1F ADD PUSH1 0x20 SWAP1 DIV DUP2 ADD SWAP3 DUP3 PUSH2 0x50C JUMPI PUSH1 0x0 DUP6 SSTORE PUSH2 0x553 JUMP JUMPDEST DUP3 PUSH1 0x1F LT PUSH2 0x525 JUMPI DUP1 MLOAD PUSH1 0xFF NOT AND DUP4 DUP1 ADD OR DUP6 SSTORE PUSH2 0x553 JUMP JUMPDEST DUP3 DUP1 ADD PUSH1 0x1 ADD DUP6 SSTORE DUP3 ISZERO PUSH2 0x553 JUMPI SWAP2 DUP3 ADD JUMPDEST DUP3 DUP2 GT ISZERO PUSH2 0x552 JUMPI DUP3 MLOAD DUP3 SSTORE SWAP2 PUSH1 0x20 ADD SWAP2 SWAP1 PUSH1 0x1 ADD SWAP1 PUSH2 0x537 JUMP JUMPDEST JUMPDEST POP SWAP1 POP PUSH2 0x560 SWAP2 SWAP1 PUSH2 0x564 JUMP JUMPDEST POP SWAP1 JUMP JUMPDEST JUMPDEST DUP1 DUP3 GT ISZERO PUSH2 0x57D JUMPI PUSH1 0x0 DUP2 PUSH1 0x0 SWAP1 SSTORE POP PUSH1 0x1 ADD PUSH2 0x565 JUMP JUMPDEST POP SWAP1 JUMP JUMPDEST PUSH1 0x0 PUSH2 0x594 PUSH2 0x58F DUP5 PUSH2 0x7C7 JUMP JUMPDEST PUSH2 0x7A2 JUMP JUMPDEST SWAP1 POP DUP3 DUP2 MSTORE PUSH1 0x20 DUP2 ADD DUP5 DUP5 DUP5 ADD GT ISZERO PUSH2 0x5B0 JUMPI PUSH2 0x5AF PUSH2 0x9E6 JUMP JUMPDEST JUMPDEST PUSH2 0x5BB DUP5 DUP3 DUP6 PUSH2 0x880 JUMP JUMPDEST POP SWAP4 SWAP3 POP POP POP JUMP JUMPDEST PUSH1 0x0 DUP2 CALLDATALOAD SWAP1 POP PUSH2 0x5D2 DUP2 PUSH2 0xA06 JUMP JUMPDEST SWAP3 SWAP2 POP POP JUMP JUMPDEST PUSH1 0x0 DUP3 PUSH1 0x1F DUP4 ADD SLT PUSH2 0x5ED JUMPI PUSH2 0x5EC PUSH2 0x9E1 JUMP JUMPDEST JUMPDEST DUP2 CALLDATALOAD PUSH2 0x5FD DUP5 DUP3 PUSH1 0x20 DUP7 ADD PUSH2 0x581 JUMP JUMPDEST SWAP2 POP POP SWAP3 SWAP2 POP POP JUMP JUMPDEST PUSH1 0x0 DUP2 CALLDATALOAD SWAP1 POP PUSH2 0x615 DUP2 PUSH2 0xA1D JUMP JUMPDEST SWAP3 SWAP2 POP POP JUMP JUMPDEST PUSH1 0x0 PUSH1 0x20 DUP3 DUP5 SUB SLT ISZERO PUSH2 0x631 JUMPI PUSH2 0x630 PUSH2 0x9F0 JUMP JUMPDEST JUMPDEST PUSH1 0x0 DUP3 ADD CALLDATALOAD PUSH8 0xFFFFFFFFFFFFFFFF DUP2 GT ISZERO PUSH2 0x64F JUMPI PUSH2 0x64E PUSH2 0x9EB JUMP JUMPDEST JUMPDEST PUSH2 0x65B DUP5 DUP3 DUP6 ADD PUSH2 0x5D8 JUMP JUMPDEST SWAP2 POP POP SWAP3 SWAP2 POP POP JUMP JUMPDEST PUSH1 0x0 PUSH1 0x20 DUP3 DUP5 SUB SLT ISZERO PUSH2 0x67A JUMPI PUSH2 0x679 PUSH2 0x9F0 JUMP JUMPDEST JUMPDEST PUSH1 0x0 PUSH2 0x688 DUP5 DUP3 DUP6 ADD PUSH2 0x606 JUMP JUMPDEST SWAP2 POP POP SWAP3 SWAP2 POP POP JUMP JUMPDEST PUSH1 0x0 DUP1 PUSH1 0x40 DUP4 DUP6 SUB SLT ISZERO PUSH2 0x6A8 JUMPI PUSH2 0x6A7 PUSH2 0x9F0 JUMP JUMPDEST JUMPDEST PUSH1 0x0 PUSH2 0x6B6 DUP6 DUP3 DUP7 ADD PUSH2 0x606 JUMP JUMPDEST SWAP3 POP POP PUSH1 0x20 PUSH2 0x6C7 DUP6 DUP3 DUP7 ADD PUSH2 0x5C3 JUMP JUMPDEST SWAP2 POP POP SWAP3 POP SWAP3 SWAP1 POP JUMP JUMPDEST PUSH2 0x6DA DUP2 PUSH2 0x86A JUMP JUMPDEST DUP3 MSTORE POP POP JUMP JUMPDEST PUSH1 0x0 PUSH2 0x6EB DUP3 PUSH2 0x7F8 JUMP JUMPDEST PUSH2 0x6F5 DUP2 DUP6 PUSH2 0x803 JUMP JUMPDEST SWAP4 POP PUSH2 0x705 DUP2 DUP6 PUSH1 0x20 DUP7 ADD PUSH2 0x88F JUMP JUMPDEST PUSH2 0x70E DUP2 PUSH2 0x9F5 JUMP JUMPDEST DUP5 ADD SWAP2 POP POP SWAP3 SWAP2 POP POP JUMP JUMPDEST PUSH1 0x0 PUSH1 0x40 DUP4 ADD PUSH1 0x0 DUP4 ADD MLOAD DUP5 DUP3 SUB PUSH1 0x0 DUP7 ADD MSTORE PUSH2 0x736 DUP3 DUP3 PUSH2 0x6E0 JUMP JUMPDEST SWAP2 POP POP PUSH1 0x20 DUP4 ADD MLOAD PUSH2 0x74B PUSH1 0x20 DUP7 ADD DUP3 PUSH2 0x6D1 JUMP JUMPDEST POP DUP1 SWAP2 POP POP SWAP3 SWAP2 POP POP JUMP JUMPDEST PUSH2 0x75F DUP2 PUSH2 0x876 JUMP JUMPDEST DUP3 MSTORE POP POP JUMP JUMPDEST PUSH1 0x0 PUSH1 0x20 DUP3 ADD SWAP1 POP DUP2 DUP2 SUB PUSH1 0x0 DUP4 ADD MSTORE PUSH2 0x77F DUP2 DUP5 PUSH2 0x719 JUMP JUMPDEST SWAP1 POP SWAP3 SWAP2 POP POP JUMP JUMPDEST PUSH1 0x0 PUSH1 0x20 DUP3 ADD SWAP1 POP PUSH2 0x79C PUSH1 0x0 DUP4 ADD DUP5 PUSH2 0x756 JUMP JUMPDEST SWAP3 SWAP2 POP POP JUMP JUMPDEST PUSH1 0x0 PUSH2 0x7AC PUSH2 0x7BD JUMP JUMPDEST SWAP1 POP PUSH2 0x7B8 DUP3 DUP3 PUSH2 0x8F4 JUMP JUMPDEST SWAP2 SWAP1 POP JUMP JUMPDEST PUSH1 0x0 PUSH1 0x40 MLOAD SWAP1 POP SWAP1 JUMP JUMPDEST PUSH1 0x0 PUSH8 0xFFFFFFFFFFFFFFFF DUP3 GT ISZERO PUSH2 0x7E2 JUMPI PUSH2 0x7E1 PUSH2 0x9B2 JUMP JUMPDEST JUMPDEST PUSH2 0x7EB DUP3 PUSH2 0x9F5 JUMP JUMPDEST SWAP1 POP PUSH1 0x20 DUP2 ADD SWAP1 POP SWAP2 SWAP1 POP JUMP JUMPDEST PUSH1 0x0 DUP2 MLOAD SWAP1 POP SWAP2 SWAP1 POP JUMP JUMPDEST PUSH1 0x0 DUP3 DUP3 MSTORE PUSH1 0x20 DUP3 ADD SWAP1 POP SWAP3 SWAP2 POP POP JUMP JUMPDEST PUSH1 0x0 PUSH2 0x81F DUP3 PUSH2 0x876 JUMP JUMPDEST SWAP2 POP PUSH2 0x82A DUP4 PUSH2 0x876 JUMP JUMPDEST SWAP3 POP DUP3 PUSH32 0xFFFFFFFFFFFFFFFFFFFFFFFFFFFFFFFFFFFFFFFFFFFFFFFFFFFFFFFFFFFFFFFF SUB DUP3 GT ISZERO PUSH2 0x85F JUMPI PUSH2 0x85E PUSH2 0x925 JUMP JUMPDEST JUMPDEST DUP3 DUP3 ADD SWAP1 POP SWAP3 SWAP2 POP POP JUMP JUMPDEST PUSH1 0x0 DUP2 ISZERO ISZERO SWAP1 POP SWAP2 SWAP1 POP JUMP JUMPDEST PUSH1 0x0 DUP2 SWAP1 POP SWAP2 SWAP1 POP JUMP JUMPDEST DUP3 DUP2 DUP4 CALLDATACOPY PUSH1 0x0 DUP4 DUP4 ADD MSTORE POP POP POP JUMP JUMPDEST PUSH1 0x0 JUMPDEST DUP4 DUP2 LT ISZERO PUSH2 0x8AD JUMPI DUP1 DUP3 ADD MLOAD DUP2 DUP5 ADD MSTORE PUSH1 0x20 DUP2 ADD SWAP1 POP PUSH2 0x892 JUMP JUMPDEST DUP4 DUP2 GT ISZERO PUSH2 0x8BC JUMPI PUSH1 0x0 DUP5 DUP5 ADD MSTORE JUMPDEST POP POP POP POP JUMP JUMPDEST PUSH1 0x0 PUSH1 0x2 DUP3 DIV SWAP1 POP PUSH1 0x1 DUP3 AND DUP1 PUSH2 0x8DA JUMPI PUSH1 0x7F DUP3 AND SWAP2 POP JUMPDEST PUSH1 0x20 DUP3 LT DUP2 EQ ISZERO PUSH2 0x8EE JUMPI PUSH2 0x8ED PUSH2 0x954 JUMP JUMPDEST JUMPDEST POP SWAP2 SWAP1 POP JUMP JUMPDEST PUSH2 0x8FD DUP3 PUSH2 0x9F5 JUMP JUMPDEST DUP2 ADD DUP2 DUP2 LT PUSH8 0xFFFFFFFFFFFFFFFF DUP3 GT OR ISZERO PUSH2 0x91C JUMPI PUSH2 0x91B PUSH2 0x9B2 JUMP JUMPDEST JUMPDEST DUP1 PUSH1 0x40 MSTORE POP POP POP JUMP JUMPDEST PUSH32 0x4E487B7100000000000000000000000000000000000000000000000000000000 PUSH1 0x0 MSTORE PUSH1 0x11 PUSH1 0x4 MSTORE PUSH1 0x24 PUSH1 0x0 REVERT JUMPDEST PUSH32 0x4E487B7100000000000000000000000000000000000000000000000000000000 PUSH1 0x0 MSTORE PUSH1 0x22 PUSH1 0x4 MSTORE PUSH1 0x24 PUSH1 0x0 REVERT JUMPDEST PUSH32 0x4E487B7100000000000000000000000000000000000000000000000000000000 PUSH1 0x0 MSTORE PUSH1 0x32 PUSH1 0x4 MSTORE PUSH1 0x24 PUSH1 0x0 REVERT JUMPDEST PUSH32 0x4E487B7100000000000000000000000000000000000000000000000000000000 PUSH1 0x0 MSTORE PUSH1 0x41 PUSH1 0x4 MSTORE PUSH1 0x24 PUSH1 0x0 REVERT JUMPDEST PUSH1 0x0 DUP1 REVERT JUMPDEST PUSH1 0x0 DUP1 REVERT JUMPDEST PUSH1 0x0 DUP1 REVERT JUMPDEST PUSH1 0x0 DUP1 REVERT JUMPDEST PUSH1 0x0 PUSH1 0x1F NOT PUSH1 0x1F DUP4 ADD AND SWAP1 POP SWAP2 SWAP1 POP JUMP JUMPDEST PUSH2 0xA0F DUP2 PUSH2 0x86A JUMP JUMPDEST DUP2 EQ PUSH2 0xA1A JUMPI PUSH1 0x0 DUP1 REVERT JUMPDEST POP JUMP JUMPDEST PUSH2 0xA26 DUP2 PUSH2 0x876 JUMP JUMPDEST DUP2 EQ PUSH2 0xA31 JUMPI PUSH1 0x0 DUP1 REVERT JUMPDEST POP JUMP INVALID LOG2 PUSH5 0x6970667358 0x22 SLT KECCAK256 0xBC 0x4A DUP2 DUP11 DUP10 0xDD PUSH31 0x354A73DDC75FC768D8847CA23ED9329DA01589298D9B86216B64736F6C6343 STOP ADDMOD SMOD STOP CALLER "
				},
				"gasEstimates": {
					"creation": {
						"codeDepositCost": "533200",
						"executionCost": "5574",
						"totalCost": "538774"
					},
					"external": {
						"addTask(string)": "infinite",
						"deleteTask(uint256)": "infinite",
						"getTask(uint256)": "infinite",
						"taskCount()": "2495",
						"updateStatus(uint256,bool)": "27138"
					}
				},
				"methodIdentifiers": {
					"addTask(string)": "67238562",
					"deleteTask(uint256)": "560f3192",
					"getTask(uint256)": "1d65e77e",
					"taskCount()": "b6cb58a5",
					"updateStatus(uint256,bool)": "387008c2"
				}
			},
			"storageLayout": {
				"storage": [
					{
						"astId": 13,
						"contract": "bloc.sol:Bloc",
						"label": "Tasks",
						"offset": 0,
						"slot": "0",
						"type": "t_mapping(t_address,t_array(t_struct(Task)7_storage)dyn_storage)"
					},
					{
						"astId": 16,
						"contract": "bloc.sol:Bloc",
						"label": "taskCount",
						"offset": 0,
						"slot": "1",
						"type": "t_uint256"
					}
				],
				"types": {
					"t_address": {
						"encoding": "inplace",
						"label": "address",
						"numberOfBytes": "20"
					},
					"t_array(t_struct(Task)7_storage)dyn_storage": {
						"base": "t_struct(Task)7_storage",
						"encoding": "dynamic_array",
						"label": "struct Bloc.Task[]",
						"numberOfBytes": "32"
					},
					"t_bool": {
						"encoding": "inplace",
						"label": "bool",
						"numberOfBytes": "1"
					},
					"t_mapping(t_address,t_array(t_struct(Task)7_storage)dyn_storage)": {
						"encoding": "mapping",
						"key": "t_address",
						"label": "mapping(address => struct Bloc.Task[])",
						"numberOfBytes": "32",
						"value": "t_array(t_struct(Task)7_storage)dyn_storage"
					},
					"t_string_storage": {
						"encoding": "bytes",
						"label": "string",
						"numberOfBytes": "32"
					},
					"t_struct(Task)7_storage": {
						"encoding": "inplace",
						"label": "struct Bloc.Task",
						"members": [
							{
								"astId": 4,
								"contract": "bloc.sol:Bloc",
								"label": "name",
								"offset": 0,
								"slot": "0",
								"type": "t_string_storage"
							},
							{
								"astId": 6,
								"contract": "bloc.sol:Bloc",
								"label": "isDone",
								"offset": 0,
								"slot": "1",
								"type": "t_bool"
							}
						],
						"numberOfBytes": "64"
					},
					"t_uint256": {
						"encoding": "inplace",
						"label": "uint256",
						"numberOfBytes": "32"
					}
				}
			},
			"userdoc": {
				"kind": "user",
				"methods": {},
				"version": 1
			}
		}
	}
}