{
	"bloc.sol": {
		"Bloc": {
			"abi": [
				{
					"constant": false,
					"inputs": [
						{
							"internalType": "string",
							"name": "_task",
							"type": "string"
						}
					],
					"name": "addTask",
					"outputs": [],
					"payable": true,
					"stateMutability": "payable",
					"type": "function"
				},
				{
					"constant": false,
					"inputs": [
						{
							"internalType": "uint256",
							"name": "_taskIndex",
							"type": "uint256"
						}
					],
					"name": "deleteTask",
					"outputs": [],
					"payable": false,
					"stateMutability": "nonpayable",
					"type": "function"
				},
				{
					"constant": true,
					"inputs": [
						{
							"internalType": "uint256",
							"name": "_taskIndex",
							"type": "uint256"
						}
					],
					"name": "getTask",
					"outputs": [
						{
							"components": [
								{
									"internalType": "string",
									"name": "task",
									"type": "string"
								},
								{
									"internalType": "bool",
									"name": "isDone",
									"type": "bool"
								}
							],
							"internalType": "struct Bloc.Task",
							"name": "",
							"type": "tuple"
						}
					],
					"payable": false,
					"stateMutability": "view",
					"type": "function"
				},
				{
					"constant": true,
					"inputs": [],
					"name": "getTaskCount",
					"outputs": [
						{
							"internalType": "uint256",
							"name": "",
							"type": "uint256"
						}
					],
					"payable": false,
					"stateMutability": "view",
					"type": "function"
				},
				{
					"constant": false,
					"inputs": [
						{
							"internalType": "uint256",
							"name": "_taskIndex",
							"type": "uint256"
						},
						{
							"internalType": "bool",
							"name": "_status",
							"type": "bool"
						}
					],
					"name": "updateStatus",
					"outputs": [],
					"payable": false,
					"stateMutability": "nonpayable",
					"type": "function"
				}
			],
			"devdoc": {
				"methods": {}
			},
			"evm": {
				"assembly": "    /* \"bloc.sol\":82:1154  contract Bloc{... */\n  mstore(0x40, 0x80)\n  callvalue\n    /* \"--CODEGEN--\":8:17   */\n  dup1\n    /* \"--CODEGEN--\":5:7   */\n  iszero\n  tag_1\n  jumpi\n    /* \"--CODEGEN--\":30:31   */\n  0x00\n    /* \"--CODEGEN--\":27:28   */\n  dup1\n    /* \"--CODEGEN--\":20:32   */\n  revert\n    /* \"--CODEGEN--\":5:7   */\ntag_1:\n    /* \"bloc.sol\":82:1154  contract Bloc{... */\n  pop\n  dataSize(sub_0)\n  dup1\n  dataOffset(sub_0)\n  0x00\n  codecopy\n  0x00\n  return\nstop\n\nsub_0: assembly {\n        /* \"bloc.sol\":82:1154  contract Bloc{... */\n      mstore(0x40, 0x80)\n      jumpi(tag_1, lt(calldatasize, 0x04))\n      shr(0xe0, calldataload(0x00))\n      dup1\n      0x1d65e77e\n      eq\n      tag_2\n      jumpi\n      dup1\n      0x387008c2\n      eq\n      tag_3\n      jumpi\n      dup1\n      0x560f3192\n      eq\n      tag_4\n      jumpi\n      dup1\n      0x67238562\n      eq\n      tag_5\n      jumpi\n      dup1\n      0xc17a340e\n      eq\n      tag_6\n      jumpi\n    tag_1:\n      0x00\n      dup1\n      revert\n        /* \"bloc.sol\":579:716  function getTask(uint _taskIndex) external view returns (Task memory)... */\n    tag_2:\n      callvalue\n        /* \"--CODEGEN--\":8:17   */\n      dup1\n        /* \"--CODEGEN--\":5:7   */\n      iszero\n      tag_7\n      jumpi\n        /* \"--CODEGEN--\":30:31   */\n      0x00\n        /* \"--CODEGEN--\":27:28   */\n      dup1\n        /* \"--CODEGEN--\":20:32   */\n      revert\n        /* \"--CODEGEN--\":5:7   */\n    tag_7:\n        /* \"bloc.sol\":579:716  function getTask(uint _taskIndex) external view returns (Task memory)... */\n      pop\n      tag_8\n      0x04\n      dup1\n      calldatasize\n      sub\n      tag_9\n      swap2\n      swap1\n      dup2\n      add\n      swap1\n      jump(tag_10)\n    tag_9:\n      tag_11\n      jump\t// in\n    tag_8:\n      mload(0x40)\n      tag_12\n      swap2\n      swap1\n      jump(tag_13)\n    tag_12:\n      mload(0x40)\n      dup1\n      swap2\n      sub\n      swap1\n      return\n        /* \"bloc.sol\":768:883  function updateStatus(uint256 _taskIndex,bool _status) external... */\n    tag_3:\n      callvalue\n        /* \"--CODEGEN--\":8:17   */\n      dup1\n        /* \"--CODEGEN--\":5:7   */\n      iszero\n      tag_14\n      jumpi\n        /* \"--CODEGEN--\":30:31   */\n      0x00\n        /* \"--CODEGEN--\":27:28   */\n      dup1\n        /* \"--CODEGEN--\":20:32   */\n      revert\n        /* \"--CODEGEN--\":5:7   */\n    tag_14:\n        /* \"bloc.sol\":768:883  function updateStatus(uint256 _taskIndex,bool _status) external... */\n      pop\n      tag_15\n      0x04\n      dup1\n      calldatasize\n      sub\n      tag_16\n      swap2\n      swap1\n      dup2\n      add\n      swap1\n      jump(tag_17)\n    tag_16:\n      tag_18\n      jump\t// in\n    tag_15:\n      stop\n        /* \"bloc.sol\":925:1016  function deleteTask(uint256 _taskIndex) external... */\n    tag_4:\n      callvalue\n        /* \"--CODEGEN--\":8:17   */\n      dup1\n        /* \"--CODEGEN--\":5:7   */\n      iszero\n      tag_19\n      jumpi\n        /* \"--CODEGEN--\":30:31   */\n      0x00\n        /* \"--CODEGEN--\":27:28   */\n      dup1\n        /* \"--CODEGEN--\":20:32   */\n      revert\n        /* \"--CODEGEN--\":5:7   */\n    tag_19:\n        /* \"bloc.sol\":925:1016  function deleteTask(uint256 _taskIndex) external... */\n      pop\n      tag_20\n      0x04\n      dup1\n      calldatasize\n      sub\n      tag_21\n      swap2\n      swap1\n      dup2\n      add\n      swap1\n      jump(tag_10)\n    tag_21:\n      tag_22\n      jump\t// in\n    tag_20:\n      stop\n        /* \"bloc.sol\":265:529  function addTask(string memory _task) public payable... */\n    tag_5:\n      tag_23\n      0x04\n      dup1\n      calldatasize\n      sub\n      tag_24\n      swap2\n      swap1\n      dup2\n      add\n      swap1\n      jump(tag_25)\n    tag_24:\n      tag_26\n      jump\t// in\n    tag_23:\n      stop\n        /* \"bloc.sol\":1060:1152  function getTaskCount() external view returns (uint256)... */\n    tag_6:\n      callvalue\n        /* \"--CODEGEN--\":8:17   */\n      dup1\n        /* \"--CODEGEN--\":5:7   */\n      iszero\n      tag_27\n      jumpi\n        /* \"--CODEGEN--\":30:31   */\n      0x00\n        /* \"--CODEGEN--\":27:28   */\n      dup1\n        /* \"--CODEGEN--\":20:32   */\n      revert\n        /* \"--CODEGEN--\":5:7   */\n    tag_27:\n        /* \"bloc.sol\":1060:1152  function getTaskCount() external view returns (uint256)... */\n      pop\n      tag_28\n      tag_29\n      jump\t// in\n    tag_28:\n      mload(0x40)\n      tag_30\n      swap2\n      swap1\n      jump(tag_31)\n    tag_30:\n      mload(0x40)\n      dup1\n      swap2\n      sub\n      swap1\n      return\n        /* \"bloc.sol\":579:716  function getTask(uint _taskIndex) external view returns (Task memory)... */\n    tag_11:\n        /* \"bloc.sol\":636:647  Task memory */\n      tag_32\n      tag_33\n      jump\t// in\n    tag_32:\n        /* \"bloc.sol\":651:668  Task storage task */\n      0x00\n        /* \"bloc.sol\":671:676  Users */\n      dup1\n        /* \"bloc.sol\":671:688  Users[msg.sender] */\n      0x00\n        /* \"bloc.sol\":677:687  msg.sender */\n      caller\n        /* \"bloc.sol\":671:688  Users[msg.sender] */\n      0xffffffffffffffffffffffffffffffffffffffff\n      and\n      0xffffffffffffffffffffffffffffffffffffffff\n      and\n      dup2\n      mstore\n      0x20\n      add\n      swap1\n      dup2\n      mstore\n      0x20\n      add\n      0x00\n      keccak256\n        /* \"bloc.sol\":689:699  _taskIndex */\n      dup4\n        /* \"bloc.sol\":671:700  Users[msg.sender][_taskIndex] */\n      dup2\n      sload\n      dup2\n      lt\n      tag_35\n      jumpi\n      invalid\n    tag_35:\n      swap1\n      0x00\n      mstore\n      keccak256(0x00, 0x20)\n      swap1\n      0x02\n      mul\n      add\n        /* \"bloc.sol\":651:700  Task storage task = Users[msg.sender][_taskIndex] */\n      swap1\n      pop\n        /* \"bloc.sol\":709:713  task */\n      dup1\n        /* \"bloc.sol\":702:713  return task */\n      mload(0x40)\n      dup1\n      0x40\n      add\n      0x40\n      mstore\n      swap1\n      dup2\n      0x00\n      dup3\n      add\n      dup1\n      sload\n      0x01\n      dup2\n      0x01\n      and\n      iszero\n      0x0100\n      mul\n      sub\n      and\n      0x02\n      swap1\n      div\n      dup1\n      0x1f\n      add\n      0x20\n      dup1\n      swap2\n      div\n      mul\n      0x20\n      add\n      mload(0x40)\n      swap1\n      dup2\n      add\n      0x40\n      mstore\n      dup1\n      swap3\n      swap2\n      swap1\n      dup2\n      dup2\n      mstore\n      0x20\n      add\n      dup3\n      dup1\n      sload\n      0x01\n      dup2\n      0x01\n      and\n      iszero\n      0x0100\n      mul\n      sub\n      and\n      0x02\n      swap1\n      div\n      dup1\n      iszero\n      tag_37\n      jumpi\n      dup1\n      0x1f\n      lt\n      tag_38\n      jumpi\n      0x0100\n      dup1\n      dup4\n      sload\n      div\n      mul\n      dup4\n      mstore\n      swap2\n      0x20\n      add\n      swap2\n      jump(tag_37)\n    tag_38:\n      dup3\n      add\n      swap2\n      swap1\n      0x00\n      mstore\n      keccak256(0x00, 0x20)\n      swap1\n    tag_39:\n      dup2\n      sload\n      dup2\n      mstore\n      swap1\n      0x01\n      add\n      swap1\n      0x20\n      add\n      dup1\n      dup4\n      gt\n      tag_39\n      jumpi\n      dup3\n      swap1\n      sub\n      0x1f\n      and\n      dup3\n      add\n      swap2\n    tag_37:\n      pop\n      pop\n      pop\n      pop\n      pop\n      dup2\n      mstore\n      0x20\n      add\n      0x01\n      dup3\n      add\n      0x00\n      swap1\n      sload\n      swap1\n      0x0100\n      exp\n      swap1\n      div\n      0xff\n      and\n      iszero\n      iszero\n      iszero\n      iszero\n      dup2\n      mstore\n      pop\n      pop\n      swap2\n      pop\n      pop\n        /* \"bloc.sol\":579:716  function getTask(uint _taskIndex) external view returns (Task memory)... */\n      swap2\n      swap1\n      pop\n      jump\t// out\n        /* \"bloc.sol\":768:883  function updateStatus(uint256 _taskIndex,bool _status) external... */\n    tag_18:\n        /* \"bloc.sol\":873:880  _status */\n      dup1\n        /* \"bloc.sol\":834:839  Users */\n      0x00\n        /* \"bloc.sol\":834:851  Users[msg.sender] */\n      dup1\n        /* \"bloc.sol\":840:850  msg.sender */\n      caller\n        /* \"bloc.sol\":834:851  Users[msg.sender] */\n      0xffffffffffffffffffffffffffffffffffffffff\n      and\n      0xffffffffffffffffffffffffffffffffffffffff\n      and\n      dup2\n      mstore\n      0x20\n      add\n      swap1\n      dup2\n      mstore\n      0x20\n      add\n      0x00\n      keccak256\n        /* \"bloc.sol\":852:862  _taskIndex */\n      dup4\n        /* \"bloc.sol\":834:863  Users[msg.sender][_taskIndex] */\n      dup2\n      sload\n      dup2\n      lt\n      tag_41\n      jumpi\n      invalid\n    tag_41:\n      swap1\n      0x00\n      mstore\n      keccak256(0x00, 0x20)\n      swap1\n      0x02\n      mul\n      add\n        /* \"bloc.sol\":834:870  Users[msg.sender][_taskIndex].isDone */\n      0x01\n      add\n      0x00\n        /* \"bloc.sol\":834:880  Users[msg.sender][_taskIndex].isDone = _status */\n      0x0100\n      exp\n      dup2\n      sload\n      dup2\n      0xff\n      mul\n      not\n      and\n      swap1\n      dup4\n      iszero\n      iszero\n      mul\n      or\n      swap1\n      sstore\n      pop\n        /* \"bloc.sol\":768:883  function updateStatus(uint256 _taskIndex,bool _status) external... */\n      pop\n      pop\n      jump\t// out\n        /* \"bloc.sol\":925:1016  function deleteTask(uint256 _taskIndex) external... */\n    tag_22:\n        /* \"bloc.sol\":983:988  Users */\n      0x00\n        /* \"bloc.sol\":983:1000  Users[msg.sender] */\n      dup1\n        /* \"bloc.sol\":989:999  msg.sender */\n      caller\n        /* \"bloc.sol\":983:1000  Users[msg.sender] */\n      0xffffffffffffffffffffffffffffffffffffffff\n      and\n      0xffffffffffffffffffffffffffffffffffffffff\n      and\n      dup2\n      mstore\n      0x20\n      add\n      swap1\n      dup2\n      mstore\n      0x20\n      add\n      0x00\n      keccak256\n        /* \"bloc.sol\":1001:1011  _taskIndex */\n      dup2\n        /* \"bloc.sol\":983:1012  Users[msg.sender][_taskIndex] */\n      dup2\n      sload\n      dup2\n      lt\n      tag_44\n      jumpi\n      invalid\n    tag_44:\n      swap1\n      0x00\n      mstore\n      keccak256(0x00, 0x20)\n      swap1\n      0x02\n      mul\n      add\n      0x00\n        /* \"bloc.sol\":976:1012  delete Users[msg.sender][_taskIndex] */\n      dup1\n      dup3\n      add\n      0x00\n      tag_46\n      swap2\n      swap1\n      tag_47\n      jump\t// in\n    tag_46:\n      0x01\n      dup3\n      add\n      exp(0x0100, 0x00)\n      dup2\n      sload\n      swap1\n      0xff\n      mul\n      not\n      and\n      swap1\n      sstore\n      pop\n      pop\n        /* \"bloc.sol\":925:1016  function deleteTask(uint256 _taskIndex) external... */\n      pop\n      jump\t// out\n        /* \"bloc.sol\":265:529  function addTask(string memory _task) public payable... */\n    tag_26:\n        /* \"bloc.sol\":321:326  Users */\n      0x00\n        /* \"bloc.sol\":321:338  Users[msg.sender] */\n      dup1\n        /* \"bloc.sol\":327:337  msg.sender */\n      caller\n        /* \"bloc.sol\":321:338  Users[msg.sender] */\n      0xffffffffffffffffffffffffffffffffffffffff\n      and\n      0xffffffffffffffffffffffffffffffffffffffff\n      and\n      dup2\n      mstore\n      0x20\n      add\n      swap1\n      dup2\n      mstore\n      0x20\n      add\n      0x00\n      keccak256\n        /* \"bloc.sol\":344:384  Task({... */\n      mload(0x40)\n      dup1\n      0x40\n      add\n      0x40\n      mstore\n      dup1\n        /* \"bloc.sol\":358:363  _task */\n      dup4\n        /* \"bloc.sol\":344:384  Task({... */\n      dup2\n      mstore\n      0x20\n      add\n        /* \"bloc.sol\":374:379  false */\n      0x00\n        /* \"bloc.sol\":344:384  Task({... */\n      iszero\n      iszero\n      dup2\n      mstore\n      pop\n        /* \"bloc.sol\":321:385  Users[msg.sender].push(Task({... */\n      swap1\n      dup1\n        /* \"--CODEGEN--\":39:40   */\n      0x01\n        /* \"--CODEGEN--\":33:36   */\n      dup2\n        /* \"--CODEGEN--\":27:37   */\n      sload\n        /* \"--CODEGEN--\":23:41   */\n      add\n        /* \"--CODEGEN--\":57:67   */\n      dup1\n        /* \"--CODEGEN--\":52:55   */\n      dup3\n        /* \"--CODEGEN--\":45:68   */\n      sstore\n        /* \"--CODEGEN--\":79:89   */\n      dup1\n        /* \"--CODEGEN--\":72:89   */\n      swap2\n      pop\n        /* \"--CODEGEN--\":0:93   */\n      pop\n        /* \"bloc.sol\":321:385  Users[msg.sender].push(Task({... */\n      swap1\n      0x01\n      dup3\n      sub\n      swap1\n      0x00\n      mstore\n      keccak256(0x00, 0x20)\n      swap1\n      0x02\n      mul\n      add\n      0x00\n      swap1\n      swap2\n      swap3\n      swap1\n      swap2\n      swap1\n      swap2\n      pop\n      0x00\n      dup3\n      add\n      mload\n      dup2\n      0x00\n      add\n      swap1\n      dup1\n      mload\n      swap1\n      0x20\n      add\n      swap1\n      tag_50\n      swap3\n      swap2\n      swap1\n      tag_51\n      jump\t// in\n    tag_50:\n      pop\n      0x20\n      dup3\n      add\n      mload\n      dup2\n      0x01\n      add\n      exp(0x0100, 0x00)\n      dup2\n      sload\n      dup2\n      0xff\n      mul\n      not\n      and\n      swap1\n      dup4\n      iszero\n      iszero\n      mul\n      or\n      swap1\n      sstore\n      pop\n      pop\n      pop\n      pop\n        /* \"bloc.sol\":410:433  address payable _author */\n      0x00\n        /* \"bloc.sol\":436:446  msg.sender */\n      caller\n        /* \"bloc.sol\":410:446  address payable _author = msg.sender */\n      swap1\n      pop\n        /* \"bloc.sol\":498:505  _author */\n      dup1\n        /* \"bloc.sol\":490:515  address(_author).transfer */\n      0xffffffffffffffffffffffffffffffffffffffff\n      and\n        /* \"bloc.sol\":490:526  address(_author).transfer(msg.value) */\n      0x08fc\n        /* \"bloc.sol\":516:525  msg.value */\n      callvalue\n        /* \"bloc.sol\":490:526  address(_author).transfer(msg.value) */\n      swap1\n      dup2\n      iszero\n      mul\n      swap1\n      mload(0x40)\n      0x00\n      mload(0x40)\n      dup1\n      dup4\n      sub\n      dup2\n      dup6\n      dup9\n      dup9\n      call\n      swap4\n      pop\n      pop\n      pop\n      pop\n      iszero\n        /* \"--CODEGEN--\":8:17   */\n      dup1\n        /* \"--CODEGEN--\":5:7   */\n      iszero\n      tag_52\n      jumpi\n        /* \"--CODEGEN--\":45:61   */\n      returndatasize\n        /* \"--CODEGEN--\":42:43   */\n      0x00\n        /* \"--CODEGEN--\":39:40   */\n      dup1\n        /* \"--CODEGEN--\":24:62   */\n      returndatacopy\n        /* \"--CODEGEN--\":77:93   */\n      returndatasize\n        /* \"--CODEGEN--\":74:75   */\n      0x00\n        /* \"--CODEGEN--\":67:94   */\n      revert\n        /* \"--CODEGEN--\":5:7   */\n    tag_52:\n        /* \"bloc.sol\":490:526  address(_author).transfer(msg.value) */\n      pop\n        /* \"bloc.sol\":265:529  function addTask(string memory _task) public payable... */\n      pop\n      pop\n      jump\t// out\n        /* \"bloc.sol\":1060:1152  function getTaskCount() external view returns (uint256)... */\n    tag_29:\n        /* \"bloc.sol\":1107:1114  uint256 */\n      0x00\n        /* \"bloc.sol\":1125:1130  Users */\n      dup1\n        /* \"bloc.sol\":1125:1142  Users[msg.sender] */\n      0x00\n        /* \"bloc.sol\":1131:1141  msg.sender */\n      caller\n        /* \"bloc.sol\":1125:1142  Users[msg.sender] */\n      0xffffffffffffffffffffffffffffffffffffffff\n      and\n      0xffffffffffffffffffffffffffffffffffffffff\n      and\n      dup2\n      mstore\n      0x20\n      add\n      swap1\n      dup2\n      mstore\n      0x20\n      add\n      0x00\n      keccak256\n        /* \"bloc.sol\":1125:1149  Users[msg.sender].length */\n      dup1\n      sload\n      swap1\n      pop\n        /* \"bloc.sol\":1118:1149  return Users[msg.sender].length */\n      swap1\n      pop\n        /* \"bloc.sol\":1060:1152  function getTaskCount() external view returns (uint256)... */\n      swap1\n      jump\t// out\n        /* \"bloc.sol\":82:1154  contract Bloc{... */\n    tag_33:\n      mload(0x40)\n      dup1\n      0x40\n      add\n      0x40\n      mstore\n      dup1\n      0x60\n      dup2\n      mstore\n      0x20\n      add\n      iszero(iszero(0x00))\n      dup2\n      mstore\n      pop\n      swap1\n      jump\t// out\n    tag_47:\n      pop\n      dup1\n      sload\n      0x01\n      dup2\n      0x01\n      and\n      iszero\n      0x0100\n      mul\n      sub\n      and\n      0x02\n      swap1\n      div\n      0x00\n      dup3\n      sstore\n      dup1\n      0x1f\n      lt\n      tag_55\n      jumpi\n      pop\n      jump(tag_54)\n    tag_55:\n      0x1f\n      add\n      0x20\n      swap1\n      div\n      swap1\n      0x00\n      mstore\n      keccak256(0x00, 0x20)\n      swap1\n      dup2\n      add\n      swap1\n      tag_56\n      swap2\n      swap1\n      tag_57\n      jump\t// in\n    tag_56:\n    tag_54:\n      pop\n      jump\t// out\n    tag_51:\n      dup3\n      dup1\n      sload\n      0x01\n      dup2\n      0x01\n      and\n      iszero\n      0x0100\n      mul\n      sub\n      and\n      0x02\n      swap1\n      div\n      swap1\n      0x00\n      mstore\n      keccak256(0x00, 0x20)\n      swap1\n      0x1f\n      add\n      0x20\n      swap1\n      div\n      dup2\n      add\n      swap3\n      dup3\n      0x1f\n      lt\n      tag_59\n      jumpi\n      dup1\n      mload\n      not(0xff)\n      and\n      dup4\n      dup1\n      add\n      or\n      dup6\n      sstore\n      jump(tag_58)\n    tag_59:\n      dup3\n      dup1\n      add\n      0x01\n      add\n      dup6\n      sstore\n      dup3\n      iszero\n      tag_58\n      jumpi\n      swap2\n      dup3\n      add\n    tag_60:\n      dup3\n      dup2\n      gt\n      iszero\n      tag_61\n      jumpi\n      dup3\n      mload\n      dup3\n      sstore\n      swap2\n      0x20\n      add\n      swap2\n      swap1\n      0x01\n      add\n      swap1\n      jump(tag_60)\n    tag_61:\n    tag_58:\n      pop\n      swap1\n      pop\n      tag_62\n      swap2\n      swap1\n      tag_57\n      jump\t// in\n    tag_62:\n      pop\n      swap1\n      jump\t// out\n    tag_57:\n      tag_63\n      swap2\n      swap1\n    tag_64:\n      dup1\n      dup3\n      gt\n      iszero\n      tag_65\n      jumpi\n      0x00\n      dup2\n      0x00\n      swap1\n      sstore\n      pop\n      0x01\n      add\n      jump(tag_64)\n    tag_65:\n      pop\n      swap1\n      jump\n    tag_63:\n      swap1\n      jump\t// out\n        /* \"--CODEGEN--\":5:129   */\n    tag_67:\n      0x00\n        /* \"--CODEGEN--\":82:88   */\n      dup2\n        /* \"--CODEGEN--\":69:89   */\n      calldataload\n        /* \"--CODEGEN--\":60:89   */\n      swap1\n      pop\n        /* \"--CODEGEN--\":94:124   */\n      tag_68\n        /* \"--CODEGEN--\":118:123   */\n      dup2\n        /* \"--CODEGEN--\":94:124   */\n      jump(tag_69)\n    tag_68:\n        /* \"--CODEGEN--\":54:129   */\n      swap3\n      swap2\n      pop\n      pop\n      jump\n        /* \"--CODEGEN--\":137:579   */\n    tag_70:\n      0x00\n        /* \"--CODEGEN--\":239:242   */\n      dup3\n        /* \"--CODEGEN--\":232:236   */\n      0x1f\n        /* \"--CODEGEN--\":224:230   */\n      dup4\n        /* \"--CODEGEN--\":220:237   */\n      add\n        /* \"--CODEGEN--\":216:243   */\n      slt\n        /* \"--CODEGEN--\":206:208   */\n      tag_71\n      jumpi\n        /* \"--CODEGEN--\":257:258   */\n      0x00\n        /* \"--CODEGEN--\":254:255   */\n      dup1\n        /* \"--CODEGEN--\":247:259   */\n      revert\n        /* \"--CODEGEN--\":206:208   */\n    tag_71:\n        /* \"--CODEGEN--\":294:300   */\n      dup2\n        /* \"--CODEGEN--\":281:301   */\n      calldataload\n        /* \"--CODEGEN--\":316:381   */\n      tag_72\n        /* \"--CODEGEN--\":331:380   */\n      tag_73\n        /* \"--CODEGEN--\":373:379   */\n      dup3\n        /* \"--CODEGEN--\":331:380   */\n      jump(tag_74)\n    tag_73:\n        /* \"--CODEGEN--\":316:381   */\n      jump(tag_75)\n    tag_72:\n        /* \"--CODEGEN--\":307:381   */\n      swap2\n      pop\n        /* \"--CODEGEN--\":401:407   */\n      dup1\n        /* \"--CODEGEN--\":394:399   */\n      dup3\n        /* \"--CODEGEN--\":387:408   */\n      mstore\n        /* \"--CODEGEN--\":437:441   */\n      0x20\n        /* \"--CODEGEN--\":429:435   */\n      dup4\n        /* \"--CODEGEN--\":425:442   */\n      add\n        /* \"--CODEGEN--\":470:474   */\n      0x20\n        /* \"--CODEGEN--\":463:468   */\n      dup4\n        /* \"--CODEGEN--\":459:475   */\n      add\n        /* \"--CODEGEN--\":505:508   */\n      dup6\n        /* \"--CODEGEN--\":496:502   */\n      dup4\n        /* \"--CODEGEN--\":491:494   */\n      dup4\n        /* \"--CODEGEN--\":487:503   */\n      add\n        /* \"--CODEGEN--\":484:509   */\n      gt\n        /* \"--CODEGEN--\":481:483   */\n      iszero\n      tag_76\n      jumpi\n        /* \"--CODEGEN--\":522:523   */\n      0x00\n        /* \"--CODEGEN--\":519:520   */\n      dup1\n        /* \"--CODEGEN--\":512:524   */\n      revert\n        /* \"--CODEGEN--\":481:483   */\n    tag_76:\n        /* \"--CODEGEN--\":532:573   */\n      tag_77\n        /* \"--CODEGEN--\":566:572   */\n      dup4\n        /* \"--CODEGEN--\":561:564   */\n      dup3\n        /* \"--CODEGEN--\":556:559   */\n      dup5\n        /* \"--CODEGEN--\":532:573   */\n      jump(tag_78)\n    tag_77:\n        /* \"--CODEGEN--\":199:579   */\n      pop\n      pop\n      pop\n      swap3\n      swap2\n      pop\n      pop\n      jump\n        /* \"--CODEGEN--\":587:717   */\n    tag_79:\n      0x00\n        /* \"--CODEGEN--\":667:673   */\n      dup2\n        /* \"--CODEGEN--\":654:674   */\n      calldataload\n        /* \"--CODEGEN--\":645:674   */\n      swap1\n      pop\n        /* \"--CODEGEN--\":679:712   */\n      tag_80\n        /* \"--CODEGEN--\":706:711   */\n      dup2\n        /* \"--CODEGEN--\":679:712   */\n      jump(tag_81)\n    tag_80:\n        /* \"--CODEGEN--\":639:717   */\n      swap3\n      swap2\n      pop\n      pop\n      jump\n        /* \"--CODEGEN--\":724:1071   */\n    tag_25:\n      0x00\n        /* \"--CODEGEN--\":838:840   */\n      0x20\n        /* \"--CODEGEN--\":826:835   */\n      dup3\n        /* \"--CODEGEN--\":817:824   */\n      dup5\n        /* \"--CODEGEN--\":813:836   */\n      sub\n        /* \"--CODEGEN--\":809:841   */\n      slt\n        /* \"--CODEGEN--\":806:808   */\n      iszero\n      tag_82\n      jumpi\n        /* \"--CODEGEN--\":854:855   */\n      0x00\n        /* \"--CODEGEN--\":851:852   */\n      dup1\n        /* \"--CODEGEN--\":844:856   */\n      revert\n        /* \"--CODEGEN--\":806:808   */\n    tag_82:\n        /* \"--CODEGEN--\":917:918   */\n      0x00\n        /* \"--CODEGEN--\":906:915   */\n      dup3\n        /* \"--CODEGEN--\":902:919   */\n      add\n        /* \"--CODEGEN--\":889:920   */\n      calldataload\n        /* \"--CODEGEN--\":940:958   */\n      0xffffffffffffffff\n        /* \"--CODEGEN--\":932:938   */\n      dup2\n        /* \"--CODEGEN--\":929:959   */\n      gt\n        /* \"--CODEGEN--\":926:928   */\n      iszero\n      tag_83\n      jumpi\n        /* \"--CODEGEN--\":972:973   */\n      0x00\n        /* \"--CODEGEN--\":969:970   */\n      dup1\n        /* \"--CODEGEN--\":962:974   */\n      revert\n        /* \"--CODEGEN--\":926:928   */\n    tag_83:\n        /* \"--CODEGEN--\":992:1055   */\n      tag_84\n        /* \"--CODEGEN--\":1047:1054   */\n      dup5\n        /* \"--CODEGEN--\":1038:1044   */\n      dup3\n        /* \"--CODEGEN--\":1027:1036   */\n      dup6\n        /* \"--CODEGEN--\":1023:1045   */\n      add\n        /* \"--CODEGEN--\":992:1055   */\n      jump(tag_70)\n    tag_84:\n        /* \"--CODEGEN--\":982:1055   */\n      swap2\n      pop\n        /* \"--CODEGEN--\":868:1061   */\n      pop\n        /* \"--CODEGEN--\":800:1071   */\n      swap3\n      swap2\n      pop\n      pop\n      jump\n        /* \"--CODEGEN--\":1078:1319   */\n    tag_10:\n      0x00\n        /* \"--CODEGEN--\":1182:1184   */\n      0x20\n        /* \"--CODEGEN--\":1170:1179   */\n      dup3\n        /* \"--CODEGEN--\":1161:1168   */\n      dup5\n        /* \"--CODEGEN--\":1157:1180   */\n      sub\n        /* \"--CODEGEN--\":1153:1185   */\n      slt\n        /* \"--CODEGEN--\":1150:1152   */\n      iszero\n      tag_85\n      jumpi\n        /* \"--CODEGEN--\":1198:1199   */\n      0x00\n        /* \"--CODEGEN--\":1195:1196   */\n      dup1\n        /* \"--CODEGEN--\":1188:1200   */\n      revert\n        /* \"--CODEGEN--\":1150:1152   */\n    tag_85:\n        /* \"--CODEGEN--\":1233:1234   */\n      0x00\n        /* \"--CODEGEN--\":1250:1303   */\n      tag_86\n        /* \"--CODEGEN--\":1295:1302   */\n      dup5\n        /* \"--CODEGEN--\":1286:1292   */\n      dup3\n        /* \"--CODEGEN--\":1275:1284   */\n      dup6\n        /* \"--CODEGEN--\":1271:1293   */\n      add\n        /* \"--CODEGEN--\":1250:1303   */\n      jump(tag_79)\n    tag_86:\n        /* \"--CODEGEN--\":1240:1303   */\n      swap2\n      pop\n        /* \"--CODEGEN--\":1212:1309   */\n      pop\n        /* \"--CODEGEN--\":1144:1319   */\n      swap3\n      swap2\n      pop\n      pop\n      jump\n        /* \"--CODEGEN--\":1326:1686   */\n    tag_17:\n      0x00\n      dup1\n        /* \"--CODEGEN--\":1444:1446   */\n      0x40\n        /* \"--CODEGEN--\":1432:1441   */\n      dup4\n        /* \"--CODEGEN--\":1423:1430   */\n      dup6\n        /* \"--CODEGEN--\":1419:1442   */\n      sub\n        /* \"--CODEGEN--\":1415:1447   */\n      slt\n        /* \"--CODEGEN--\":1412:1414   */\n      iszero\n      tag_87\n      jumpi\n        /* \"--CODEGEN--\":1460:1461   */\n      0x00\n        /* \"--CODEGEN--\":1457:1458   */\n      dup1\n        /* \"--CODEGEN--\":1450:1462   */\n      revert\n        /* \"--CODEGEN--\":1412:1414   */\n    tag_87:\n        /* \"--CODEGEN--\":1495:1496   */\n      0x00\n        /* \"--CODEGEN--\":1512:1565   */\n      tag_88\n        /* \"--CODEGEN--\":1557:1564   */\n      dup6\n        /* \"--CODEGEN--\":1548:1554   */\n      dup3\n        /* \"--CODEGEN--\":1537:1546   */\n      dup7\n        /* \"--CODEGEN--\":1533:1555   */\n      add\n        /* \"--CODEGEN--\":1512:1565   */\n      jump(tag_79)\n    tag_88:\n        /* \"--CODEGEN--\":1502:1565   */\n      swap3\n      pop\n        /* \"--CODEGEN--\":1474:1571   */\n      pop\n        /* \"--CODEGEN--\":1602:1604   */\n      0x20\n        /* \"--CODEGEN--\":1620:1670   */\n      tag_89\n        /* \"--CODEGEN--\":1662:1669   */\n      dup6\n        /* \"--CODEGEN--\":1653:1659   */\n      dup3\n        /* \"--CODEGEN--\":1642:1651   */\n      dup7\n        /* \"--CODEGEN--\":1638:1660   */\n      add\n        /* \"--CODEGEN--\":1620:1670   */\n      jump(tag_67)\n    tag_89:\n        /* \"--CODEGEN--\":1610:1670   */\n      swap2\n      pop\n        /* \"--CODEGEN--\":1581:1676   */\n      pop\n        /* \"--CODEGEN--\":1406:1686   */\n      swap3\n      pop\n      swap3\n      swap1\n      pop\n      jump\n        /* \"--CODEGEN--\":1693:1787   */\n    tag_90:\n        /* \"--CODEGEN--\":1760:1781   */\n      tag_91\n        /* \"--CODEGEN--\":1775:1780   */\n      dup2\n        /* \"--CODEGEN--\":1760:1781   */\n      jump(tag_92)\n    tag_91:\n        /* \"--CODEGEN--\":1755:1758   */\n      dup3\n        /* \"--CODEGEN--\":1748:1782   */\n      mstore\n        /* \"--CODEGEN--\":1742:1787   */\n      pop\n      pop\n      jump\n        /* \"--CODEGEN--\":1794:2113   */\n    tag_93:\n      0x00\n        /* \"--CODEGEN--\":1892:1927   */\n      tag_94\n        /* \"--CODEGEN--\":1921:1926   */\n      dup3\n        /* \"--CODEGEN--\":1892:1927   */\n      jump(tag_95)\n    tag_94:\n        /* \"--CODEGEN--\":1939:2000   */\n      tag_96\n        /* \"--CODEGEN--\":1993:1999   */\n      dup2\n        /* \"--CODEGEN--\":1988:1991   */\n      dup6\n        /* \"--CODEGEN--\":1939:2000   */\n      jump(tag_97)\n    tag_96:\n        /* \"--CODEGEN--\":1932:2000   */\n      swap4\n      pop\n        /* \"--CODEGEN--\":2005:2057   */\n      tag_98\n        /* \"--CODEGEN--\":2050:2056   */\n      dup2\n        /* \"--CODEGEN--\":2045:2048   */\n      dup6\n        /* \"--CODEGEN--\":2038:2042   */\n      0x20\n        /* \"--CODEGEN--\":2031:2036   */\n      dup7\n        /* \"--CODEGEN--\":2027:2043   */\n      add\n        /* \"--CODEGEN--\":2005:2057   */\n      jump(tag_99)\n    tag_98:\n        /* \"--CODEGEN--\":2078:2107   */\n      tag_100\n        /* \"--CODEGEN--\":2100:2106   */\n      dup2\n        /* \"--CODEGEN--\":2078:2107   */\n      jump(tag_101)\n    tag_100:\n        /* \"--CODEGEN--\":2073:2076   */\n      dup5\n        /* \"--CODEGEN--\":2069:2108   */\n      add\n        /* \"--CODEGEN--\":2062:2108   */\n      swap2\n      pop\n        /* \"--CODEGEN--\":1872:2113   */\n      pop\n      swap3\n      swap2\n      pop\n      pop\n      jump\n        /* \"--CODEGEN--\":2163:2714   */\n    tag_102:\n      0x00\n        /* \"--CODEGEN--\":2302:2306   */\n      0x40\n        /* \"--CODEGEN--\":2297:2300   */\n      dup4\n        /* \"--CODEGEN--\":2293:2307   */\n      add\n        /* \"--CODEGEN--\":2385:2389   */\n      0x00\n        /* \"--CODEGEN--\":2378:2383   */\n      dup4\n        /* \"--CODEGEN--\":2374:2390   */\n      add\n        /* \"--CODEGEN--\":2368:2391   */\n      mload\n        /* \"--CODEGEN--\":2437:2440   */\n      dup5\n        /* \"--CODEGEN--\":2431:2435   */\n      dup3\n        /* \"--CODEGEN--\":2427:2441   */\n      sub\n        /* \"--CODEGEN--\":2420:2424   */\n      0x00\n        /* \"--CODEGEN--\":2415:2418   */\n      dup7\n        /* \"--CODEGEN--\":2411:2425   */\n      add\n        /* \"--CODEGEN--\":2404:2442   */\n      mstore\n        /* \"--CODEGEN--\":2457:2526   */\n      tag_103\n        /* \"--CODEGEN--\":2521:2525   */\n      dup3\n        /* \"--CODEGEN--\":2507:2519   */\n      dup3\n        /* \"--CODEGEN--\":2457:2526   */\n      jump(tag_93)\n    tag_103:\n        /* \"--CODEGEN--\":2449:2526   */\n      swap2\n      pop\n        /* \"--CODEGEN--\":2322:2538   */\n      pop\n        /* \"--CODEGEN--\":2613:2617   */\n      0x20\n        /* \"--CODEGEN--\":2606:2611   */\n      dup4\n        /* \"--CODEGEN--\":2602:2618   */\n      add\n        /* \"--CODEGEN--\":2596:2619   */\n      mload\n        /* \"--CODEGEN--\":2625:2682   */\n      tag_104\n        /* \"--CODEGEN--\":2676:2680   */\n      0x20\n        /* \"--CODEGEN--\":2671:2674   */\n      dup7\n        /* \"--CODEGEN--\":2667:2681   */\n      add\n        /* \"--CODEGEN--\":2653:2665   */\n      dup3\n        /* \"--CODEGEN--\":2625:2682   */\n      jump(tag_90)\n    tag_104:\n        /* \"--CODEGEN--\":2548:2688   */\n      pop\n        /* \"--CODEGEN--\":2705:2709   */\n      dup1\n        /* \"--CODEGEN--\":2698:2709   */\n      swap2\n      pop\n        /* \"--CODEGEN--\":2275:2714   */\n      pop\n      swap3\n      swap2\n      pop\n      pop\n      jump\n        /* \"--CODEGEN--\":2721:2834   */\n    tag_105:\n        /* \"--CODEGEN--\":2804:2828   */\n      tag_106\n        /* \"--CODEGEN--\":2822:2827   */\n      dup2\n        /* \"--CODEGEN--\":2804:2828   */\n      jump(tag_107)\n    tag_106:\n        /* \"--CODEGEN--\":2799:2802   */\n      dup3\n        /* \"--CODEGEN--\":2792:2829   */\n      mstore\n        /* \"--CODEGEN--\":2786:2834   */\n      pop\n      pop\n      jump\n        /* \"--CODEGEN--\":2841:3178   */\n    tag_13:\n      0x00\n        /* \"--CODEGEN--\":2997:2999   */\n      0x20\n        /* \"--CODEGEN--\":2986:2995   */\n      dup3\n        /* \"--CODEGEN--\":2982:3000   */\n      add\n        /* \"--CODEGEN--\":2974:3000   */\n      swap1\n      pop\n        /* \"--CODEGEN--\":3047:3056   */\n      dup2\n        /* \"--CODEGEN--\":3041:3045   */\n      dup2\n        /* \"--CODEGEN--\":3037:3057   */\n      sub\n        /* \"--CODEGEN--\":3033:3034   */\n      0x00\n        /* \"--CODEGEN--\":3022:3031   */\n      dup4\n        /* \"--CODEGEN--\":3018:3035   */\n      add\n        /* \"--CODEGEN--\":3011:3058   */\n      mstore\n        /* \"--CODEGEN--\":3072:3168   */\n      tag_108\n        /* \"--CODEGEN--\":3163:3167   */\n      dup2\n        /* \"--CODEGEN--\":3154:3160   */\n      dup5\n        /* \"--CODEGEN--\":3072:3168   */\n      jump(tag_102)\n    tag_108:\n        /* \"--CODEGEN--\":3064:3168   */\n      swap1\n      pop\n        /* \"--CODEGEN--\":2968:3178   */\n      swap3\n      swap2\n      pop\n      pop\n      jump\n        /* \"--CODEGEN--\":3185:3398   */\n    tag_31:\n      0x00\n        /* \"--CODEGEN--\":3303:3305   */\n      0x20\n        /* \"--CODEGEN--\":3292:3301   */\n      dup3\n        /* \"--CODEGEN--\":3288:3306   */\n      add\n        /* \"--CODEGEN--\":3280:3306   */\n      swap1\n      pop\n        /* \"--CODEGEN--\":3317:3388   */\n      tag_109\n        /* \"--CODEGEN--\":3385:3386   */\n      0x00\n        /* \"--CODEGEN--\":3374:3383   */\n      dup4\n        /* \"--CODEGEN--\":3370:3387   */\n      add\n        /* \"--CODEGEN--\":3361:3367   */\n      dup5\n        /* \"--CODEGEN--\":3317:3388   */\n      jump(tag_105)\n    tag_109:\n        /* \"--CODEGEN--\":3274:3398   */\n      swap3\n      swap2\n      pop\n      pop\n      jump\n        /* \"--CODEGEN--\":3405:3661   */\n    tag_75:\n      0x00\n        /* \"--CODEGEN--\":3467:3469   */\n      0x40\n        /* \"--CODEGEN--\":3461:3470   */\n      mload\n        /* \"--CODEGEN--\":3451:3470   */\n      swap1\n      pop\n        /* \"--CODEGEN--\":3505:3509   */\n      dup2\n        /* \"--CODEGEN--\":3497:3503   */\n      dup2\n        /* \"--CODEGEN--\":3493:3510   */\n      add\n        /* \"--CODEGEN--\":3604:3610   */\n      dup2\n        /* \"--CODEGEN--\":3592:3602   */\n      dup2\n        /* \"--CODEGEN--\":3589:3611   */\n      lt\n        /* \"--CODEGEN--\":3568:3586   */\n      0xffffffffffffffff\n        /* \"--CODEGEN--\":3556:3566   */\n      dup3\n        /* \"--CODEGEN--\":3553:3587   */\n      gt\n        /* \"--CODEGEN--\":3550:3612   */\n      or\n        /* \"--CODEGEN--\":3547:3549   */\n      iszero\n      tag_110\n      jumpi\n        /* \"--CODEGEN--\":3625:3626   */\n      0x00\n        /* \"--CODEGEN--\":3622:3623   */\n      dup1\n        /* \"--CODEGEN--\":3615:3627   */\n      revert\n        /* \"--CODEGEN--\":3547:3549   */\n    tag_110:\n        /* \"--CODEGEN--\":3645:3655   */\n      dup1\n        /* \"--CODEGEN--\":3641:3643   */\n      0x40\n        /* \"--CODEGEN--\":3634:3656   */\n      mstore\n        /* \"--CODEGEN--\":3445:3661   */\n      pop\n      swap2\n      swap1\n      pop\n      jump\n        /* \"--CODEGEN--\":3668:3990   */\n    tag_74:\n      0x00\n        /* \"--CODEGEN--\":3812:3830   */\n      0xffffffffffffffff\n        /* \"--CODEGEN--\":3804:3810   */\n      dup3\n        /* \"--CODEGEN--\":3801:3831   */\n      gt\n        /* \"--CODEGEN--\":3798:3800   */\n      iszero\n      tag_111\n      jumpi\n        /* \"--CODEGEN--\":3844:3845   */\n      0x00\n        /* \"--CODEGEN--\":3841:3842   */\n      dup1\n        /* \"--CODEGEN--\":3834:3846   */\n      revert\n        /* \"--CODEGEN--\":3798:3800   */\n    tag_111:\n        /* \"--CODEGEN--\":3911:3915   */\n      0x1f\n        /* \"--CODEGEN--\":3907:3916   */\n      not\n        /* \"--CODEGEN--\":3900:3904   */\n      0x1f\n        /* \"--CODEGEN--\":3892:3898   */\n      dup4\n        /* \"--CODEGEN--\":3888:3905   */\n      add\n        /* \"--CODEGEN--\":3884:3917   */\n      and\n        /* \"--CODEGEN--\":3876:3917   */\n      swap1\n      pop\n        /* \"--CODEGEN--\":3975:3979   */\n      0x20\n        /* \"--CODEGEN--\":3969:3973   */\n      dup2\n        /* \"--CODEGEN--\":3965:3980   */\n      add\n        /* \"--CODEGEN--\":3957:3980   */\n      swap1\n      pop\n        /* \"--CODEGEN--\":3735:3990   */\n      swap2\n      swap1\n      pop\n      jump\n        /* \"--CODEGEN--\":3997:4115   */\n    tag_95:\n      0x00\n        /* \"--CODEGEN--\":4087:4092   */\n      dup2\n        /* \"--CODEGEN--\":4081:4093   */\n      mload\n        /* \"--CODEGEN--\":4071:4093   */\n      swap1\n      pop\n        /* \"--CODEGEN--\":4052:4115   */\n      swap2\n      swap1\n      pop\n      jump\n        /* \"--CODEGEN--\":4123:4276   */\n    tag_97:\n      0x00\n        /* \"--CODEGEN--\":4228:4234   */\n      dup3\n        /* \"--CODEGEN--\":4223:4226   */\n      dup3\n        /* \"--CODEGEN--\":4216:4235   */\n      mstore\n        /* \"--CODEGEN--\":4265:4269   */\n      0x20\n        /* \"--CODEGEN--\":4260:4263   */\n      dup3\n        /* \"--CODEGEN--\":4256:4270   */\n      add\n        /* \"--CODEGEN--\":4241:4270   */\n      swap1\n      pop\n        /* \"--CODEGEN--\":4209:4276   */\n      swap3\n      swap2\n      pop\n      pop\n      jump\n        /* \"--CODEGEN--\":4284:4369   */\n    tag_92:\n      0x00\n        /* \"--CODEGEN--\":4357:4362   */\n      dup2\n        /* \"--CODEGEN--\":4350:4363   */\n      iszero\n        /* \"--CODEGEN--\":4343:4364   */\n      iszero\n        /* \"--CODEGEN--\":4332:4364   */\n      swap1\n      pop\n        /* \"--CODEGEN--\":4326:4369   */\n      swap2\n      swap1\n      pop\n      jump\n        /* \"--CODEGEN--\":4376:4448   */\n    tag_107:\n      0x00\n        /* \"--CODEGEN--\":4438:4443   */\n      dup2\n        /* \"--CODEGEN--\":4427:4443   */\n      swap1\n      pop\n        /* \"--CODEGEN--\":4421:4448   */\n      swap2\n      swap1\n      pop\n      jump\n        /* \"--CODEGEN--\":4456:4601   */\n    tag_78:\n        /* \"--CODEGEN--\":4537:4543   */\n      dup3\n        /* \"--CODEGEN--\":4532:4535   */\n      dup2\n        /* \"--CODEGEN--\":4527:4530   */\n      dup4\n        /* \"--CODEGEN--\":4514:4544   */\n      calldatacopy\n        /* \"--CODEGEN--\":4593:4594   */\n      0x00\n        /* \"--CODEGEN--\":4584:4590   */\n      dup4\n        /* \"--CODEGEN--\":4579:4582   */\n      dup4\n        /* \"--CODEGEN--\":4575:4591   */\n      add\n        /* \"--CODEGEN--\":4568:4595   */\n      mstore\n        /* \"--CODEGEN--\":4507:4601   */\n      pop\n      pop\n      pop\n      jump\n        /* \"--CODEGEN--\":4610:4878   */\n    tag_99:\n        /* \"--CODEGEN--\":4675:4676   */\n      0x00\n        /* \"--CODEGEN--\":4682:4783   */\n    tag_112:\n        /* \"--CODEGEN--\":4696:4702   */\n      dup4\n        /* \"--CODEGEN--\":4693:4694   */\n      dup2\n        /* \"--CODEGEN--\":4690:4703   */\n      lt\n        /* \"--CODEGEN--\":4682:4783   */\n      iszero\n      tag_114\n      jumpi\n        /* \"--CODEGEN--\":4772:4773   */\n      dup1\n        /* \"--CODEGEN--\":4767:4770   */\n      dup3\n        /* \"--CODEGEN--\":4763:4774   */\n      add\n        /* \"--CODEGEN--\":4757:4775   */\n      mload\n        /* \"--CODEGEN--\":4753:4754   */\n      dup2\n        /* \"--CODEGEN--\":4748:4751   */\n      dup5\n        /* \"--CODEGEN--\":4744:4755   */\n      add\n        /* \"--CODEGEN--\":4737:4776   */\n      mstore\n        /* \"--CODEGEN--\":4718:4720   */\n      0x20\n        /* \"--CODEGEN--\":4715:4716   */\n      dup2\n        /* \"--CODEGEN--\":4711:4721   */\n      add\n        /* \"--CODEGEN--\":4706:4721   */\n      swap1\n      pop\n        /* \"--CODEGEN--\":4682:4783   */\n      jump(tag_112)\n    tag_114:\n        /* \"--CODEGEN--\":4798:4804   */\n      dup4\n        /* \"--CODEGEN--\":4795:4796   */\n      dup2\n        /* \"--CODEGEN--\":4792:4805   */\n      gt\n        /* \"--CODEGEN--\":4789:4791   */\n      iszero\n      tag_115\n      jumpi\n        /* \"--CODEGEN--\":4863:4864   */\n      0x00\n        /* \"--CODEGEN--\":4854:4860   */\n      dup5\n        /* \"--CODEGEN--\":4849:4852   */\n      dup5\n        /* \"--CODEGEN--\":4845:4861   */\n      add\n        /* \"--CODEGEN--\":4838:4865   */\n      mstore\n        /* \"--CODEGEN--\":4789:4791   */\n    tag_115:\n        /* \"--CODEGEN--\":4659:4878   */\n      pop\n      pop\n      pop\n      pop\n      jump\n        /* \"--CODEGEN--\":4886:4983   */\n    tag_101:\n      0x00\n        /* \"--CODEGEN--\":4974:4976   */\n      0x1f\n        /* \"--CODEGEN--\":4970:4977   */\n      not\n        /* \"--CODEGEN--\":4965:4967   */\n      0x1f\n        /* \"--CODEGEN--\":4958:4963   */\n      dup4\n        /* \"--CODEGEN--\":4954:4968   */\n      add\n        /* \"--CODEGEN--\":4950:4978   */\n      and\n        /* \"--CODEGEN--\":4940:4978   */\n      swap1\n      pop\n        /* \"--CODEGEN--\":4934:4983   */\n      swap2\n      swap1\n      pop\n      jump\n        /* \"--CODEGEN--\":4991:5102   */\n    tag_69:\n        /* \"--CODEGEN--\":5057:5078   */\n      tag_116\n        /* \"--CODEGEN--\":5072:5077   */\n      dup2\n        /* \"--CODEGEN--\":5057:5078   */\n      jump(tag_92)\n    tag_116:\n        /* \"--CODEGEN--\":5050:5055   */\n      dup2\n        /* \"--CODEGEN--\":5047:5079   */\n      eq\n        /* \"--CODEGEN--\":5037:5039   */\n      tag_117\n      jumpi\n        /* \"--CODEGEN--\":5093:5094   */\n      0x00\n        /* \"--CODEGEN--\":5090:5091   */\n      dup1\n        /* \"--CODEGEN--\":5083:5095   */\n      revert\n        /* \"--CODEGEN--\":5037:5039   */\n    tag_117:\n        /* \"--CODEGEN--\":5031:5102   */\n      pop\n      jump\n        /* \"--CODEGEN--\":5109:5226   */\n    tag_81:\n        /* \"--CODEGEN--\":5178:5202   */\n      tag_118\n        /* \"--CODEGEN--\":5196:5201   */\n      dup2\n        /* \"--CODEGEN--\":5178:5202   */\n      jump(tag_107)\n    tag_118:\n        /* \"--CODEGEN--\":5171:5176   */\n      dup2\n        /* \"--CODEGEN--\":5168:5203   */\n      eq\n        /* \"--CODEGEN--\":5158:5160   */\n      tag_119\n      jumpi\n        /* \"--CODEGEN--\":5217:5218   */\n      0x00\n        /* \"--CODEGEN--\":5214:5215   */\n      dup1\n        /* \"--CODEGEN--\":5207:5219   */\n      revert\n        /* \"--CODEGEN--\":5158:5160   */\n    tag_119:\n        /* \"--CODEGEN--\":5152:5226   */\n      pop\n      jump\n\n    auxdata: 0xa365627a7a723158209f9ba8c427f542bff66bad7e5626a4cad8d245506d7cbb253104dc11d0d3d3f16c6578706572696d656e74616cf564736f6c63430005110040\n}\n",
				"bytecode": {
					"linkReferences": {},
					"object": "608060405234801561001057600080fd5b506108f7806100206000396000f3fe60806040526004361061004a5760003560e01c80631d65e77e1461004f578063387008c21461008c578063560f3192146100b557806367238562146100de578063c17a340e146100fa575b600080fd5b34801561005b57600080fd5b5061007660048036036100719190810190610672565b610125565b604051610083919061076b565b60405180910390f35b34801561009857600080fd5b506100b360048036036100ae919081019061069b565b610259565b005b3480156100c157600080fd5b506100dc60048036036100d79190810190610672565b6102cf565b005b6100f860048036036100f39190810190610631565b610350565b005b34801561010657600080fd5b5061010f610461565b60405161011c919061078d565b60405180910390f35b61012d6104aa565b60008060003373ffffffffffffffffffffffffffffffffffffffff1673ffffffffffffffffffffffffffffffffffffffff168152602001908152602001600020838154811061017857fe5b9060005260206000209060020201905080604051806040016040529081600082018054600181600116156101000203166002900480601f01602080910402602001604051908101604052809291908181526020018280546001816001161561010002031660029004801561022d5780601f106102025761010080835404028352916020019161022d565b820191906000526020600020905b81548152906001019060200180831161021057829003601f168201915b505050505081526020016001820160009054906101000a900460ff161515151581525050915050919050565b806000803373ffffffffffffffffffffffffffffffffffffffff1673ffffffffffffffffffffffffffffffffffffffff16815260200190815260200160002083815481106102a357fe5b906000526020600020906002020160010160006101000a81548160ff0219169083151502179055505050565b6000803373ffffffffffffffffffffffffffffffffffffffff1673ffffffffffffffffffffffffffffffffffffffff168152602001908152602001600020818154811061031857fe5b90600052602060002090600202016000808201600061033791906104c6565b6001820160006101000a81549060ff0219169055505050565b6000803373ffffffffffffffffffffffffffffffffffffffff1673ffffffffffffffffffffffffffffffffffffffff1681526020019081526020016000206040518060400160405280838152602001600015158152509080600181540180825580915050906001820390600052602060002090600202016000909192909190915060008201518160000190805190602001906103ed92919061050e565b5060208201518160010160006101000a81548160ff02191690831515021790555050505060003390508073ffffffffffffffffffffffffffffffffffffffff166108fc349081150290604051600060405180830381858888f1935050505015801561045c573d6000803e3d6000fd5b505050565b60008060003373ffffffffffffffffffffffffffffffffffffffff1673ffffffffffffffffffffffffffffffffffffffff16815260200190815260200160002080549050905090565b6040518060400160405280606081526020016000151581525090565b50805460018160011615610100020316600290046000825580601f106104ec575061050b565b601f01602090049060005260206000209081019061050a919061058e565b5b50565b828054600181600116156101000203166002900490600052602060002090601f016020900481019282601f1061054f57805160ff191683800117855561057d565b8280016001018555821561057d579182015b8281111561057c578251825591602001919060010190610561565b5b50905061058a919061058e565b5090565b6105b091905b808211156105ac576000816000905550600101610594565b5090565b90565b6000813590506105c281610886565b92915050565b600082601f8301126105d957600080fd5b81356105ec6105e7826107d5565b6107a8565b9150808252602083016020830185838301111561060857600080fd5b610613838284610833565b50505092915050565b60008135905061062b8161089d565b92915050565b60006020828403121561064357600080fd5b600082013567ffffffffffffffff81111561065d57600080fd5b610669848285016105c8565b91505092915050565b60006020828403121561068457600080fd5b60006106928482850161061c565b91505092915050565b600080604083850312156106ae57600080fd5b60006106bc8582860161061c565b92505060206106cd858286016105b3565b9150509250929050565b6106e08161081d565b82525050565b60006106f182610801565b6106fb818561080c565b935061070b818560208601610842565b61071481610875565b840191505092915050565b6000604083016000830151848203600086015261073c82826106e6565b915050602083015161075160208601826106d7565b508091505092915050565b61076581610829565b82525050565b60006020820190508181036000830152610785818461071f565b905092915050565b60006020820190506107a2600083018461075c565b92915050565b6000604051905081810181811067ffffffffffffffff821117156107cb57600080fd5b8060405250919050565b600067ffffffffffffffff8211156107ec57600080fd5b601f19601f8301169050602081019050919050565b600081519050919050565b600082825260208201905092915050565b60008115159050919050565b6000819050919050565b82818337600083830152505050565b60005b83811015610860578082015181840152602081019050610845565b8381111561086f576000848401525b50505050565b6000601f19601f8301169050919050565b61088f8161081d565b811461089a57600080fd5b50565b6108a681610829565b81146108b157600080fd5b5056fea365627a7a723158209f9ba8c427f542bff66bad7e5626a4cad8d245506d7cbb253104dc11d0d3d3f16c6578706572696d656e74616cf564736f6c63430005110040",
					"opcodes": "PUSH1 0x80 PUSH1 0x40 MSTORE CALLVALUE DUP1 ISZERO PUSH2 0x10 JUMPI PUSH1 0x0 DUP1 REVERT JUMPDEST POP PUSH2 0x8F7 DUP1 PUSH2 0x20 PUSH1 0x0 CODECOPY PUSH1 0x0 RETURN INVALID PUSH1 0x80 PUSH1 0x40 MSTORE PUSH1 0x4 CALLDATASIZE LT PUSH2 0x4A JUMPI PUSH1 0x0 CALLDATALOAD PUSH1 0xE0 SHR DUP1 PUSH4 0x1D65E77E EQ PUSH2 0x4F JUMPI DUP1 PUSH4 0x387008C2 EQ PUSH2 0x8C JUMPI DUP1 PUSH4 0x560F3192 EQ PUSH2 0xB5 JUMPI DUP1 PUSH4 0x67238562 EQ PUSH2 0xDE JUMPI DUP1 PUSH4 0xC17A340E EQ PUSH2 0xFA JUMPI JUMPDEST PUSH1 0x0 DUP1 REVERT JUMPDEST CALLVALUE DUP1 ISZERO PUSH2 0x5B JUMPI PUSH1 0x0 DUP1 REVERT JUMPDEST POP PUSH2 0x76 PUSH1 0x4 DUP1 CALLDATASIZE SUB PUSH2 0x71 SWAP2 SWAP1 DUP2 ADD SWAP1 PUSH2 0x672 JUMP JUMPDEST PUSH2 0x125 JUMP JUMPDEST PUSH1 0x40 MLOAD PUSH2 0x83 SWAP2 SWAP1 PUSH2 0x76B JUMP JUMPDEST PUSH1 0x40 MLOAD DUP1 SWAP2 SUB SWAP1 RETURN JUMPDEST CALLVALUE DUP1 ISZERO PUSH2 0x98 JUMPI PUSH1 0x0 DUP1 REVERT JUMPDEST POP PUSH2 0xB3 PUSH1 0x4 DUP1 CALLDATASIZE SUB PUSH2 0xAE SWAP2 SWAP1 DUP2 ADD SWAP1 PUSH2 0x69B JUMP JUMPDEST PUSH2 0x259 JUMP JUMPDEST STOP JUMPDEST CALLVALUE DUP1 ISZERO PUSH2 0xC1 JUMPI PUSH1 0x0 DUP1 REVERT JUMPDEST POP PUSH2 0xDC PUSH1 0x4 DUP1 CALLDATASIZE SUB PUSH2 0xD7 SWAP2 SWAP1 DUP2 ADD SWAP1 PUSH2 0x672 JUMP JUMPDEST PUSH2 0x2CF JUMP JUMPDEST STOP JUMPDEST PUSH2 0xF8 PUSH1 0x4 DUP1 CALLDATASIZE SUB PUSH2 0xF3 SWAP2 SWAP1 DUP2 ADD SWAP1 PUSH2 0x631 JUMP JUMPDEST PUSH2 0x350 JUMP JUMPDEST STOP JUMPDEST CALLVALUE DUP1 ISZERO PUSH2 0x106 JUMPI PUSH1 0x0 DUP1 REVERT JUMPDEST POP PUSH2 0x10F PUSH2 0x461 JUMP JUMPDEST PUSH1 0x40 MLOAD PUSH2 0x11C SWAP2 SWAP1 PUSH2 0x78D JUMP JUMPDEST PUSH1 0x40 MLOAD DUP1 SWAP2 SUB SWAP1 RETURN JUMPDEST PUSH2 0x12D PUSH2 0x4AA JUMP JUMPDEST PUSH1 0x0 DUP1 PUSH1 0x0 CALLER PUSH20 0xFFFFFFFFFFFFFFFFFFFFFFFFFFFFFFFFFFFFFFFF AND PUSH20 0xFFFFFFFFFFFFFFFFFFFFFFFFFFFFFFFFFFFFFFFF AND DUP2 MSTORE PUSH1 0x20 ADD SWAP1 DUP2 MSTORE PUSH1 0x20 ADD PUSH1 0x0 KECCAK256 DUP4 DUP2 SLOAD DUP2 LT PUSH2 0x178 JUMPI INVALID JUMPDEST SWAP1 PUSH1 0x0 MSTORE PUSH1 0x20 PUSH1 0x0 KECCAK256 SWAP1 PUSH1 0x2 MUL ADD SWAP1 POP DUP1 PUSH1 0x40 MLOAD DUP1 PUSH1 0x40 ADD PUSH1 0x40 MSTORE SWAP1 DUP2 PUSH1 0x0 DUP3 ADD DUP1 SLOAD PUSH1 0x1 DUP2 PUSH1 0x1 AND ISZERO PUSH2 0x100 MUL SUB AND PUSH1 0x2 SWAP1 DIV DUP1 PUSH1 0x1F ADD PUSH1 0x20 DUP1 SWAP2 DIV MUL PUSH1 0x20 ADD PUSH1 0x40 MLOAD SWAP1 DUP2 ADD PUSH1 0x40 MSTORE DUP1 SWAP3 SWAP2 SWAP1 DUP2 DUP2 MSTORE PUSH1 0x20 ADD DUP3 DUP1 SLOAD PUSH1 0x1 DUP2 PUSH1 0x1 AND ISZERO PUSH2 0x100 MUL SUB AND PUSH1 0x2 SWAP1 DIV DUP1 ISZERO PUSH2 0x22D JUMPI DUP1 PUSH1 0x1F LT PUSH2 0x202 JUMPI PUSH2 0x100 DUP1 DUP4 SLOAD DIV MUL DUP4 MSTORE SWAP2 PUSH1 0x20 ADD SWAP2 PUSH2 0x22D JUMP JUMPDEST DUP3 ADD SWAP2 SWAP1 PUSH1 0x0 MSTORE PUSH1 0x20 PUSH1 0x0 KECCAK256 SWAP1 JUMPDEST DUP2 SLOAD DUP2 MSTORE SWAP1 PUSH1 0x1 ADD SWAP1 PUSH1 0x20 ADD DUP1 DUP4 GT PUSH2 0x210 JUMPI DUP3 SWAP1 SUB PUSH1 0x1F AND DUP3 ADD SWAP2 JUMPDEST POP POP POP POP POP DUP2 MSTORE PUSH1 0x20 ADD PUSH1 0x1 DUP3 ADD PUSH1 0x0 SWAP1 SLOAD SWAP1 PUSH2 0x100 EXP SWAP1 DIV PUSH1 0xFF AND ISZERO ISZERO ISZERO ISZERO DUP2 MSTORE POP POP SWAP2 POP POP SWAP2 SWAP1 POP JUMP JUMPDEST DUP1 PUSH1 0x0 DUP1 CALLER PUSH20 0xFFFFFFFFFFFFFFFFFFFFFFFFFFFFFFFFFFFFFFFF AND PUSH20 0xFFFFFFFFFFFFFFFFFFFFFFFFFFFFFFFFFFFFFFFF AND DUP2 MSTORE PUSH1 0x20 ADD SWAP1 DUP2 MSTORE PUSH1 0x20 ADD PUSH1 0x0 KECCAK256 DUP4 DUP2 SLOAD DUP2 LT PUSH2 0x2A3 JUMPI INVALID JUMPDEST SWAP1 PUSH1 0x0 MSTORE PUSH1 0x20 PUSH1 0x0 KECCAK256 SWAP1 PUSH1 0x2 MUL ADD PUSH1 0x1 ADD PUSH1 0x0 PUSH2 0x100 EXP DUP2 SLOAD DUP2 PUSH1 0xFF MUL NOT AND SWAP1 DUP4 ISZERO ISZERO MUL OR SWAP1 SSTORE POP POP POP JUMP JUMPDEST PUSH1 0x0 DUP1 CALLER PUSH20 0xFFFFFFFFFFFFFFFFFFFFFFFFFFFFFFFFFFFFFFFF AND PUSH20 0xFFFFFFFFFFFFFFFFFFFFFFFFFFFFFFFFFFFFFFFF AND DUP2 MSTORE PUSH1 0x20 ADD SWAP1 DUP2 MSTORE PUSH1 0x20 ADD PUSH1 0x0 KECCAK256 DUP2 DUP2 SLOAD DUP2 LT PUSH2 0x318 JUMPI INVALID JUMPDEST SWAP1 PUSH1 0x0 MSTORE PUSH1 0x20 PUSH1 0x0 KECCAK256 SWAP1 PUSH1 0x2 MUL ADD PUSH1 0x0 DUP1 DUP3 ADD PUSH1 0x0 PUSH2 0x337 SWAP2 SWAP1 PUSH2 0x4C6 JUMP JUMPDEST PUSH1 0x1 DUP3 ADD PUSH1 0x0 PUSH2 0x100 EXP DUP2 SLOAD SWAP1 PUSH1 0xFF MUL NOT AND SWAP1 SSTORE POP POP POP JUMP JUMPDEST PUSH1 0x0 DUP1 CALLER PUSH20 0xFFFFFFFFFFFFFFFFFFFFFFFFFFFFFFFFFFFFFFFF AND PUSH20 0xFFFFFFFFFFFFFFFFFFFFFFFFFFFFFFFFFFFFFFFF AND DUP2 MSTORE PUSH1 0x20 ADD SWAP1 DUP2 MSTORE PUSH1 0x20 ADD PUSH1 0x0 KECCAK256 PUSH1 0x40 MLOAD DUP1 PUSH1 0x40 ADD PUSH1 0x40 MSTORE DUP1 DUP4 DUP2 MSTORE PUSH1 0x20 ADD PUSH1 0x0 ISZERO ISZERO DUP2 MSTORE POP SWAP1 DUP1 PUSH1 0x1 DUP2 SLOAD ADD DUP1 DUP3 SSTORE DUP1 SWAP2 POP POP SWAP1 PUSH1 0x1 DUP3 SUB SWAP1 PUSH1 0x0 MSTORE PUSH1 0x20 PUSH1 0x0 KECCAK256 SWAP1 PUSH1 0x2 MUL ADD PUSH1 0x0 SWAP1 SWAP2 SWAP3 SWAP1 SWAP2 SWAP1 SWAP2 POP PUSH1 0x0 DUP3 ADD MLOAD DUP2 PUSH1 0x0 ADD SWAP1 DUP1 MLOAD SWAP1 PUSH1 0x20 ADD SWAP1 PUSH2 0x3ED SWAP3 SWAP2 SWAP1 PUSH2 0x50E JUMP JUMPDEST POP PUSH1 0x20 DUP3 ADD MLOAD DUP2 PUSH1 0x1 ADD PUSH1 0x0 PUSH2 0x100 EXP DUP2 SLOAD DUP2 PUSH1 0xFF MUL NOT AND SWAP1 DUP4 ISZERO ISZERO MUL OR SWAP1 SSTORE POP POP POP POP PUSH1 0x0 CALLER SWAP1 POP DUP1 PUSH20 0xFFFFFFFFFFFFFFFFFFFFFFFFFFFFFFFFFFFFFFFF AND PUSH2 0x8FC CALLVALUE SWAP1 DUP2 ISZERO MUL SWAP1 PUSH1 0x40 MLOAD PUSH1 0x0 PUSH1 0x40 MLOAD DUP1 DUP4 SUB DUP2 DUP6 DUP9 DUP9 CALL SWAP4 POP POP POP POP ISZERO DUP1 ISZERO PUSH2 0x45C JUMPI RETURNDATASIZE PUSH1 0x0 DUP1 RETURNDATACOPY RETURNDATASIZE PUSH1 0x0 REVERT JUMPDEST POP POP POP JUMP JUMPDEST PUSH1 0x0 DUP1 PUSH1 0x0 CALLER PUSH20 0xFFFFFFFFFFFFFFFFFFFFFFFFFFFFFFFFFFFFFFFF AND PUSH20 0xFFFFFFFFFFFFFFFFFFFFFFFFFFFFFFFFFFFFFFFF AND DUP2 MSTORE PUSH1 0x20 ADD SWAP1 DUP2 MSTORE PUSH1 0x20 ADD PUSH1 0x0 KECCAK256 DUP1 SLOAD SWAP1 POP SWAP1 POP SWAP1 JUMP JUMPDEST PUSH1 0x40 MLOAD DUP1 PUSH1 0x40 ADD PUSH1 0x40 MSTORE DUP1 PUSH1 0x60 DUP2 MSTORE PUSH1 0x20 ADD PUSH1 0x0 ISZERO ISZERO DUP2 MSTORE POP SWAP1 JUMP JUMPDEST POP DUP1 SLOAD PUSH1 0x1 DUP2 PUSH1 0x1 AND ISZERO PUSH2 0x100 MUL SUB AND PUSH1 0x2 SWAP1 DIV PUSH1 0x0 DUP3 SSTORE DUP1 PUSH1 0x1F LT PUSH2 0x4EC JUMPI POP PUSH2 0x50B JUMP JUMPDEST PUSH1 0x1F ADD PUSH1 0x20 SWAP1 DIV SWAP1 PUSH1 0x0 MSTORE PUSH1 0x20 PUSH1 0x0 KECCAK256 SWAP1 DUP2 ADD SWAP1 PUSH2 0x50A SWAP2 SWAP1 PUSH2 0x58E JUMP JUMPDEST JUMPDEST POP JUMP JUMPDEST DUP3 DUP1 SLOAD PUSH1 0x1 DUP2 PUSH1 0x1 AND ISZERO PUSH2 0x100 MUL SUB AND PUSH1 0x2 SWAP1 DIV SWAP1 PUSH1 0x0 MSTORE PUSH1 0x20 PUSH1 0x0 KECCAK256 SWAP1 PUSH1 0x1F ADD PUSH1 0x20 SWAP1 DIV DUP2 ADD SWAP3 DUP3 PUSH1 0x1F LT PUSH2 0x54F JUMPI DUP1 MLOAD PUSH1 0xFF NOT AND DUP4 DUP1 ADD OR DUP6 SSTORE PUSH2 0x57D JUMP JUMPDEST DUP3 DUP1 ADD PUSH1 0x1 ADD DUP6 SSTORE DUP3 ISZERO PUSH2 0x57D JUMPI SWAP2 DUP3 ADD JUMPDEST DUP3 DUP2 GT ISZERO PUSH2 0x57C JUMPI DUP3 MLOAD DUP3 SSTORE SWAP2 PUSH1 0x20 ADD SWAP2 SWAP1 PUSH1 0x1 ADD SWAP1 PUSH2 0x561 JUMP JUMPDEST JUMPDEST POP SWAP1 POP PUSH2 0x58A SWAP2 SWAP1 PUSH2 0x58E JUMP JUMPDEST POP SWAP1 JUMP JUMPDEST PUSH2 0x5B0 SWAP2 SWAP1 JUMPDEST DUP1 DUP3 GT ISZERO PUSH2 0x5AC JUMPI PUSH1 0x0 DUP2 PUSH1 0x0 SWAP1 SSTORE POP PUSH1 0x1 ADD PUSH2 0x594 JUMP JUMPDEST POP SWAP1 JUMP JUMPDEST SWAP1 JUMP JUMPDEST PUSH1 0x0 DUP2 CALLDATALOAD SWAP1 POP PUSH2 0x5C2 DUP2 PUSH2 0x886 JUMP JUMPDEST SWAP3 SWAP2 POP POP JUMP JUMPDEST PUSH1 0x0 DUP3 PUSH1 0x1F DUP4 ADD SLT PUSH2 0x5D9 JUMPI PUSH1 0x0 DUP1 REVERT JUMPDEST DUP2 CALLDATALOAD PUSH2 0x5EC PUSH2 0x5E7 DUP3 PUSH2 0x7D5 JUMP JUMPDEST PUSH2 0x7A8 JUMP JUMPDEST SWAP2 POP DUP1 DUP3 MSTORE PUSH1 0x20 DUP4 ADD PUSH1 0x20 DUP4 ADD DUP6 DUP4 DUP4 ADD GT ISZERO PUSH2 0x608 JUMPI PUSH1 0x0 DUP1 REVERT JUMPDEST PUSH2 0x613 DUP4 DUP3 DUP5 PUSH2 0x833 JUMP JUMPDEST POP POP POP SWAP3 SWAP2 POP POP JUMP JUMPDEST PUSH1 0x0 DUP2 CALLDATALOAD SWAP1 POP PUSH2 0x62B DUP2 PUSH2 0x89D JUMP JUMPDEST SWAP3 SWAP2 POP POP JUMP JUMPDEST PUSH1 0x0 PUSH1 0x20 DUP3 DUP5 SUB SLT ISZERO PUSH2 0x643 JUMPI PUSH1 0x0 DUP1 REVERT JUMPDEST PUSH1 0x0 DUP3 ADD CALLDATALOAD PUSH8 0xFFFFFFFFFFFFFFFF DUP2 GT ISZERO PUSH2 0x65D JUMPI PUSH1 0x0 DUP1 REVERT JUMPDEST PUSH2 0x669 DUP5 DUP3 DUP6 ADD PUSH2 0x5C8 JUMP JUMPDEST SWAP2 POP POP SWAP3 SWAP2 POP POP JUMP JUMPDEST PUSH1 0x0 PUSH1 0x20 DUP3 DUP5 SUB SLT ISZERO PUSH2 0x684 JUMPI PUSH1 0x0 DUP1 REVERT JUMPDEST PUSH1 0x0 PUSH2 0x692 DUP5 DUP3 DUP6 ADD PUSH2 0x61C JUMP JUMPDEST SWAP2 POP POP SWAP3 SWAP2 POP POP JUMP JUMPDEST PUSH1 0x0 DUP1 PUSH1 0x40 DUP4 DUP6 SUB SLT ISZERO PUSH2 0x6AE JUMPI PUSH1 0x0 DUP1 REVERT JUMPDEST PUSH1 0x0 PUSH2 0x6BC DUP6 DUP3 DUP7 ADD PUSH2 0x61C JUMP JUMPDEST SWAP3 POP POP PUSH1 0x20 PUSH2 0x6CD DUP6 DUP3 DUP7 ADD PUSH2 0x5B3 JUMP JUMPDEST SWAP2 POP POP SWAP3 POP SWAP3 SWAP1 POP JUMP JUMPDEST PUSH2 0x6E0 DUP2 PUSH2 0x81D JUMP JUMPDEST DUP3 MSTORE POP POP JUMP JUMPDEST PUSH1 0x0 PUSH2 0x6F1 DUP3 PUSH2 0x801 JUMP JUMPDEST PUSH2 0x6FB DUP2 DUP6 PUSH2 0x80C JUMP JUMPDEST SWAP4 POP PUSH2 0x70B DUP2 DUP6 PUSH1 0x20 DUP7 ADD PUSH2 0x842 JUMP JUMPDEST PUSH2 0x714 DUP2 PUSH2 0x875 JUMP JUMPDEST DUP5 ADD SWAP2 POP POP SWAP3 SWAP2 POP POP JUMP JUMPDEST PUSH1 0x0 PUSH1 0x40 DUP4 ADD PUSH1 0x0 DUP4 ADD MLOAD DUP5 DUP3 SUB PUSH1 0x0 DUP7 ADD MSTORE PUSH2 0x73C DUP3 DUP3 PUSH2 0x6E6 JUMP JUMPDEST SWAP2 POP POP PUSH1 0x20 DUP4 ADD MLOAD PUSH2 0x751 PUSH1 0x20 DUP7 ADD DUP3 PUSH2 0x6D7 JUMP JUMPDEST POP DUP1 SWAP2 POP POP SWAP3 SWAP2 POP POP JUMP JUMPDEST PUSH2 0x765 DUP2 PUSH2 0x829 JUMP JUMPDEST DUP3 MSTORE POP POP JUMP JUMPDEST PUSH1 0x0 PUSH1 0x20 DUP3 ADD SWAP1 POP DUP2 DUP2 SUB PUSH1 0x0 DUP4 ADD MSTORE PUSH2 0x785 DUP2 DUP5 PUSH2 0x71F JUMP JUMPDEST SWAP1 POP SWAP3 SWAP2 POP POP JUMP JUMPDEST PUSH1 0x0 PUSH1 0x20 DUP3 ADD SWAP1 POP PUSH2 0x7A2 PUSH1 0x0 DUP4 ADD DUP5 PUSH2 0x75C JUMP JUMPDEST SWAP3 SWAP2 POP POP JUMP JUMPDEST PUSH1 0x0 PUSH1 0x40 MLOAD SWAP1 POP DUP2 DUP2 ADD DUP2 DUP2 LT PUSH8 0xFFFFFFFFFFFFFFFF DUP3 GT OR ISZERO PUSH2 0x7CB JUMPI PUSH1 0x0 DUP1 REVERT JUMPDEST DUP1 PUSH1 0x40 MSTORE POP SWAP2 SWAP1 POP JUMP JUMPDEST PUSH1 0x0 PUSH8 0xFFFFFFFFFFFFFFFF DUP3 GT ISZERO PUSH2 0x7EC JUMPI PUSH1 0x0 DUP1 REVERT JUMPDEST PUSH1 0x1F NOT PUSH1 0x1F DUP4 ADD AND SWAP1 POP PUSH1 0x20 DUP2 ADD SWAP1 POP SWAP2 SWAP1 POP JUMP JUMPDEST PUSH1 0x0 DUP2 MLOAD SWAP1 POP SWAP2 SWAP1 POP JUMP JUMPDEST PUSH1 0x0 DUP3 DUP3 MSTORE PUSH1 0x20 DUP3 ADD SWAP1 POP SWAP3 SWAP2 POP POP JUMP JUMPDEST PUSH1 0x0 DUP2 ISZERO ISZERO SWAP1 POP SWAP2 SWAP1 POP JUMP JUMPDEST PUSH1 0x0 DUP2 SWAP1 POP SWAP2 SWAP1 POP JUMP JUMPDEST DUP3 DUP2 DUP4 CALLDATACOPY PUSH1 0x0 DUP4 DUP4 ADD MSTORE POP POP POP JUMP JUMPDEST PUSH1 0x0 JUMPDEST DUP4 DUP2 LT ISZERO PUSH2 0x860 JUMPI DUP1 DUP3 ADD MLOAD DUP2 DUP5 ADD MSTORE PUSH1 0x20 DUP2 ADD SWAP1 POP PUSH2 0x845 JUMP JUMPDEST DUP4 DUP2 GT ISZERO PUSH2 0x86F JUMPI PUSH1 0x0 DUP5 DUP5 ADD MSTORE JUMPDEST POP POP POP POP JUMP JUMPDEST PUSH1 0x0 PUSH1 0x1F NOT PUSH1 0x1F DUP4 ADD AND SWAP1 POP SWAP2 SWAP1 POP JUMP JUMPDEST PUSH2 0x88F DUP2 PUSH2 0x81D JUMP JUMPDEST DUP2 EQ PUSH2 0x89A JUMPI PUSH1 0x0 DUP1 REVERT JUMPDEST POP JUMP JUMPDEST PUSH2 0x8A6 DUP2 PUSH2 0x829 JUMP JUMPDEST DUP2 EQ PUSH2 0x8B1 JUMPI PUSH1 0x0 DUP1 REVERT JUMPDEST POP JUMP INVALID LOG3 PUSH6 0x627A7A723158 KECCAK256 SWAP16 SWAP12 0xA8 0xC4 0x27 CREATE2 TIMESTAMP 0xBF 0xF6 PUSH12 0xAD7E5626A4CAD8D245506D7C 0xBB 0x25 BALANCE DIV 0xDC GT 0xD0 0xD3 0xD3 CALL PUSH13 0x6578706572696D656E74616CF5 PUSH5 0x736F6C6343 STOP SDIV GT STOP BLOCKHASH "
				},
				"gasEstimates": {
					"creation": {
						"codeDepositCost": "459000",
						"executionCost": "493",
						"totalCost": "459493"
					},
					"external": {
						"addTask(string)": "infinite",
						"deleteTask(uint256)": "infinite",
						"getTask(uint256)": "infinite",
						"getTaskCount()": "1300",
						"updateStatus(uint256,bool)": "22438"
					}
				},
				"methodIdentifiers": {
					"addTask(string)": "67238562",
					"deleteTask(uint256)": "560f3192",
					"getTask(uint256)": "1d65e77e",
					"getTaskCount()": "c17a340e",
					"updateStatus(uint256,bool)": "387008c2"
				}
			},
			"storageLayout": {
				"storage": [
					{
						"astId": 12,
						"contract": "bloc.sol:Bloc",
						"label": "Users",
						"offset": 0,
						"slot": "0",
						"type": "t_mapping(t_address,t_array(t_struct(Task)7_storage)dyn_storage)"
					}
				],
				"types": {
					"t_address": {
						"encoding": "inplace",
						"label": "address",
						"numberOfBytes": "20"
					},
					"t_array(t_struct(Task)7_storage)dyn_storage": {
						"base": "t_struct(Task)7_storage",
						"encoding": "dynamic_array",
						"label": "struct Bloc.Task[]",
						"numberOfBytes": "32"
					},
					"t_bool": {
						"encoding": "inplace",
						"label": "bool",
						"numberOfBytes": "1"
					},
					"t_mapping(t_address,t_array(t_struct(Task)7_storage)dyn_storage)": {
						"encoding": "mapping",
						"key": "t_address",
						"label": "mapping(address => struct Bloc.Task[])",
						"numberOfBytes": "32",
						"value": "t_array(t_struct(Task)7_storage)dyn_storage"
					},
					"t_string_storage": {
						"encoding": "bytes",
						"label": "string",
						"numberOfBytes": "32"
					},
					"t_struct(Task)7_storage": {
						"encoding": "inplace",
						"label": "struct Bloc.Task",
						"members": [
							{
								"astId": 4,
								"contract": "bloc.sol:Bloc",
								"label": "task",
								"offset": 0,
								"slot": "0",
								"type": "t_string_storage"
							},
							{
								"astId": 6,
								"contract": "bloc.sol:Bloc",
								"label": "isDone",
								"offset": 0,
								"slot": "1",
								"type": "t_bool"
							}
						],
						"numberOfBytes": "64"
					}
				}
			},
			"userdoc": {
				"methods": {}
			}
		}
	}
}